{
  "abi": [
    {
      "type": "constructor",
      "inputs": [
        {
          "name": "_optionA",
          "type": "uint256",
          "internalType": "uint256"
        },
        {
          "name": "_optionB",
          "type": "uint256",
          "internalType": "uint256"
        },
        {
          "name": "_rewards",
          "type": "uint256",
          "internalType": "uint256"
        },
        {
          "name": "_startTimestamp",
          "type": "uint256",
          "internalType": "uint256"
        },
        {
          "name": "_endTimestamp",
          "type": "uint256",
          "internalType": "uint256"
        },
        {
          "name": "_thresholdVotes",
          "type": "uint32",
          "internalType": "uint32"
        },
        {
          "name": "_creator",
          "type": "address",
          "internalType": "address"
        },
        {
          "name": "_hbarLockingContractAddress",
          "type": "address",
          "internalType": "address"
        },
        {
          "name": "_N",
          "type": "bytes",
          "internalType": "bytes"
        },
        {
          "name": "_t",
          "type": "uint256",
          "internalType": "uint256"
        },
        {
          "name": "_a",
          "type": "uint32",
          "internalType": "uint32"
        },
        {
          "name": "_skLocked",
          "type": "bytes32",
          "internalType": "bytes32"
        },
        {
          "name": "_hashedSK",
          "type": "bytes32",
          "internalType": "bytes32"
        },
        {
          "name": "_publicKey",
          "type": "bytes32",
          "internalType": "bytes32"
        }
      ],
      "stateMutability": "nonpayable"
    },
    {
      "type": "function",
      "name": "LockingContract",
      "inputs": [],
      "outputs": [
        {
          "name": "",
          "type": "address",
          "internalType": "contract HBARlockingContract"
        }
      ],
      "stateMutability": "view"
    },
    {
      "type": "function",
      "name": "castVote",
      "inputs": [
        {
          "name": "_userPublicKey",
          "type": "uint256",
          "internalType": "uint256"
        },
        {
          "name": "_option",
          "type": "bytes",
          "internalType": "bytes"
        },
        {
          "name": "_amount",
          "type": "uint256",
          "internalType": "uint256"
        }
      ],
      "outputs": [],
      "stateMutability": "nonpayable"
    },
    {
      "type": "function",
      "name": "config",
      "inputs": [],
      "outputs": [
        {
          "name": "optionA",
          "type": "uint256",
          "internalType": "uint256"
        },
        {
          "name": "optionB",
          "type": "uint256",
          "internalType": "uint256"
        },
        {
          "name": "rewards",
          "type": "uint256",
          "internalType": "uint256"
        },
        {
          "name": "startTimestamp",
          "type": "uint256",
          "internalType": "uint256"
        },
        {
          "name": "endTimestamp",
          "type": "uint256",
          "internalType": "uint256"
        },
        {
          "name": "thresholdVotes",
          "type": "uint32",
          "internalType": "uint32"
        },
        {
          "name": "creator",
          "type": "address",
          "internalType": "address"
        }
      ],
      "stateMutability": "view"
    },
    {
      "type": "function",
      "name": "data",
      "inputs": [],
      "outputs": [
        {
          "name": "resolvedOption",
          "type": "uint256",
          "internalType": "uint256"
        },
        {
          "name": "unlockedSecret",
          "type": "bytes32",
          "internalType": "bytes32"
        },
        {
          "name": "totalVotes",
          "type": "uint32",
          "internalType": "uint32"
        },
        {
          "name": "solver",
          "type": "address",
          "internalType": "address"
        }
      ],
      "stateMutability": "view"
    },
    {
      "type": "function",
      "name": "deposits",
      "inputs": [
        {
          "name": "",
          "type": "address",
          "internalType": "address"
        }
      ],
      "outputs": [
        {
          "name": "",
          "type": "uint256",
          "internalType": "uint256"
        }
      ],
      "stateMutability": "view"
    },
    {
      "type": "function",
      "name": "encryptedVotes",
      "inputs": [
        {
          "name": "",
          "type": "uint256",
          "internalType": "uint256"
        }
      ],
      "outputs": [
        {
          "name": "",
          "type": "bytes",
          "internalType": "bytes"
        }
      ],
      "stateMutability": "view"
    },
    {
      "type": "function",
      "name": "getContractBalance",
      "inputs": [],
      "outputs": [
        {
          "name": "",
          "type": "uint256",
          "internalType": "uint256"
        }
      ],
      "stateMutability": "view"
    },
    {
      "type": "function",
      "name": "getDoubleHashedSK",
      "inputs": [],
      "outputs": [
        {
          "name": "",
          "type": "bytes32",
          "internalType": "bytes32"
        }
      ],
      "stateMutability": "view"
    },
    {
      "type": "function",
      "name": "getPublicParameters",
      "inputs": [],
      "outputs": [
        {
          "name": "",
          "type": "tuple",
          "internalType": "struct CreateVote.PublicParameters",
          "components": [
            {
              "name": "N",
              "type": "bytes",
              "internalType": "bytes"
            },
            {
              "name": "t",
              "type": "uint256",
              "internalType": "uint256"
            },
            {
              "name": "a",
              "type": "uint32",
              "internalType": "uint32"
            },
            {
              "name": "sk_locked",
              "type": "bytes32",
              "internalType": "bytes32"
            },
            {
              "name": "hashedSK",
              "type": "bytes32",
              "internalType": "bytes32"
            },
            {
              "name": "publicKey",
              "type": "bytes32",
              "internalType": "bytes32"
            }
          ]
        }
      ],
      "stateMutability": "view"
    },
    {
      "type": "function",
      "name": "getSolver",
      "inputs": [],
      "outputs": [
        {
          "name": "",
          "type": "address",
          "internalType": "address"
        }
      ],
      "stateMutability": "view"
    },
    {
      "type": "function",
      "name": "getUnlockedSK",
      "inputs": [],
      "outputs": [
        {
          "name": "",
          "type": "bytes32",
          "internalType": "bytes32"
        }
      ],
      "stateMutability": "view"
    },
    {
      "type": "function",
      "name": "pp",
      "inputs": [],
      "outputs": [
        {
          "name": "N",
          "type": "bytes",
          "internalType": "bytes"
        },
        {
          "name": "t",
          "type": "uint256",
          "internalType": "uint256"
        },
        {
          "name": "a",
          "type": "uint32",
          "internalType": "uint32"
        },
        {
          "name": "sk_locked",
          "type": "bytes32",
          "internalType": "bytes32"
        },
        {
          "name": "hashedSK",
          "type": "bytes32",
          "internalType": "bytes32"
        },
        {
          "name": "publicKey",
          "type": "bytes32",
          "internalType": "bytes32"
        }
      ],
      "stateMutability": "view"
    },
    {
      "type": "function",
      "name": "verifySecret",
      "inputs": [
        {
          "name": "_userSecret",
          "type": "bytes32",
          "internalType": "bytes32"
        }
      ],
      "outputs": [
        {
          "name": "",
          "type": "bool",
          "internalType": "bool"
        }
      ],
      "stateMutability": "nonpayable"
    },
    {
      "type": "function",
      "name": "voters",
      "inputs": [
        {
          "name": "",
          "type": "address",
          "internalType": "address"
        }
      ],
      "outputs": [
        {
          "name": "",
          "type": "uint256",
          "internalType": "uint256"
        }
      ],
      "stateMutability": "view"
    },
    {
      "type": "event",
      "name": "PuzzleSolved",
      "inputs": [
        {
          "name": "",
          "type": "address",
          "indexed": false,
          "internalType": "address"
        }
      ],
      "anonymous": false
    },
    {
      "type": "event",
      "name": "VoteCast",
      "inputs": [
        {
          "name": "voter",
          "type": "address",
          "indexed": true,
          "internalType": "address"
        },
        {
          "name": "option",
          "type": "bytes",
          "indexed": true,
          "internalType": "bytes"
        }
      ],
      "anonymous": false
    },
    {
      "type": "event",
      "name": "WinningOption",
      "inputs": [
        {
          "name": "",
          "type": "uint256",
          "indexed": false,
          "internalType": "uint256"
        },
        {
          "name": "",
          "type": "uint256",
          "indexed": false,
          "internalType": "uint256"
        }
      ],
      "anonymous": false
    },
    {
      "type": "error",
      "name": "AlreadyVoted",
      "inputs": [
        {
          "name": "",
          "type": "address",
          "internalType": "address"
        }
      ]
    },
    {
      "type": "error",
      "name": "DepositTooSmall",
      "inputs": [
        {
          "name": "",
          "type": "address",
          "internalType": "address"
        }
      ]
    },
    {
      "type": "error",
      "name": "IncorrectSecretKey",
      "inputs": [
        {
          "name": "",
          "type": "bytes32",
          "internalType": "bytes32"
        }
      ]
    },
    {
      "type": "error",
      "name": "RewardsTooSmall",
      "inputs": [
        {
          "name": "",
          "type": "address",
          "internalType": "address"
        },
        {
          "name": "",
          "type": "uint256",
          "internalType": "uint256"
        }
      ]
    },
    {
      "type": "error",
      "name": "StartTimestampMustBeBeforeEndTimestamp",
      "inputs": [
        {
          "name": "startTimestamp",
          "type": "uint256",
          "internalType": "uint256"
        },
        {
          "name": "endTimestamp",
          "type": "uint256",
          "internalType": "uint256"
        }
      ]
    },
    {
      "type": "error",
      "name": "VoteNotStarted",
      "inputs": [
        {
          "name": "",
          "type": "uint256",
          "internalType": "uint256"
        }
      ]
    }
  ],
  "bytecode": {
    "object": "0x6080604052346200004a57620000316200001862000354565b9c9b909b9a919a99929998939897949796959662000bfd565b6200003b62000050565b611b1b62000f448239611b1b90f35b62000056565b60405190565b5f80fd5b601f801991011690565b634e487b7160e01b5f52604160045260245ffd5b9062000084906200005a565b810190811060018060401b038211176200009d57604052565b62000064565b90620000ba620000b262000050565b928362000078565b565b5f80fd5b5f80fd5b90565b620000d281620000c4565b03620000da57565b5f80fd5b90505190620000ed82620000c7565b565b63ffffffff1690565b6200010381620000ef565b036200010b57565b5f80fd5b905051906200011e82620000f8565b565b60018060a01b031690565b620001369062000120565b90565b62000144816200012b565b036200014c57565b5f80fd5b905051906200015f8262000139565b565b5f80fd5b5f80fd5b60018060401b0381116200018857620001846020916200005a565b0190565b62000064565b5f5b838110620001a1575050905f910152565b80602091830151818501520162000190565b90929192620001cc620001c68262000169565b620000a3565b93818552602085019082840111620001eb57620001e9926200018e565b565b62000165565b9080601f8301121562000212578160206200020f93519101620001b3565b90565b62000161565b90565b620002268162000218565b036200022e57565b5f80fd5b9050519062000241826200021b565b565b91906101c0838203126200034e576200025f815f8501620000de565b926200026f8260208301620000de565b926200027f8360408401620000de565b926200028f8160608501620000de565b926200029f8260808301620000de565b92620002af8360a084016200010f565b92620002bf8160c0850162000150565b92620002cf8260e0830162000150565b9261010082015160018060401b038111620003485783620002f2918401620001f1565b9262000303816101208501620000de565b92620003148261014083016200010f565b92620003456200032984610160850162000232565b936200033a81610180860162000232565b936101a00162000232565b90565b620000c0565b620000bc565b6200037762002a5f803803806200036b81620000a3565b92833981019062000243565b909192939495969798999a9b9c9d565b90565b620003a36200039d620003a99262000120565b62000387565b62000120565b90565b620003b7906200038a565b90565b620003c590620003ac565b90565b5f1b90565b90620003e060018060a01b0391620003c8565b9181191691161790565b620003f590620003ac565b90565b90565b90620004156200040f6200041d92620003ea565b620003f8565b8254620003cd565b9055565b6200042c90620000c4565b9052565b916020620004559294936200044d60408201965f83019062000421565b019062000421565b565b90565b620004736200046d620004799262000457565b62000387565b620000c4565b90565b62000487906200012b565b9052565b916020620004b0929493620004a860408201965f8301906200047c565b019062000421565b565b5f1c90565b60018060a01b031690565b620004d1620004d791620004b2565b620004b7565b90565b620004e69054620004c2565b90565b620004f4906200038a565b90565b6200050290620004e9565b90565b60e01b90565b90602082820312620005275762000524915f01620000de565b90565b620000bc565b919062000542905f602085019401906200047c565b565b6200054e62000050565b3d5f823e3d90fd5b6200056260e0620000a3565b90565b906200057190620000c4565b9052565b906200058190620000ef565b9052565b9062000591906200012b565b9052565b620005a19051620000c4565b90565b90620005b25f1991620003c8565b9181191691161790565b620005d5620005cf620005db92620000c4565b62000387565b620000c4565b90565b90565b90620005fb620005f56200060392620005bc565b620005de565b8254620005a4565b9055565b620006139051620000ef565b90565b906200062763ffffffff91620003c8565b9181191691161790565b6200064a620006446200065092620000ef565b62000387565b620000ef565b90565b90565b90620006706200066a620006789262000631565b62000653565b825462000616565b9055565b6200068890516200012b565b90565b60201b90565b90620006a9640100000000600160c01b03916200068b565b9181191691161790565b620006be90620004e9565b90565b90565b90620006de620006d8620006e692620006b3565b620006c1565b825462000691565b9055565b90620007ac60c06005620007b394620007135f82016200070c5f880162000595565b90620005e1565b6200073060018201620007296020880162000595565b90620005e1565b6200074d60028201620007466040880162000595565b90620005e1565b6200076a60038201620007636060880162000595565b90620005e1565b6200078760048201620007806080880162000595565b90620005e1565b620007a38282016200079c60a0880162000607565b9062000656565b0192016200067c565b90620006c4565b565b90620007c191620006ea565b565b620007cf60c0620000a3565b90565b52565b90620007e19062000218565b9052565b5190565b5190565b634e487b7160e01b5f52602260045260245ffd5b906001600283049216801562000824575b60208310146200081e57565b620007ed565b91607f169162000812565b5f5260205f2090565b601f602091010490565b1b90565b91906008620008659102916200085e5f198462000842565b9262000842565b9181191691161790565b91906200088a620008846200089393620005bc565b620005de565b90835462000846565b9055565b5f90565b620008b191620008aa62000897565b916200086f565b565b5b818110620008c0575050565b80620008cf5f6001936200089b565b01620008b4565b9190601f8111620008e7575b505050565b620008f662000921936200082f565b906020620009048462000838565b830193106200092a575b620009199062000838565b0190620008b3565b5f8080620008e2565b915062000919819290506200090e565b1c90565b9062000950905f19906008026200093a565b191690565b8162000961916200093e565b906002021790565b906200097581620007e9565b9060018060401b03821162000a46576200099c8262000995855462000801565b85620008d6565b602090601f8311600114620009d557918091620009c3935f92620009c8575b505062000955565b90555b565b90915001515f80620009bb565b601f19831691620009e6856200082f565b925f5b81811062000a2d5750916002939185600196941062000a10575b50505002019055620009c6565b62000a22910151601f8416906200093e565b90555f808062000a03565b91936020600181928787015181550195019201620009e9565b62000064565b9062000a589162000969565b565b62000a66905162000218565b90565b62000a749062000218565b90565b62000a8290620004b2565b90565b9062000a9f62000a9962000aa79262000a69565b62000a77565b8254620005a4565b9055565b9062000b5160a0600562000b589462000ad45f820162000acd5f8801620007e5565b9062000a4c565b62000af16001820162000aea6020880162000595565b90620005e1565b62000b0e6002820162000b076040880162000607565b9062000656565b62000b2b6003820162000b246060880162000a5a565b9062000a85565b62000b486004820162000b416080880162000a5a565b9062000a85565b01920162000a5a565b9062000a85565b565b9062000b669162000aab565b565b62000b7390620004e9565b90565b151590565b62000b868162000b76565b0362000b8e57565b5f80fd5b9050519062000ba18262000b7b565b565b9060208282031262000bbf5762000bbc915f0162000b92565b90565b620000bc565b60409062000bf362000bfb949695939662000be860608401985f8501906200047c565b60208301906200047c565b019062000421565b565b90949392919c989a9662000c1962000c20919d99979d620003ba565b5f620003fb565b8162000c3762000c3085620000c4565b91620000c4565b101562000f19578c62000c5962000c526305f5e1006200045a565b91620000c4565b1062000eee5762000ca860208d62000c7b62000c755f620004da565b620004f7565b62000c9c5f630fcd4a4762000c8f62000050565b9687958694859362000505565b8352600483016200052d565b03925af190811562000ee8578e905f9262000ea7575b5062000cce62000cd591620000c4565b91620000c4565b1062000e7d579562000dae62000dcc9662000d878f60209f9e9c988f9062000dde9f9c62000d7f9262000dd69f9a62000dc29c62000d6162000d6b9262000d5762000db89e62000d4d5f9b62000d4362000d759a9b91939597999b62000d3a62000556565b9e8f0162000565565b60208d0162000565565b60408b0162000565565b6060890162000565565b6080870162000565565b60a0850162000575565b60c0830162000585565b6001620007b5565b99979193959762000da562000d9b620007c3565b9b5f8d01620007d2565b8d8b0162000565565b6040890162000575565b60608701620007d5565b60808501620007d5565b60a08301620007d5565b600a62000b5a565b62000df362000ded5f620004da565b620004f7565b62000e245f63eee0b48962000e3062000e0c3062000b68565b9762000e1762000050565b9889978896879562000505565b85526004850162000bc5565b03925af1801562000e775762000e44575b50565b62000e699060203d811162000e6f575b62000e60818362000078565b81019062000ba3565b62000e41565b503d62000e54565b62000544565b62000ea38c62000e8c62000050565b918291638ff398d160e01b8352600483016200052d565b0390fd5b62000cd591925062000ed762000cce9160203d811162000ee0575b62000ece818362000078565b8101906200050b565b92915062000cbe565b503d62000ec2565b62000544565b8c8c62000f1562000efe62000050565b928392633678013760e21b8452600484016200048b565b0390fd5b5062000f3f62000f2862000050565b92839263bcc509ad60e01b84526004840162000430565b0390fdfe60806040526004361015610013575b610d65565b61001d5f356100fc565b80630bcb5ed0146100f7578063291ae9b3146100f25780635c889881146100ed5780636f9fb98a146100e857806373d4a13a146100e3578063766c0971146100de57806379502c55146100d957806391327ec6146100d457806393ab0b72146100cf57806395bedd4a146100ca578063a3ec138d146100c5578063abac7b5e146100c0578063fc7e286d146100bb5763fde315bd0361000e57610d30565b610c4f565b610c01565b610b64565b610a8d565b610a58565b610937565b6106df565b6105e6565b610512565b6103aa565b610353565b6102fa565b610158565b60e01c90565b60405190565b5f80fd5b5f80fd5b5f91031261011a57565b61010c565b60018060a01b031690565b6101339061011f565b90565b61013f9061012a565b9052565b9190610156905f60208501940190610136565b565b3461018857610168366004610110565b610184610173610d6d565b61017b610102565b91829182610143565b0390f35b610108565b5f80fd5b90565b61019d81610191565b036101a457565b5f80fd5b905035906101b582610194565b565b5f80fd5b5f80fd5b601f801991011690565b634e487b7160e01b5f52604160045260245ffd5b906101e7906101bf565b810190811067ffffffffffffffff82111761020157604052565b6101c9565b90610219610212610102565b92836101dd565b565b67ffffffffffffffff8111610239576102356020916101bf565b0190565b6101c9565b90825f939282370152565b9092919261025e6102598261021b565b610206565b9381855260208501908284011161027a576102789261023e565b565b6101bb565b9080601f8301121561029d5781602061029a93359101610249565b90565b6101b7565b90916060828403126102f0576102ba835f84016101a8565b9260208301359067ffffffffffffffff82116102eb576102df816102e893860161027f565b936040016101a8565b90565b61018d565b61010c565b5f0190565b346103295761031361030d3660046102a2565b9161118f565b61031b610102565b80610325816102f5565b0390f35b610108565b90565b61033a9061032e565b9052565b9190610351905f60208501940190610331565b565b3461038357610363366004610110565b61037f61036e611465565b610376610102565b9182918261033e565b0390f35b610108565b61039190610191565b9052565b91906103a8905f60208501940190610388565b565b346103da576103ba366004610110565b6103d66103c561147e565b6103cd610102565b91829182610395565b0390f35b610108565b5f1c90565b90565b6103f36103f8916103df565b6103e4565b90565b61040590546103e7565b90565b90565b61041761041c916103df565b610408565b90565b610429905461040b565b90565b63ffffffff1690565b610441610446916103df565b61042c565b90565b6104539054610435565b90565b60201c90565b60018060a01b031690565b61047361047891610456565b61045c565b90565b6104859054610467565b90565b6007906104965f83016103fb565b916104a36001820161041f565b916104bb60026104b4818501610449565b930161047b565b90565b63ffffffff1690565b6104d0906104be565b9052565b610509610510946104ff6060949897956104f5608086019a5f870190610388565b6020850190610331565b60408301906104c7565b0190610136565b565b3461054657610522366004610110565b61054261052d610488565b90610539949294610102565b948594856104d4565b0390f35b610108565b1c90565b60018060a01b031690565b61056a90600861056f930261054b565b61054f565b90565b9061057d915461055a565b90565b61058a5f80610572565b90565b90565b6105a461059f6105a99261011f565b61058d565b61011f565b90565b6105b590610590565b90565b6105c1906105ac565b90565b6105cd906105b8565b9052565b91906105e4905f602085019401906105c4565b565b34610616576105f6366004610110565b610612610601610580565b610609610102565b918291826105d1565b0390f35b610108565b60016106285f82016103fb565b91610635600183016103fb565b91610642600282016103fb565b9161064f600383016103fb565b9161065c600482016103fb565b91610674600561066d818501610449565b930161047b565b90565b949290979695939160e08601985f870161069091610388565b6020860161069d91610388565b604085016106aa91610388565b606084016106b791610388565b608083016106c491610388565b60a082016106d1916104c7565b60c0016106dd91610136565b565b34610716576106ef366004610110565b6107126106fa61061b565b93610709979597939193610102565b97889788610677565b0390f35b610108565b634e487b7160e01b5f52602260045260245ffd5b906001600283049216801561074f575b602083101461074a57565b61071b565b91607f169161073f565b60209181520190565b5f5260205f2090565b905f929180549061078561077e8361072f565b8094610759565b916001811690815f146107dc57506001146107a0575b505050565b6107ad9192939450610762565b915f925b8184106107c457505001905f808061079b565b600181602092959395548486015201910192906107b1565b92949550505060ff19168252151560200201905f808061079b565b906108019161076b565b90565b9061082461081d92610814610102565b938480926107f7565b03836101dd565b565b600a906108345f8301610804565b91610841600182016103fb565b9161084e60028301610449565b9161085b6003820161041f565b91610874600561086d6004850161041f565b930161041f565b90565b5190565b60209181520190565b5f5b838110610896575050905f910152565b806020918301518185015201610886565b6108c66108cf6020936108d4936108bd81610877565b9384809361087b565b95869101610884565b6101bf565b0190565b91969593946109246109359661091a60a09661091061090561092e9760c08a01908a82035f8c01526108a7565b9c6020890190610388565b60408701906104c7565b6060850190610331565b6080830190610331565b0190610331565b565b3461096e57610947366004610110565b61096a610952610826565b92610961969496929192610102565b968796876108d8565b0390f35b610108565b61099261099b6020936109a09361098981610877565b93848093610759565b95869101610884565b6101bf565b0190565b6109ad90610191565b9052565b6109ba906104be565b9052565b6109c79061032e565b9052565b90610a3d9060a0806109ea60c084015f8701518582035f870152610973565b946109fd602082015160208601906109a4565b610a0f604082015160408601906109b1565b610a21606082015160608601906109be565b610a33608082015160808601906109be565b01519101906109be565b90565b610a559160208201915f8184039101526109cb565b90565b34610a8857610a68366004610110565b610a84610a73611669565b610a7b610102565b91829182610a40565b0390f35b610108565b34610abd57610a9d366004610110565b610ab9610aa86116ad565b610ab0610102565b9182918261033e565b0390f35b610108565b610acb8161012a565b03610ad257565b5f80fd5b90503590610ae382610ac2565b565b90602082820312610afe57610afb915f01610ad6565b90565b61010c565b610b0c906105ac565b90565b90610b1990610b03565b5f5260205260405f2090565b610b35906008610b3a930261054b565b6103e4565b90565b90610b489154610b25565b90565b610b6190610b5c6010915f92610b0f565b610b3d565b90565b34610b9457610b90610b7f610b7a366004610ae5565b610b4b565b610b87610102565b91829182610395565b0390f35b610108565b610ba28161032e565b03610ba957565b5f80fd5b90503590610bba82610b99565b565b90602082820312610bd557610bd2915f01610bad565b90565b61010c565b151590565b610be890610bda565b9052565b9190610bff905f60208501940190610bdf565b565b34610c3157610c2d610c1c610c17366004610bbc565b61188a565b610c24610102565b91829182610bec565b0390f35b610108565b610c4c90610c476012915f92610b0f565b610b3d565b90565b34610c7f57610c7b610c6a610c65366004610ae5565b610c36565b610c72610102565b91829182610395565b0390f35b610108565b90602082820312610c9d57610c9a915f016101a8565b90565b61010c565b610cb6610cb1610cbb92610191565b61058d565b610191565b90565b90610cc890610ca2565b5f5260205260405f2090565b634e487b7160e01b5f525f60045260245ffd5b905f10610cfa57610cf790610804565b90565b610cd4565b610d1590610d106011915f92610cbe565b610ce7565b90565b610d2d9160208201915f8184039101526108a7565b90565b34610d6057610d5c610d4b610d46366004610c84565b610cff565b610d53610102565b91829182610d18565b0390f35b610108565b5f80fd5b5f90565b610d75610d69565b50610d83600260070161047b565b90565b90565b610d9d610d98610da292610d86565b61058d565b610191565b90565b610db1610db6916103df565b61054f565b90565b610dc39054610da5565b90565b5f80fd5b60e01b90565b90505190610ddd82610194565b565b90602082820312610df857610df5915f01610dd0565b90565b61010c565b610e05610102565b3d5f823e3d90fd5b634e487b7160e01b5f52601160045260245ffd5b610e2a906104be565b63ffffffff8114610e3b5760010190565b610e0d565b5f1b90565b90610e5463ffffffff91610e40565b9181191691161790565b610e72610e6d610e77926104be565b61058d565b6104be565b90565b90565b90610e92610e8d610e9992610e5e565b610e7a565b8254610e45565b9055565b90610ea95f1991610e40565b9181191691161790565b90565b90610ecb610ec6610ed292610ca2565b610eb3565b8254610e9d565b9055565b601f602091010490565b1b90565b91906008610eff910291610ef95f1984610ee0565b92610ee0565b9181191691161790565b9190610f1f610f1a610f2793610ca2565b610eb3565b908354610ee4565b9055565b5f90565b610f4191610f3b610f2b565b91610f09565b565b5b818110610f4f575050565b80610f5c5f600193610f2f565b01610f44565b9190601f8111610f72575b505050565b610f7e610fa393610762565b906020610f8a84610ed6565b83019310610fab575b610f9c90610ed6565b0190610f43565b5f8080610f6d565b9150610f9c81929050610f93565b90610fc9905f199060080261054b565b191690565b81610fd891610fb9565b906002021790565b90610fea81610877565b9067ffffffffffffffff82116110aa5761100e82611008855461072f565b85610f62565b602090601f831160011461104257918091611031935f92611036575b5050610fce565b90555b565b90915001515f8061102a565b601f1983169161105185610762565b925f5b81811061109257509160029391856001969410611078575b50505002019055611034565b611088910151601f841690610fb9565b90555f808061106c565b91936020600181928787015181550195019201611054565b6101c9565b906110b991610fe0565b565b6110c4906105ac565b90565b6110d081610bda565b036110d757565b5f80fd5b905051906110e8826110c7565b565b9060208282031261110357611100915f016110db565b90565b61010c565b604090611131611138949695939661112760608401985f850190610136565b6020830190610136565b0190610388565b565b905090565b61116461115b9260209261115281610877565b9485809361113a565b93849101610884565b0190565b6111719161113f565b90565b61118990611180610102565b91829182611168565b03902090565b9190916111a66111a160103390610b0f565b6103fb565b6111b86111b25f610d89565b91610191565b0361143b576111fe60206111d36111ce5f610db9565b6105b8565b630fcd4a47906111f35f33936111e7610102565b96879586948593610dca565b835260048301610143565b03925af1908115611436575f91611408575b5061122361121d84610191565b91610191565b106113e2574261124761124161123c60036001016103fb565b610191565b91610191565b1080156113bc575b61138a5761129c90611276600260070161127061126b82610449565b610e21565b90610e7d565b61128b8161128660103390610b0f565b610eb6565b61129784916011610cbe565b6110af565b6112b1816112ac60123390610b0f565b610eb6565b60206112c46112bf5f610db9565b6105b8565b63eee0b489906112f15f33936112fc6112dc306110bb565b976112e5610102565b98899788968795610dca565b855260048501611108565b03925af1801561138557611359575b50339061134161133b7f1f42239b48b503e3dfaf0ba9d3094e44ec6412593db709afb46e847fbf35071e93610b03565b91611174565b9161134a610102565b80611354816102f5565b0390a3565b6113799060203d811161137e575b61137181836101dd565b8101906110ea565b61130b565b503d611367565b610dfd565b6113b861139a60036001016103fb565b6113a2610102565b9182916354fbd5ef60e01b835260048301610395565b0390fd5b50426113dc6113d66113d160046001016103fb565b610191565b91610191565b1161124f565b611404336113ee610102565b918291638ff398d160e01b835260048301610143565b0390fd5b611429915060203d811161142f575b61142181836101dd565b810190610ddf565b5f611210565b503d611417565b610dfd565b61145d33611447610102565b918291633512759d60e21b835260048301610143565b0390fd5b5f90565b61146d611461565b5061147b600160070161041f565b90565b611486610f2b565b506114cf602061149d6114985f610db9565b6105b8565b6346037983906114c46114af306110bb565b926114b8610102565b95869485938493610dca565b835260048301610143565b03915afa908115611513575f916114e5575b5090565b611506915060203d811161150c575b6114fe81836101dd565b810190610ddf565b5f6114e1565b503d6114f4565b610dfd565b61152260c0610206565b90565b606090565b5f90565b5f90565b5f90565b61153e611518565b90602080808080808761154f611525565b81520161155a61152a565b81520161156561152e565b815201611570611532565b81520161157b611532565b815201611586611532565b81525050565b611594611536565b90565b52565b906115a490610191565b9052565b906115b2906104be565b9052565b906115c09061032e565b9052565b9061165b61165260056115d5611518565b946115ec6115e45f8301610804565b5f8801611597565b6116046115fb600183016103fb565b6020880161159a565b61161c61161360028301610449565b604088016115a8565b61163461162b6003830161041f565b606088016115b6565b61164c6116436004830161041f565b608088016115b6565b0161041f565b60a084016115b6565b565b611666906115c4565b90565b61167161158c565b5061167c600a61165d565b90565b90565b61168e6116939161032e565b61167f565b9052565b6116a381602093611682565b0190565b60200190565b6116b5611461565b506116dd6116ec6116c96004600a0161041f565b6116d1610102565b92839160208301611697565b602082018103825203826101dd565b6116fe6116f882610877565b916116a7565b2090565b5f90565b61171a61171561171f92610d86565b61058d565b61011f565b90565b61172b90611706565b90565b6117379061032e565b90565b611743906103df565b90565b9061175b6117566117629261172e565b61173a565b8254610e9d565b9055565b60201b90565b90611782640100000000600160c01b0391611766565b9181191691161790565b90565b906117a461179f6117ab92610b03565b61178c565b825461176c565b9055565b90565b6117c66117c16117cb926117af565b61058d565b610191565b90565b6117dd6117e391939293610191565b92610191565b916117ef838202610191565b9281840414901517156117fe57565b610e0d565b90565b61181a61181561181f92611803565b61058d565b610191565b90565b634e487b7160e01b5f52601260045260245ffd5b61184261184891610191565b91610191565b908115611853570490565b611822565b5f91031261186257565b61010c565b91602061188892949361188160408201965f830190610136565b0190610388565b565b611892611702565b506118ea6118f96118b46118c3846118a8610102565b92839160208301611697565b602082018103825203826101dd565b6118d56118cf82610877565b916116a7565b206118de610102565b92839160208301611697565b602082018103825203826101dd565b61190b61190582610877565b916116a7565b206119146116ad565b90611922600260070161047b565b61193c6119366119315f611722565b61012a565b9161012a565b14155f1461198a57611951611957919261032e565b9161032e565b145f146119645750600190565b61198690611970610102565b9182916377efcdf960e01b83526004830161033e565b0390fd5b61199761199d919261032e565b9161032e565b145f14611abf576119b2906001600701611746565b6119c033600260070161178f565b6119d16119cc5f610db9565b6105b8565b63ce7200ba33611a0a6119fa6119ea60026001016103fb565b6119f4600a6117b2565b906117ce565b611a046064611806565b90611836565b92803b15611aba57611a2f5f8094611a3a611a23610102565b97889687958694610dca565b845260048401611867565b03925af18015611ab557611a89575b5033611a817fd742a68488227facc44aad7dce2d652e436f3c1b1f4b355a5384a180954fa78091611a78610102565b91829182610143565b0390a1600190565b611aa8905f3d8111611aae575b611aa081836101dd565b810190611858565b5f611a49565b503d611a96565b610dfd565b610dc6565b611ae190611acb610102565b9182916377efcdf960e01b83526004830161033e565b0390fdfea2646970667358221220a243cece3b108fc9cbef6c43a6f389032a19f8eb05c2fee48df3840b2ddae83564736f6c63430008180033",
    "linkReferences": {}
  },
  "methodIdentifiers": {
    "LockingContract()": "766c0971",
    "castVote(uint256,bytes,uint256)": "291ae9b3",
    "config()": "79502c55",
    "data()": "73d4a13a",
    "deposits(address)": "fc7e286d",
    "encryptedVotes(uint256)": "fde315bd",
    "getContractBalance()": "6f9fb98a",
    "getDoubleHashedSK()": "95bedd4a",
    "getPublicParameters()": "93ab0b72",
    "getSolver()": "0bcb5ed0",
    "getUnlockedSK()": "5c889881",
    "pp()": "91327ec6",
    "verifySecret(bytes32)": "abac7b5e",
    "voters(address)": "a3ec138d"
  },
  "id": 0
}