{
  "abi": [
    {
      "type": "constructor",
      "inputs": [],
      "stateMutability": "nonpayable"
    },
    {
      "type": "fallback",
      "stateMutability": "payable"
    },
    {
      "type": "receive",
      "stateMutability": "payable"
    },
    {
      "type": "function",
      "name": "OWNER",
      "inputs": [],
      "outputs": [
        {
          "name": "",
          "type": "address",
          "internalType": "address"
        }
      ],
      "stateMutability": "view"
    },
    {
      "type": "function",
      "name": "USER_DEPOSIT_LOCKING_PERIOD",
      "inputs": [],
      "outputs": [
        {
          "name": "",
          "type": "uint256",
          "internalType": "uint256"
        }
      ],
      "stateMutability": "view"
    },
    {
      "type": "function",
      "name": "WHBAR_CONTRACT_ADDRESS",
      "inputs": [],
      "outputs": [
        {
          "name": "",
          "type": "address",
          "internalType": "address"
        }
      ],
      "stateMutability": "view"
    },
    {
      "type": "function",
      "name": "checkUserDeposit",
      "inputs": [
        {
          "name": "_address",
          "type": "address",
          "internalType": "address"
        }
      ],
      "outputs": [
        {
          "name": "",
          "type": "uint256",
          "internalType": "uint256"
        }
      ],
      "stateMutability": "view"
    },
    {
      "type": "function",
      "name": "checkWHBARBalance",
      "inputs": [
        {
          "name": "_address",
          "type": "address",
          "internalType": "address"
        }
      ],
      "outputs": [
        {
          "name": "",
          "type": "uint256",
          "internalType": "uint256"
        }
      ],
      "stateMutability": "view"
    },
    {
      "type": "function",
      "name": "contractBalance",
      "inputs": [],
      "outputs": [
        {
          "name": "",
          "type": "uint256",
          "internalType": "uint256"
        }
      ],
      "stateMutability": "view"
    },
    {
      "type": "function",
      "name": "contractDeposit",
      "inputs": [],
      "outputs": [],
      "stateMutability": "payable"
    },
    {
      "type": "function",
      "name": "setUserDepositLockingPeriod",
      "inputs": [
        {
          "name": "_userDepositLockingPeriod",
          "type": "uint256",
          "internalType": "uint256"
        }
      ],
      "outputs": [],
      "stateMutability": "nonpayable"
    },
    {
      "type": "function",
      "name": "stakeWithHBAR",
      "inputs": [],
      "outputs": [],
      "stateMutability": "payable"
    },
    {
      "type": "function",
      "name": "totalBalanceInPool",
      "inputs": [],
      "outputs": [
        {
          "name": "",
          "type": "uint256",
          "internalType": "uint256"
        }
      ],
      "stateMutability": "view"
    },
    {
      "type": "function",
      "name": "unstake",
      "inputs": [
        {
          "name": "_amountToWithdraw",
          "type": "uint256",
          "internalType": "uint256"
        }
      ],
      "outputs": [],
      "stateMutability": "nonpayable"
    },
    {
      "type": "function",
      "name": "userDepositTimestamps",
      "inputs": [
        {
          "name": "",
          "type": "address",
          "internalType": "address"
        }
      ],
      "outputs": [
        {
          "name": "",
          "type": "uint256",
          "internalType": "uint256"
        }
      ],
      "stateMutability": "view"
    },
    {
      "type": "function",
      "name": "userDeposits",
      "inputs": [
        {
          "name": "",
          "type": "address",
          "internalType": "address"
        }
      ],
      "outputs": [
        {
          "name": "",
          "type": "uint256",
          "internalType": "uint256"
        }
      ],
      "stateMutability": "view"
    },
    {
      "type": "function",
      "name": "userRewards",
      "inputs": [
        {
          "name": "",
          "type": "address",
          "internalType": "address"
        }
      ],
      "outputs": [
        {
          "name": "",
          "type": "uint256",
          "internalType": "uint256"
        }
      ],
      "stateMutability": "view"
    },
    {
      "type": "function",
      "name": "whbarContract",
      "inputs": [],
      "outputs": [
        {
          "name": "",
          "type": "address",
          "internalType": "contract IWHBAR"
        }
      ],
      "stateMutability": "view"
    },
    {
      "type": "error",
      "name": "HBAR_AMOUNT_TOO_SMALL",
      "inputs": [
        {
          "name": "",
          "type": "uint256",
          "internalType": "uint256"
        }
      ]
    },
    {
      "type": "error",
      "name": "HBAR_TRANSFER_FAILED",
      "inputs": [
        {
          "name": "",
          "type": "address",
          "internalType": "address"
        },
        {
          "name": "",
          "type": "uint256",
          "internalType": "uint256"
        }
      ]
    },
    {
      "type": "error",
      "name": "ReentrancyGuardReentrantCall",
      "inputs": []
    },
    {
      "type": "error",
      "name": "SENDER_NOT_OWNER",
      "inputs": [
        {
          "name": "",
          "type": "address",
          "internalType": "address"
        }
      ]
    },
    {
      "type": "error",
      "name": "TIME_TO_LEFT_WITHDRAW",
      "inputs": [
        {
          "name": "",
          "type": "address",
          "internalType": "address"
        },
        {
          "name": "",
          "type": "uint256",
          "internalType": "uint256"
        }
      ]
    },
    {
      "type": "error",
      "name": "USER_HAS_LESS_BALANCE",
      "inputs": [
        {
          "name": "",
          "type": "address",
          "internalType": "address"
        },
        {
          "name": "",
          "type": "uint256",
          "internalType": "uint256"
        }
      ]
    }
  ],
  "bytecode": {
    "object": "0x60a060405273b1f616b8134f602c3bb465fb5b5e6565ccad37ed60065f6101000a81548173ffffffffffffffffffffffffffffffffffffffff021916908373ffffffffffffffffffffffffffffffffffffffff160217905550348015610063575f80fd5b5060015f819055503373ffffffffffffffffffffffffffffffffffffffff1660808173ffffffffffffffffffffffffffffffffffffffff1681525050608051610e186100be5f395f81816105a201526109020152610e185ff3fe6080604052600436106100eb575f3560e01c80634603798311610089578063af1a20ff11610058578063af1a20ff1461030a578063bf87b04c14610332578063e05425cb1461033c578063e8078c5114610366576100fa565b8063460379831461023e5780636a795e6b1461027a5780638b7afe2e146102b6578063a6917442146102e0576100fa565b80630ba36dcd116100c55780630ba36dcd146101745780630fcd4a47146101b0578063117803e3146101ec5780632e17de7814610216576100fa565b806302ccbb2b146101045780630660f1e81461010e5780630a04ed401461014a576100fa565b366100fa576100f8610390565b005b610102610390565b005b61010c6103aa565b005b348015610119575f80fd5b50610134600480360381019061012f9190610b14565b61052a565b6040516101419190610b57565b60405180910390f35b348015610155575f80fd5b5061015e61053f565b60405161016b9190610b57565b60405180910390f35b34801561017f575f80fd5b5061019a60048036038101906101959190610b14565b610545565b6040516101a79190610b57565b60405180910390f35b3480156101bb575f80fd5b506101d660048036038101906101d19190610b14565b61055a565b6040516101e39190610b57565b60405180910390f35b3480156101f7575f80fd5b506102006105a0565b60405161020d9190610b7f565b60405180910390f35b348015610221575f80fd5b5061023c60048036038101906102379190610bc2565b6105c4565b005b348015610249575f80fd5b50610264600480360381019061025f9190610b14565b61081f565b6040516102719190610b57565b60405180910390f35b348015610285575f80fd5b506102a0600480360381019061029b9190610b14565b6108c0565b6040516102ad9190610b57565b60405180910390f35b3480156102c1575f80fd5b506102ca6108d5565b6040516102d79190610b57565b60405180910390f35b3480156102eb575f80fd5b506102f46108db565b6040516103019190610c48565b60405180910390f35b348015610315575f80fd5b50610330600480360381019061032b9190610bc2565b610900565b005b61033a610390565b005b348015610347575f80fd5b5061035061099a565b60405161035d9190610b7f565b60405180910390f35b348015610371575f80fd5b5061037a6109b2565b6040516103879190610b57565b60405180910390f35b3460015f8282546103a19190610c8e565b92505081905550565b5f3490505f3390506305f5e1008210156103fb57816040517f88e20c6d0000000000000000000000000000000000000000000000000000000081526004016103f29190610b57565b60405180910390fd5b8160025f8373ffffffffffffffffffffffffffffffffffffffff1673ffffffffffffffffffffffffffffffffffffffff1681526020019081526020015f205f8282546104479190610c8e565b925050819055508160055f82825461045f9190610c8e565b9250508190555060065f9054906101000a900473ffffffffffffffffffffffffffffffffffffffff1673ffffffffffffffffffffffffffffffffffffffff1663d0e30db0836040518263ffffffff1660e01b81526004015f604051808303818588803b1580156104cd575f80fd5b505af11580156104df573d5f803e3d5ffd5b50505050504260035f8373ffffffffffffffffffffffffffffffffffffffff1673ffffffffffffffffffffffffffffffffffffffff1681526020019081526020015f20819055505050565b6004602052805f5260405f205f915090505481565b60055481565b6002602052805f5260405f205f915090505481565b5f60025f8373ffffffffffffffffffffffffffffffffffffffff1673ffffffffffffffffffffffffffffffffffffffff1681526020019081526020015f20549050919050565b7f000000000000000000000000000000000000000000000000000000000000000081565b6105cc6109b8565b5f60025f3373ffffffffffffffffffffffffffffffffffffffff1673ffffffffffffffffffffffffffffffffffffffff1681526020019081526020015f205490505f3390505f60075460035f8473ffffffffffffffffffffffffffffffffffffffff1673ffffffffffffffffffffffffffffffffffffffff1681526020019081526020015f205461065d9190610c8e565b9050838310156106a65781836040517f4b78418100000000000000000000000000000000000000000000000000000000815260040161069d929190610cc1565b60405180910390fd5b5f428211156106fc5742826106bb9190610ce8565b905082816040517fe06122180000000000000000000000000000000000000000000000000000000081526004016106f3929190610cc1565b60405180910390fd5b8460025f8573ffffffffffffffffffffffffffffffffffffffff1673ffffffffffffffffffffffffffffffffffffffff1681526020019081526020015f205f8282546107489190610ce8565b925050819055508460055f8282546107609190610ce8565b9250508190555060065f9054906101000a900473ffffffffffffffffffffffffffffffffffffffff1673ffffffffffffffffffffffffffffffffffffffff16632e1a7d4d866040518263ffffffff1660e01b81526004016107c19190610b57565b5f604051808303815f87803b1580156107d8575f80fd5b505af11580156107ea573d5f803e3d5ffd5b505050508460015f8282546107ff9190610ce8565b9250508190555061081083866109fc565b5050505061081c610aad565b50565b5f60065f9054906101000a900473ffffffffffffffffffffffffffffffffffffffff1673ffffffffffffffffffffffffffffffffffffffff166370a08231836040518263ffffffff1660e01b815260040161087a9190610b7f565b602060405180830381865afa158015610895573d5f803e3d5ffd5b505050506040513d601f19601f820116820180604052508101906108b99190610d2f565b9050919050565b6003602052805f5260405f205f915090505481565b60015481565b60065f9054906101000a900473ffffffffffffffffffffffffffffffffffffffff1681565b7f000000000000000000000000000000000000000000000000000000000000000073ffffffffffffffffffffffffffffffffffffffff163373ffffffffffffffffffffffffffffffffffffffff161461099057336040517fa8ee3ae70000000000000000000000000000000000000000000000000000000081526004016109879190610b7f565b60405180910390fd5b8060078190555050565b73b1f616b8134f602c3bb465fb5b5e6565ccad37ed81565b60075481565b60025f54036109f3576040517f3ee5aeb500000000000000000000000000000000000000000000000000000000815260040160405180910390fd5b60025f81905550565b5f8273ffffffffffffffffffffffffffffffffffffffff1682604051610a2190610d87565b5f6040518083038185875af1925050503d805f8114610a5b576040519150601f19603f3d011682016040523d82523d5f602084013e610a60565b606091505b5050905080610aa85782826040517fb087c708000000000000000000000000000000000000000000000000000000008152600401610a9f929190610dbb565b60405180910390fd5b505050565b60015f81905550565b5f80fd5b5f73ffffffffffffffffffffffffffffffffffffffff82169050919050565b5f610ae382610aba565b9050919050565b610af381610ad9565b8114610afd575f80fd5b50565b5f81359050610b0e81610aea565b92915050565b5f60208284031215610b2957610b28610ab6565b5b5f610b3684828501610b00565b91505092915050565b5f819050919050565b610b5181610b3f565b82525050565b5f602082019050610b6a5f830184610b48565b92915050565b610b7981610ad9565b82525050565b5f602082019050610b925f830184610b70565b92915050565b610ba181610b3f565b8114610bab575f80fd5b50565b5f81359050610bbc81610b98565b92915050565b5f60208284031215610bd757610bd6610ab6565b5b5f610be484828501610bae565b91505092915050565b5f819050919050565b5f610c10610c0b610c0684610aba565b610bed565b610aba565b9050919050565b5f610c2182610bf6565b9050919050565b5f610c3282610c17565b9050919050565b610c4281610c28565b82525050565b5f602082019050610c5b5f830184610c39565b92915050565b7f4e487b71000000000000000000000000000000000000000000000000000000005f52601160045260245ffd5b5f610c9882610b3f565b9150610ca383610b3f565b9250828201905080821115610cbb57610cba610c61565b5b92915050565b5f604082019050610cd45f830185610b70565b610ce16020830184610b48565b9392505050565b5f610cf282610b3f565b9150610cfd83610b3f565b9250828203905081811115610d1557610d14610c61565b5b92915050565b5f81519050610d2981610b98565b92915050565b5f60208284031215610d4457610d43610ab6565b5b5f610d5184828501610d1b565b91505092915050565b5f81905092915050565b50565b5f610d725f83610d5a565b9150610d7d82610d64565b5f82019050919050565b5f610d9182610d67565b9150819050919050565b5f610da582610c17565b9050919050565b610db581610d9b565b82525050565b5f604082019050610dce5f830185610dac565b610ddb6020830184610b48565b939250505056fea26469706673582212206118ebaf2d5237d70a286699c3b805ea66c8a821917f87ddc80cac9c4b532c7364736f6c63430008180033",
    "linkReferences": {}
  },
  "methodIdentifiers": {
    "OWNER()": "117803e3",
    "USER_DEPOSIT_LOCKING_PERIOD()": "e8078c51",
    "WHBAR_CONTRACT_ADDRESS()": "e05425cb",
    "checkUserDeposit(address)": "0fcd4a47",
    "checkWHBARBalance(address)": "46037983",
    "contractBalance()": "8b7afe2e",
    "contractDeposit()": "bf87b04c",
    "setUserDepositLockingPeriod(uint256)": "af1a20ff",
    "stakeWithHBAR()": "02ccbb2b",
    "totalBalanceInPool()": "0a04ed40",
    "unstake(uint256)": "2e17de78",
    "userDepositTimestamps(address)": "6a795e6b",
    "userDeposits(address)": "0ba36dcd",
    "userRewards(address)": "0660f1e8",
    "whbarContract()": "a6917442"
  },
  "id": 1
}