{
  "abi": [
    {
      "type": "constructor",
      "inputs": [],
      "stateMutability": "nonpayable"
    },
    {
      "type": "fallback",
      "stateMutability": "payable"
    },
    {
      "type": "receive",
      "stateMutability": "payable"
    },
    {
      "type": "function",
      "name": "OWNER",
      "inputs": [],
      "outputs": [
        {
          "name": "",
          "type": "address",
          "internalType": "address"
        }
      ],
      "stateMutability": "view"
    },
    {
      "type": "function",
      "name": "USER_DEPOSIT_LOCKING_PERIOD",
      "inputs": [],
      "outputs": [
        {
          "name": "",
          "type": "uint256",
          "internalType": "uint256"
        }
      ],
      "stateMutability": "view"
    },
    {
      "type": "function",
      "name": "WHBAR_CONTRACT_ADDRESS",
      "inputs": [],
      "outputs": [
        {
          "name": "",
          "type": "address",
          "internalType": "address"
        }
      ],
      "stateMutability": "view"
    },
    {
      "type": "function",
      "name": "checkWHBARBalance",
      "inputs": [
        {
          "name": "_address",
          "type": "address",
          "internalType": "address"
        }
      ],
      "outputs": [
        {
          "name": "",
          "type": "uint256",
          "internalType": "uint256"
        }
      ],
      "stateMutability": "view"
    },
    {
      "type": "function",
      "name": "contractBalance",
      "inputs": [],
      "outputs": [
        {
          "name": "",
          "type": "uint256",
          "internalType": "uint256"
        }
      ],
      "stateMutability": "view"
    },
    {
      "type": "function",
      "name": "contractDeposit",
      "inputs": [],
      "outputs": [],
      "stateMutability": "payable"
    },
    {
      "type": "function",
      "name": "setUserDepositLockingPeriod",
      "inputs": [
        {
          "name": "_userDepositLockingPeriod",
          "type": "uint256",
          "internalType": "uint256"
        }
      ],
      "outputs": [],
      "stateMutability": "nonpayable"
    },
    {
      "type": "function",
      "name": "stakeWithHBAR",
      "inputs": [],
      "outputs": [],
      "stateMutability": "payable"
    },
    {
      "type": "function",
      "name": "totalBalanceInPool",
      "inputs": [],
      "outputs": [
        {
          "name": "",
          "type": "uint256",
          "internalType": "uint256"
        }
      ],
      "stateMutability": "view"
    },
    {
      "type": "function",
      "name": "unstake",
      "inputs": [
        {
          "name": "_amountToWithdraw",
          "type": "uint256",
          "internalType": "uint256"
        }
      ],
      "outputs": [],
      "stateMutability": "nonpayable"
    },
    {
      "type": "function",
      "name": "userDepositTimestamps",
      "inputs": [
        {
          "name": "",
          "type": "address",
          "internalType": "address"
        }
      ],
      "outputs": [
        {
          "name": "",
          "type": "uint256",
          "internalType": "uint256"
        }
      ],
      "stateMutability": "view"
    },
    {
      "type": "function",
      "name": "userDeposits",
      "inputs": [
        {
          "name": "",
          "type": "address",
          "internalType": "address"
        }
      ],
      "outputs": [
        {
          "name": "",
          "type": "uint256",
          "internalType": "uint256"
        }
      ],
      "stateMutability": "view"
    },
    {
      "type": "function",
      "name": "userRewards",
      "inputs": [
        {
          "name": "",
          "type": "address",
          "internalType": "address"
        }
      ],
      "outputs": [
        {
          "name": "",
          "type": "uint256",
          "internalType": "uint256"
        }
      ],
      "stateMutability": "view"
    },
    {
      "type": "function",
      "name": "whbarContract",
      "inputs": [],
      "outputs": [
        {
          "name": "",
          "type": "address",
          "internalType": "contract IWHBAR"
        }
      ],
      "stateMutability": "view"
    },
    {
      "type": "error",
      "name": "HBAR_AMOUNT_TOO_SMALL",
      "inputs": [
        {
          "name": "",
          "type": "uint256",
          "internalType": "uint256"
        }
      ]
    },
    {
      "type": "error",
      "name": "HBAR_TRANSFER_FAILED",
      "inputs": [
        {
          "name": "",
          "type": "address",
          "internalType": "address"
        },
        {
          "name": "",
          "type": "uint256",
          "internalType": "uint256"
        }
      ]
    },
    {
      "type": "error",
      "name": "ReentrancyGuardReentrantCall",
      "inputs": []
    },
    {
      "type": "error",
      "name": "SENDER_NOT_OWNER",
      "inputs": [
        {
          "name": "",
          "type": "address",
          "internalType": "address"
        }
      ]
    },
    {
      "type": "error",
      "name": "TIME_TO_LEFT_WITHDRAW",
      "inputs": [
        {
          "name": "",
          "type": "address",
          "internalType": "address"
        },
        {
          "name": "",
          "type": "uint256",
          "internalType": "uint256"
        }
      ]
    },
    {
      "type": "error",
      "name": "USER_HAS_LESS_BALANCE",
      "inputs": [
        {
          "name": "",
          "type": "address",
          "internalType": "address"
        },
        {
          "name": "",
          "type": "uint256",
          "internalType": "uint256"
        }
      ]
    }
  ],
  "bytecode": {
    "object": "0x60a060405273b1f616b8134f602c3bb465fb5b5e6565ccad37ed60065f6101000a81548173ffffffffffffffffffffffffffffffffffffffff021916908373ffffffffffffffffffffffffffffffffffffffff160217905550348015610063575f80fd5b5060015f819055503373ffffffffffffffffffffffffffffffffffffffff1660808173ffffffffffffffffffffffffffffffffffffffff1681525050608051610d8b6100be5f395f818161051501526108750152610d8b5ff3fe6080604052600436106100e0575f3560e01c80636a795e6b1161007e578063af1a20ff11610058578063af1a20ff146102c3578063bf87b04c146102eb578063e05425cb146102f5578063e8078c511461031f576100ef565b80636a795e6b146102335780638b7afe2e1461026f578063a691744214610299576100ef565b80630ba36dcd116100ba5780630ba36dcd14610169578063117803e3146101a55780632e17de78146101cf57806346037983146101f7576100ef565b806302ccbb2b146100f95780630660f1e8146101035780630a04ed401461013f576100ef565b366100ef576100ed610349565b005b6100f7610349565b005b610101610363565b005b34801561010e575f80fd5b5061012960048036038101906101249190610a87565b6104e3565b6040516101369190610aca565b60405180910390f35b34801561014a575f80fd5b506101536104f8565b6040516101609190610aca565b60405180910390f35b348015610174575f80fd5b5061018f600480360381019061018a9190610a87565b6104fe565b60405161019c9190610aca565b60405180910390f35b3480156101b0575f80fd5b506101b9610513565b6040516101c69190610af2565b60405180910390f35b3480156101da575f80fd5b506101f560048036038101906101f09190610b35565b610537565b005b348015610202575f80fd5b5061021d60048036038101906102189190610a87565b610792565b60405161022a9190610aca565b60405180910390f35b34801561023e575f80fd5b5061025960048036038101906102549190610a87565b610833565b6040516102669190610aca565b60405180910390f35b34801561027a575f80fd5b50610283610848565b6040516102909190610aca565b60405180910390f35b3480156102a4575f80fd5b506102ad61084e565b6040516102ba9190610bbb565b60405180910390f35b3480156102ce575f80fd5b506102e960048036038101906102e49190610b35565b610873565b005b6102f3610349565b005b348015610300575f80fd5b5061030961090d565b6040516103169190610af2565b60405180910390f35b34801561032a575f80fd5b50610333610925565b6040516103409190610aca565b60405180910390f35b3460015f82825461035a9190610c01565b92505081905550565b5f3490505f3390506305f5e1008210156103b457816040517f88e20c6d0000000000000000000000000000000000000000000000000000000081526004016103ab9190610aca565b60405180910390fd5b8160025f8373ffffffffffffffffffffffffffffffffffffffff1673ffffffffffffffffffffffffffffffffffffffff1681526020019081526020015f205f8282546104009190610c01565b925050819055508160055f8282546104189190610c01565b9250508190555060065f9054906101000a900473ffffffffffffffffffffffffffffffffffffffff1673ffffffffffffffffffffffffffffffffffffffff1663d0e30db0836040518263ffffffff1660e01b81526004015f604051808303818588803b158015610486575f80fd5b505af1158015610498573d5f803e3d5ffd5b50505050504260035f8373ffffffffffffffffffffffffffffffffffffffff1673ffffffffffffffffffffffffffffffffffffffff1681526020019081526020015f20819055505050565b6004602052805f5260405f205f915090505481565b60055481565b6002602052805f5260405f205f915090505481565b7f000000000000000000000000000000000000000000000000000000000000000081565b61053f61092b565b5f60025f3373ffffffffffffffffffffffffffffffffffffffff1673ffffffffffffffffffffffffffffffffffffffff1681526020019081526020015f205490505f3390505f60075460035f8473ffffffffffffffffffffffffffffffffffffffff1673ffffffffffffffffffffffffffffffffffffffff1681526020019081526020015f20546105d09190610c01565b9050838310156106195781836040517f4b784181000000000000000000000000000000000000000000000000000000008152600401610610929190610c34565b60405180910390fd5b5f4282111561066f57428261062e9190610c5b565b905082816040517fe0612218000000000000000000000000000000000000000000000000000000008152600401610666929190610c34565b60405180910390fd5b8460025f8573ffffffffffffffffffffffffffffffffffffffff1673ffffffffffffffffffffffffffffffffffffffff1681526020019081526020015f205f8282546106bb9190610c5b565b925050819055508460055f8282546106d39190610c5b565b9250508190555060065f9054906101000a900473ffffffffffffffffffffffffffffffffffffffff1673ffffffffffffffffffffffffffffffffffffffff16632e1a7d4d866040518263ffffffff1660e01b81526004016107349190610aca565b5f604051808303815f87803b15801561074b575f80fd5b505af115801561075d573d5f803e3d5ffd5b505050508460015f8282546107729190610c5b565b92505081905550610783838661096f565b5050505061078f610a20565b50565b5f60065f9054906101000a900473ffffffffffffffffffffffffffffffffffffffff1673ffffffffffffffffffffffffffffffffffffffff166370a08231836040518263ffffffff1660e01b81526004016107ed9190610af2565b602060405180830381865afa158015610808573d5f803e3d5ffd5b505050506040513d601f19601f8201168201806040525081019061082c9190610ca2565b9050919050565b6003602052805f5260405f205f915090505481565b60015481565b60065f9054906101000a900473ffffffffffffffffffffffffffffffffffffffff1681565b7f000000000000000000000000000000000000000000000000000000000000000073ffffffffffffffffffffffffffffffffffffffff163373ffffffffffffffffffffffffffffffffffffffff161461090357336040517fa8ee3ae70000000000000000000000000000000000000000000000000000000081526004016108fa9190610af2565b60405180910390fd5b8060078190555050565b73b1f616b8134f602c3bb465fb5b5e6565ccad37ed81565b60075481565b60025f5403610966576040517f3ee5aeb500000000000000000000000000000000000000000000000000000000815260040160405180910390fd5b60025f81905550565b5f8273ffffffffffffffffffffffffffffffffffffffff168260405161099490610cfa565b5f6040518083038185875af1925050503d805f81146109ce576040519150601f19603f3d011682016040523d82523d5f602084013e6109d3565b606091505b5050905080610a1b5782826040517fb087c708000000000000000000000000000000000000000000000000000000008152600401610a12929190610d2e565b60405180910390fd5b505050565b60015f81905550565b5f80fd5b5f73ffffffffffffffffffffffffffffffffffffffff82169050919050565b5f610a5682610a2d565b9050919050565b610a6681610a4c565b8114610a70575f80fd5b50565b5f81359050610a8181610a5d565b92915050565b5f60208284031215610a9c57610a9b610a29565b5b5f610aa984828501610a73565b91505092915050565b5f819050919050565b610ac481610ab2565b82525050565b5f602082019050610add5f830184610abb565b92915050565b610aec81610a4c565b82525050565b5f602082019050610b055f830184610ae3565b92915050565b610b1481610ab2565b8114610b1e575f80fd5b50565b5f81359050610b2f81610b0b565b92915050565b5f60208284031215610b4a57610b49610a29565b5b5f610b5784828501610b21565b91505092915050565b5f819050919050565b5f610b83610b7e610b7984610a2d565b610b60565b610a2d565b9050919050565b5f610b9482610b69565b9050919050565b5f610ba582610b8a565b9050919050565b610bb581610b9b565b82525050565b5f602082019050610bce5f830184610bac565b92915050565b7f4e487b71000000000000000000000000000000000000000000000000000000005f52601160045260245ffd5b5f610c0b82610ab2565b9150610c1683610ab2565b9250828201905080821115610c2e57610c2d610bd4565b5b92915050565b5f604082019050610c475f830185610ae3565b610c546020830184610abb565b9392505050565b5f610c6582610ab2565b9150610c7083610ab2565b9250828203905081811115610c8857610c87610bd4565b5b92915050565b5f81519050610c9c81610b0b565b92915050565b5f60208284031215610cb757610cb6610a29565b5b5f610cc484828501610c8e565b91505092915050565b5f81905092915050565b50565b5f610ce55f83610ccd565b9150610cf082610cd7565b5f82019050919050565b5f610d0482610cda565b9150819050919050565b5f610d1882610b8a565b9050919050565b610d2881610d0e565b82525050565b5f604082019050610d415f830185610d1f565b610d4e6020830184610abb565b939250505056fea2646970667358221220344759e6c77a251c1450e5bf2a8a5dd4bca89171152337dd404c06e1b448ec3564736f6c63430008180033",
    "linkReferences": {}
  },
  "methodIdentifiers": {
    "OWNER()": "117803e3",
    "USER_DEPOSIT_LOCKING_PERIOD()": "e8078c51",
    "WHBAR_CONTRACT_ADDRESS()": "e05425cb",
    "checkWHBARBalance(address)": "46037983",
    "contractBalance()": "8b7afe2e",
    "contractDeposit()": "bf87b04c",
    "setUserDepositLockingPeriod(uint256)": "af1a20ff",
    "stakeWithHBAR()": "02ccbb2b",
    "totalBalanceInPool()": "0a04ed40",
    "unstake(uint256)": "2e17de78",
    "userDepositTimestamps(address)": "6a795e6b",
    "userDeposits(address)": "0ba36dcd",
    "userRewards(address)": "0660f1e8",
    "whbarContract()": "a6917442"
  },
  "id": 1
}