{
  "abi": [
    {
      "type": "function",
      "name": "createVoteContract",
      "inputs": [],
      "outputs": [
        {
          "name": "",
          "type": "address",
          "internalType": "contract CreateVote"
        }
      ],
      "stateMutability": "view"
    },
    {
      "type": "function",
      "name": "createVoteContracts",
      "inputs": [
        {
          "name": "_marketId",
          "type": "uint256",
          "internalType": "uint256"
        },
        {
          "name": "_optionA",
          "type": "uint256",
          "internalType": "uint256"
        },
        {
          "name": "_optionB",
          "type": "uint256",
          "internalType": "uint256"
        },
        {
          "name": "_rewards",
          "type": "uint256",
          "internalType": "uint256"
        },
        {
          "name": "_startTimestamp",
          "type": "uint256",
          "internalType": "uint256"
        },
        {
          "name": "_endTimestamp",
          "type": "uint256",
          "internalType": "uint256"
        },
        {
          "name": "_thresholdVotes",
          "type": "uint32",
          "internalType": "uint32"
        },
        {
          "name": "_hbarLockingContractAddress",
          "type": "address",
          "internalType": "address"
        },
        {
          "name": "_N",
          "type": "bytes",
          "internalType": "bytes"
        },
        {
          "name": "_t",
          "type": "uint256",
          "internalType": "uint256"
        },
        {
          "name": "_a",
          "type": "uint32",
          "internalType": "uint32"
        },
        {
          "name": "_skLocked",
          "type": "bytes32",
          "internalType": "bytes32"
        },
        {
          "name": "_hashedSK",
          "type": "bytes32",
          "internalType": "bytes32"
        }
      ],
      "outputs": [
        {
          "name": "",
          "type": "address",
          "internalType": "address"
        }
      ],
      "stateMutability": "nonpayable"
    },
    {
      "type": "function",
      "name": "getContractsByMarket",
      "inputs": [
        {
          "name": "_marketId",
          "type": "uint256",
          "internalType": "uint256"
        }
      ],
      "outputs": [
        {
          "name": "",
          "type": "address",
          "internalType": "address"
        }
      ],
      "stateMutability": "view"
    },
    {
      "type": "function",
      "name": "marketContracts",
      "inputs": [
        {
          "name": "",
          "type": "uint256",
          "internalType": "uint256"
        }
      ],
      "outputs": [
        {
          "name": "",
          "type": "address",
          "internalType": "address"
        }
      ],
      "stateMutability": "view"
    },
    {
      "type": "event",
      "name": "CreateVoteDeployed",
      "inputs": [
        {
          "name": "marketId",
          "type": "uint256",
          "indexed": true,
          "internalType": "uint256"
        },
        {
          "name": "voteContract",
          "type": "address",
          "indexed": true,
          "internalType": "address"
        }
      ],
      "anonymous": false
    },
    {
      "type": "error",
      "name": "AlreadyDeployed",
      "inputs": [
        {
          "name": "",
          "type": "uint256",
          "internalType": "uint256"
        },
        {
          "name": "",
          "type": "address",
          "internalType": "address"
        }
      ]
    }
  ],
  "bytecode": {
    "object": "0x60806040523461001f57610011610024565b61349f61002f823961349f90f35b61002a565b60405190565b5f80fdfe6080604052600436101562000015575b620005f0565b620000215f3562000068565b80632ef76b00146200006257806331db74a0146200005c5780635836302b146200005657637a1de44e036200000f57620005b1565b620004d5565b6200020f565b6200014b565b60e01c90565b60405190565b5f80fd5b5f80fd5b5f9103126200008757565b62000078565b1c90565b60018060a01b031690565b620000af906008620000b593026200008d565b62000091565b90565b90620000c591546200009c565b90565b620000d660015f90620000b8565b90565b60018060a01b031690565b90565b62000100620000fa6200010692620000d9565b620000e4565b620000d9565b90565b6200011490620000e7565b90565b620001229062000109565b90565b620001309062000117565b9052565b919062000149905f6020850194019062000125565b565b3462000184576200015e3660046200007c565b620001806200016c620000c8565b620001766200006e565b9182918262000134565b0390f35b62000074565b5f80fd5b90565b6200019c816200018e565b03620001a457565b5f80fd5b90503590620001b78262000191565b565b90602082820312620001d557620001d2915f01620001a8565b90565b62000078565b620001e690620000d9565b90565b620001f490620001db565b9052565b91906200020d905f60208501940190620001e9565b565b34620002485762000244620002306200022a366004620001b9565b62000624565b6200023a6200006e565b91829182620001f8565b0390f35b62000074565b63ffffffff1690565b62000262816200024e565b036200026a57565b5f80fd5b905035906200027d8262000257565b565b6200028a81620001db565b036200029257565b5f80fd5b90503590620002a5826200027f565b565b5f80fd5b5f80fd5b601f801991011690565b634e487b7160e01b5f52604160045260245ffd5b90620002d990620002af565b810190811067ffffffffffffffff821117620002f457604052565b620002b9565b9062000311620003096200006e565b9283620002cd565b565b67ffffffffffffffff8111620003345762000330602091620002af565b0190565b620002b9565b90825f939282370152565b909291926200035e620003588262000313565b620002fa565b938185526020850190828401116200037d576200037b926200033a565b565b620002ab565b9080601f83011215620003a457816020620003a19335910162000345565b90565b620002a7565b90565b620003b881620003aa565b03620003c057565b5f80fd5b90503590620003d382620003ad565b565b6101a081830312620004cf57620003ef825f8301620001a8565b92620003ff8360208401620001a8565b926200040f8160408501620001a8565b926200041f8260608301620001a8565b926200042f8360808401620001a8565b926200043f8160a08501620001a8565b926200044f8260c083016200026e565b926200045f8360e0840162000296565b9261010083013567ffffffffffffffff8111620004c957816200048491850162000383565b9262000495826101208301620001a8565b92620004c6620004aa8461014085016200026e565b93620004bb816101608601620003c4565b9361018001620003c4565b90565b6200018a565b62000078565b346200051e576200051a62000506620004f0366004620003d5565b9b9a909a999199989298979397969496620008f9565b620005106200006e565b91829182620001f8565b0390f35b62000074565b6200053d6200053762000543926200018e565b620000e4565b6200018e565b90565b90620005529062000524565b5f5260205260405f2090565b60018060a01b031690565b6200057c9060086200058293026200008d565b6200055e565b90565b9062000592915462000569565b90565b620005ae90620005a85f915f9262000546565b62000585565b90565b34620005ea57620005e6620005d2620005cc366004620001b9565b62000595565b620005dc6200006e565b91829182620001f8565b0390f35b62000074565b5f80fd5b5f90565b5f1c90565b6200060c6200061291620005f8565b6200055e565b90565b620006219054620005fd565b90565b6200063f620006459162000637620005f4565b505f62000546565b62000615565b90565b90565b620006646200065e6200066a9262000648565b620000e4565b620000d9565b90565b62000678906200064b565b90565b62000686906200018e565b9052565b916020620006af929493620006a760408201965f8301906200067b565b0190620001e9565b565b620006bc906200024e565b9052565b5190565b60209181520190565b5f5b838110620006e0575050905f910152565b806020918301518185015201620006cf565b620007176200072160209362000727936200070d81620006c0565b93848093620006c4565b95869101620006cd565b620002af565b0190565b6200073690620003aa565b9052565b9a98979593919d9c9b999d96949290966101a08c01975f8d016200075e916200067b565b60208c016200076d916200067b565b60408b016200077c916200067b565b60608a016200078b916200067b565b608089016200079a916200067b565b60a08801620007a991620006b1565b60c08701620007b891620001e9565b60e08601620007c791620001e9565b848103610100860152620007db91620006f2565b956101208401620007ec916200067b565b6101408301620007fc91620006b1565b61016082016200080c916200072b565b610180016200081b916200072b565b565b620008276200006e565b3d5f823e3d90fd5b5f1b90565b906200084760018060a01b03916200082f565b9181191691161790565b6200085c90620000e7565b90565b6200086a9062000851565b90565b90565b906200088a6200088462000892926200085f565b6200086d565b825462000834565b9055565b620008a5620008ab91620005f8565b62000091565b90565b620008ba905462000896565b90565b620008c89062000109565b90565b90565b90620008e8620008e2620008f092620008bd565b620008cb565b825462000834565b9055565b5f0190565b9a959c9b9691989397929994909c62000911620005f4565b5062000928620009228d5f62000546565b62000615565b62000948620009416200093b5f6200066d565b620001db565b91620001db565b0362000a715767ffffffffffffffff999a9b9c9d9a9b989190913393949596979899620009746200006e565b9d8e6129b781019d8e91821091111762000a6b578e9d620009a09d8f6129b79062000ab390396200073a565b03905ff0801562000a6557620009b890600162000870565b620009e5620009d2620009cc6001620008ae565b62000117565b620009df5f849062000546565b620008ce565b620009fb620009f56001620008ae565b62000117565b62000a3262000a2b7f4c32280f850f7f801af7640070c521f5541c8ca09d04f613abff1850972a0a8d9362000524565b91620008bd565b9162000a3d6200006e565b8062000a4981620008f4565b0390a362000a6262000a5c6001620008ae565b62000117565b90565b6200081d565b620002b9565b8b62000a8862000a82825f62000546565b62000615565b9062000aae62000a976200006e565b928392633c15a62b60e11b8452600484016200068a565b0390fdfe60806040523462000047576200002e620000186200033e565b9b9a909a99919998929897939796949662000bc9565b620000386200004d565b611ac662000ef18239611ac690f35b62000053565b60405190565b5f80fd5b601f801991011690565b634e487b7160e01b5f52604160045260245ffd5b90620000819062000057565b810190811060018060401b038211176200009a57604052565b62000061565b90620000b7620000af6200004d565b928362000075565b565b5f80fd5b5f80fd5b90565b620000cf81620000c1565b03620000d757565b5f80fd5b90505190620000ea82620000c4565b565b63ffffffff1690565b6200010081620000ec565b036200010857565b5f80fd5b905051906200011b82620000f5565b565b60018060a01b031690565b62000133906200011d565b90565b620001418162000128565b036200014957565b5f80fd5b905051906200015c8262000136565b565b5f80fd5b5f80fd5b60018060401b03811162000185576200018160209162000057565b0190565b62000061565b5f5b8381106200019e575050905f910152565b8060209183015181850152016200018d565b90929192620001c9620001c38262000166565b620000a0565b93818552602085019082840111620001e857620001e6926200018b565b565b62000162565b9080601f830112156200020f578160206200020c93519101620001b0565b90565b6200015e565b90565b620002238162000215565b036200022b57565b5f80fd5b905051906200023e8262000218565b565b6101a08183031262000338576200025a825f8301620000db565b926200026a8360208401620000db565b926200027a8160408501620000db565b926200028a8260608301620000db565b926200029a8360808401620000db565b92620002aa8160a085016200010c565b92620002ba8260c083016200014d565b92620002ca8360e084016200014d565b9261010083015160018060401b038111620003325781620002ed918501620001ee565b92620002fe826101208301620000db565b926200032f620003138461014085016200010c565b93620003248161016086016200022f565b93610180016200022f565b90565b620000bd565b620000b9565b62000361620029b7803803806200035581620000a0565b92833981019062000240565b909192939495969798999a9b9c565b90565b6200038c6200038662000392926200011d565b62000370565b6200011d565b90565b620003a09062000373565b90565b620003ae9062000395565b90565b5f1b90565b90620003c960018060a01b0391620003b1565b9181191691161790565b620003de9062000395565b90565b90565b90620003fe620003f86200040692620003d3565b620003e1565b8254620003b6565b9055565b6200041590620000c1565b9052565b9160206200043e9294936200043660408201965f8301906200040a565b01906200040a565b565b90565b6200045c62000456620004629262000440565b62000370565b620000c1565b90565b620004709062000128565b9052565b916020620004999294936200049160408201965f83019062000465565b01906200040a565b565b5f1c90565b60018060a01b031690565b620004ba620004c0916200049b565b620004a0565b90565b620004cf9054620004ab565b90565b620004dd9062000373565b90565b620004eb90620004d2565b90565b60e01b90565b9060208282031262000510576200050d915f01620000db565b90565b620000b9565b91906200052b905f6020850194019062000465565b565b620005376200004d565b3d5f823e3d90fd5b6200054b60e0620000a0565b90565b906200055a90620000c1565b9052565b906200056a90620000ec565b9052565b906200057a9062000128565b9052565b6200058a9051620000c1565b90565b906200059b5f1991620003b1565b9181191691161790565b620005be620005b8620005c492620000c1565b62000370565b620000c1565b90565b90565b90620005e4620005de620005ec92620005a5565b620005c7565b82546200058d565b9055565b620005fc9051620000ec565b90565b906200061063ffffffff91620003b1565b9181191691161790565b620006336200062d6200063992620000ec565b62000370565b620000ec565b90565b90565b90620006596200065362000661926200061a565b6200063c565b8254620005ff565b9055565b62000671905162000128565b90565b60201b90565b9062000692640100000000600160c01b039162000674565b9181191691161790565b620006a790620004d2565b90565b90565b90620006c7620006c1620006cf926200069c565b620006aa565b82546200067a565b9055565b906200079560c060056200079c94620006fc5f8201620006f55f88016200057e565b90620005ca565b620007196001820162000712602088016200057e565b90620005ca565b62000736600282016200072f604088016200057e565b90620005ca565b62000753600382016200074c606088016200057e565b90620005ca565b620007706004820162000769608088016200057e565b90620005ca565b6200078c8282016200078560a08801620005f0565b906200063f565b01920162000665565b90620006ad565b565b90620007aa91620006d3565b565b620007b860a0620000a0565b90565b52565b90620007ca9062000215565b9052565b5190565b5190565b634e487b7160e01b5f52602260045260245ffd5b90600160028304921680156200080d575b60208310146200080757565b620007d6565b91607f1691620007fb565b5f5260205f2090565b601f602091010490565b1b90565b919060086200084e910291620008475f19846200082b565b926200082b565b9181191691161790565b9190620008736200086d6200087c93620005a5565b620005c7565b9083546200082f565b9055565b5f90565b6200089a916200089362000880565b9162000858565b565b5b818110620008a9575050565b80620008b85f60019362000884565b016200089d565b9190601f8111620008d0575b505050565b620008df6200090a9362000818565b906020620008ed8462000821565b8301931062000913575b620009029062000821565b01906200089c565b5f8080620008cb565b91506200090281929050620008f7565b1c90565b9062000939905f199060080262000923565b191690565b816200094a9162000927565b906002021790565b906200095e81620007d2565b9060018060401b03821162000a2f5762000985826200097e8554620007ea565b85620008bf565b602090601f8311600114620009be57918091620009ac935f92620009b1575b50506200093e565b90555b565b90915001515f80620009a4565b601f19831691620009cf8562000818565b925f5b81811062000a1657509160029391856001969410620009f9575b50505002019055620009af565b62000a0b910151601f84169062000927565b90555f8080620009ec565b91936020600181928787015181550195019201620009d2565b62000061565b9062000a419162000952565b565b62000a4f905162000215565b90565b62000a5d9062000215565b90565b62000a6b906200049b565b90565b9062000a8862000a8262000a909262000a52565b62000a60565b82546200058d565b9055565b9062000b1d6080600462000b249462000abd5f820162000ab65f8801620007ce565b9062000a35565b62000ada6001820162000ad3602088016200057e565b90620005ca565b62000af76002820162000af060408801620005f0565b906200063f565b62000b146003820162000b0d6060880162000a43565b9062000a6e565b01920162000a43565b9062000a6e565b565b9062000b329162000a94565b565b62000b3f90620004d2565b90565b151590565b62000b528162000b42565b0362000b5a57565b5f80fd5b9050519062000b6d8262000b47565b565b9060208282031262000b8b5762000b88915f0162000b5e565b90565b620000b9565b60409062000bbf62000bc7949695939662000bb460608401985f85019062000465565b602083019062000465565b01906200040a565b565b90949392919a9c9b9662000be562000bec919b99979b620003a3565b5f620003e4565b8162000c0362000bfc85620000c1565b91620000c1565b101562000ec6578a62000c2562000c1e6305f5e10062000443565b91620000c1565b1062000e9b5762000c7460208b62000c4762000c415f620004c3565b620004e0565b62000c685f630fcd4a4762000c5b6200004d565b96879586948593620004ee565b83526004830162000516565b03925af190811562000e95575f9162000e60575b5062000c9f62000c988d620000c1565b91620000c1565b1062000e365762000d9798979562000d4b5f8d9e9f9462000d859860209f8f62000d2f62000d8f9e9b62000d2562000d7b9c62000d1b62000d439862000d1162000d399862000d719f62000d07909b91939597999b62000cfe6200053f565b9e8f016200054e565b60208d016200054e565b60408b016200054e565b606089016200054e565b608087016200054e565b60a085016200055e565b60c083016200056e565b60016200079e565b979591939562000d6862000d5e620007ac565b995f8b01620007bb565b8b89016200054e565b604087016200055e565b60608501620007be565b60808301620007be565b600a62000b26565b62000dac62000da65f620004c3565b620004e0565b62000ddd5f63eee0b48962000de962000dc53062000b34565b9762000dd06200004d565b98899788968795620004ee565b85526004850162000b91565b03925af1801562000e305762000dfd575b50565b62000e229060203d811162000e28575b62000e19818362000075565b81019062000b6f565b62000dfa565b503d62000e0d565b6200052d565b62000e5c8a62000e456200004d565b918291638ff398d160e01b83526004830162000516565b0390fd5b62000e86915060203d811162000e8d575b62000e7d818362000075565b810190620004f4565b5f62000c88565b503d62000e71565b6200052d565b8a8a62000ec262000eab6200004d565b928392633678013760e21b84526004840162000474565b0390fd5b5062000eec62000ed56200004d565b92839263bcc509ad60e01b84526004840162000419565b0390fdfe60806040526004361015610013575b610d34565b61001d5f356100fc565b80630bcb5ed0146100f7578063291ae9b3146100f25780635c889881146100ed5780636f9fb98a146100e857806373d4a13a146100e3578063766c0971146100de57806379502c55146100d957806391327ec6146100d457806393ab0b72146100cf57806395bedd4a146100ca578063a3ec138d146100c5578063abac7b5e146100c0578063fc7e286d146100bb5763fde315bd0361000e57610cff565b610c1e565b610bd0565b610b33565b610a5c565b610a27565b61091b565b6106df565b6105e6565b610512565b6103aa565b610353565b6102fa565b610158565b60e01c90565b60405190565b5f80fd5b5f80fd5b5f91031261011a57565b61010c565b60018060a01b031690565b6101339061011f565b90565b61013f9061012a565b9052565b9190610156905f60208501940190610136565b565b3461018857610168366004610110565b610184610173610d3c565b61017b610102565b91829182610143565b0390f35b610108565b5f80fd5b90565b61019d81610191565b036101a457565b5f80fd5b905035906101b582610194565b565b5f80fd5b5f80fd5b601f801991011690565b634e487b7160e01b5f52604160045260245ffd5b906101e7906101bf565b810190811067ffffffffffffffff82111761020157604052565b6101c9565b90610219610212610102565b92836101dd565b565b67ffffffffffffffff8111610239576102356020916101bf565b0190565b6101c9565b90825f939282370152565b9092919261025e6102598261021b565b610206565b9381855260208501908284011161027a576102789261023e565b565b6101bb565b9080601f8301121561029d5781602061029a93359101610249565b90565b6101b7565b90916060828403126102f0576102ba835f84016101a8565b9260208301359067ffffffffffffffff82116102eb576102df816102e893860161027f565b936040016101a8565b90565b61018d565b61010c565b5f0190565b346103295761031361030d3660046102a2565b9161115e565b61031b610102565b80610325816102f5565b0390f35b610108565b90565b61033a9061032e565b9052565b9190610351905f60208501940190610331565b565b3461038357610363366004610110565b61037f61036e611434565b610376610102565b9182918261033e565b0390f35b610108565b61039190610191565b9052565b91906103a8905f60208501940190610388565b565b346103da576103ba366004610110565b6103d66103c561144d565b6103cd610102565b91829182610395565b0390f35b610108565b5f1c90565b90565b6103f36103f8916103df565b6103e4565b90565b61040590546103e7565b90565b90565b61041761041c916103df565b610408565b90565b610429905461040b565b90565b63ffffffff1690565b610441610446916103df565b61042c565b90565b6104539054610435565b90565b60201c90565b60018060a01b031690565b61047361047891610456565b61045c565b90565b6104859054610467565b90565b6007906104965f83016103fb565b916104a36001820161041f565b916104bb60026104b4818501610449565b930161047b565b90565b63ffffffff1690565b6104d0906104be565b9052565b610509610510946104ff6060949897956104f5608086019a5f870190610388565b6020850190610331565b60408301906104c7565b0190610136565b565b3461054657610522366004610110565b61054261052d610488565b90610539949294610102565b948594856104d4565b0390f35b610108565b1c90565b60018060a01b031690565b61056a90600861056f930261054b565b61054f565b90565b9061057d915461055a565b90565b61058a5f80610572565b90565b90565b6105a461059f6105a99261011f565b61058d565b61011f565b90565b6105b590610590565b90565b6105c1906105ac565b90565b6105cd906105b8565b9052565b91906105e4905f602085019401906105c4565b565b34610616576105f6366004610110565b610612610601610580565b610609610102565b918291826105d1565b0390f35b610108565b60016106285f82016103fb565b91610635600183016103fb565b91610642600282016103fb565b9161064f600383016103fb565b9161065c600482016103fb565b91610674600561066d818501610449565b930161047b565b90565b949290979695939160e08601985f870161069091610388565b6020860161069d91610388565b604085016106aa91610388565b606084016106b791610388565b608083016106c491610388565b60a082016106d1916104c7565b60c0016106dd91610136565b565b34610716576106ef366004610110565b6107126106fa61061b565b93610709979597939193610102565b97889788610677565b0390f35b610108565b634e487b7160e01b5f52602260045260245ffd5b906001600283049216801561074f575b602083101461074a57565b61071b565b91607f169161073f565b60209181520190565b5f5260205f2090565b905f929180549061078561077e8361072f565b8094610759565b916001811690815f146107dc57506001146107a0575b505050565b6107ad9192939450610762565b915f925b8184106107c457505001905f808061079b565b600181602092959395548486015201910192906107b1565b92949550505060ff19168252151560200201905f808061079b565b906108019161076b565b90565b9061082461081d92610814610102565b938480926107f7565b03836101dd565b565b600a6108335f8201610804565b91610840600183016103fb565b9161084d60028201610449565b91610866600461085f6003850161041f565b930161041f565b90565b5190565b60209181520190565b5f5b838110610888575050905f910152565b806020918301518185015201610878565b6108b86108c16020936108c6936108af81610869565b9384809361086d565b95869101610876565b6101bf565b0190565b90610919946109086080949897956108fe6108f36109129560a08801908882035f8a0152610899565b9a6020870190610388565b60408501906104c7565b6060830190610331565b0190610331565b565b3461094f5761092b366004610110565b61094b610936610826565b91610942959395610102565b958695866108ca565b0390f35b610108565b61097361097c6020936109819361096a81610869565b93848093610759565b95869101610876565b6101bf565b0190565b61098e90610191565b9052565b61099b906104be565b9052565b6109a89061032e565b9052565b90610a0c906080806109cb60a084015f8701518582035f870152610954565b946109de60208201516020860190610985565b6109f060408201516040860190610992565b610a026060820151606086019061099f565b015191019061099f565b90565b610a249160208201915f8184039101526109ac565b90565b34610a5757610a37366004610110565b610a53610a42611614565b610a4a610102565b91829182610a0f565b0390f35b610108565b34610a8c57610a6c366004610110565b610a88610a77611658565b610a7f610102565b9182918261033e565b0390f35b610108565b610a9a8161012a565b03610aa157565b5f80fd5b90503590610ab282610a91565b565b90602082820312610acd57610aca915f01610aa5565b90565b61010c565b610adb906105ac565b90565b90610ae890610ad2565b5f5260205260405f2090565b610b04906008610b09930261054b565b6103e4565b90565b90610b179154610af4565b90565b610b3090610b2b600f915f92610ade565b610b0c565b90565b34610b6357610b5f610b4e610b49366004610ab4565b610b1a565b610b56610102565b91829182610395565b0390f35b610108565b610b718161032e565b03610b7857565b5f80fd5b90503590610b8982610b68565b565b90602082820312610ba457610ba1915f01610b7c565b90565b61010c565b151590565b610bb790610ba9565b9052565b9190610bce905f60208501940190610bae565b565b34610c0057610bfc610beb610be6366004610b8b565b611835565b610bf3610102565b91829182610bbb565b0390f35b610108565b610c1b90610c166011915f92610ade565b610b0c565b90565b34610c4e57610c4a610c39610c34366004610ab4565b610c05565b610c41610102565b91829182610395565b0390f35b610108565b90602082820312610c6c57610c69915f016101a8565b90565b61010c565b610c85610c80610c8a92610191565b61058d565b610191565b90565b90610c9790610c71565b5f5260205260405f2090565b634e487b7160e01b5f525f60045260245ffd5b905f10610cc957610cc690610804565b90565b610ca3565b610ce490610cdf6010915f92610c8d565b610cb6565b90565b610cfc9160208201915f818403910152610899565b90565b34610d2f57610d2b610d1a610d15366004610c53565b610cce565b610d22610102565b91829182610ce7565b0390f35b610108565b5f80fd5b5f90565b610d44610d38565b50610d52600260070161047b565b90565b90565b610d6c610d67610d7192610d55565b61058d565b610191565b90565b610d80610d85916103df565b61054f565b90565b610d929054610d74565b90565b5f80fd5b60e01b90565b90505190610dac82610194565b565b90602082820312610dc757610dc4915f01610d9f565b90565b61010c565b610dd4610102565b3d5f823e3d90fd5b634e487b7160e01b5f52601160045260245ffd5b610df9906104be565b63ffffffff8114610e0a5760010190565b610ddc565b5f1b90565b90610e2363ffffffff91610e0f565b9181191691161790565b610e41610e3c610e46926104be565b61058d565b6104be565b90565b90565b90610e61610e5c610e6892610e2d565b610e49565b8254610e14565b9055565b90610e785f1991610e0f565b9181191691161790565b90565b90610e9a610e95610ea192610c71565b610e82565b8254610e6c565b9055565b601f602091010490565b1b90565b91906008610ece910291610ec85f1984610eaf565b92610eaf565b9181191691161790565b9190610eee610ee9610ef693610c71565b610e82565b908354610eb3565b9055565b5f90565b610f1091610f0a610efa565b91610ed8565b565b5b818110610f1e575050565b80610f2b5f600193610efe565b01610f13565b9190601f8111610f41575b505050565b610f4d610f7293610762565b906020610f5984610ea5565b83019310610f7a575b610f6b90610ea5565b0190610f12565b5f8080610f3c565b9150610f6b81929050610f62565b90610f98905f199060080261054b565b191690565b81610fa791610f88565b906002021790565b90610fb981610869565b9067ffffffffffffffff821161107957610fdd82610fd7855461072f565b85610f31565b602090601f831160011461101157918091611000935f92611005575b5050610f9d565b90555b565b90915001515f80610ff9565b601f1983169161102085610762565b925f5b81811061106157509160029391856001969410611047575b50505002019055611003565b611057910151601f841690610f88565b90555f808061103b565b91936020600181928787015181550195019201611023565b6101c9565b9061108891610faf565b565b611093906105ac565b90565b61109f81610ba9565b036110a657565b5f80fd5b905051906110b782611096565b565b906020828203126110d2576110cf915f016110aa565b90565b61010c565b60409061110061110794969593966110f660608401985f850190610136565b6020830190610136565b0190610388565b565b905090565b61113361112a9260209261112181610869565b94858093611109565b93849101610876565b0190565b6111409161110e565b90565b6111589061114f610102565b91829182611137565b03902090565b919091611175611170600f3390610ade565b6103fb565b6111876111815f610d58565b91610191565b0361140a576111cd60206111a261119d5f610d88565b6105b8565b630fcd4a47906111c25f33936111b6610102565b96879586948593610d99565b835260048301610143565b03925af1908115611405575f916113d7575b506111f26111ec84610191565b91610191565b106113b1574261121661121061120b60036001016103fb565b610191565b91610191565b10801561138b575b6113595761126b90611245600260070161123f61123a82610449565b610df0565b90610e4c565b61125a81611255600f3390610ade565b610e85565b61126684916010610c8d565b61107e565b6112808161127b60113390610ade565b610e85565b602061129361128e5f610d88565b6105b8565b63eee0b489906112c05f33936112cb6112ab3061108a565b976112b4610102565b98899788968795610d99565b8552600485016110d7565b03925af1801561135457611328575b50339061131061130a7f1f42239b48b503e3dfaf0ba9d3094e44ec6412593db709afb46e847fbf35071e93610ad2565b91611143565b91611319610102565b80611323816102f5565b0390a3565b6113489060203d811161134d575b61134081836101dd565b8101906110b9565b6112da565b503d611336565b610dcc565b61138761136960036001016103fb565b611371610102565b9182916354fbd5ef60e01b835260048301610395565b0390fd5b50426113ab6113a56113a060046001016103fb565b610191565b91610191565b1161121e565b6113d3336113bd610102565b918291638ff398d160e01b835260048301610143565b0390fd5b6113f8915060203d81116113fe575b6113f081836101dd565b810190610dae565b5f6111df565b503d6113e6565b610dcc565b61142c33611416610102565b918291633512759d60e21b835260048301610143565b0390fd5b5f90565b61143c611430565b5061144a600160070161041f565b90565b611455610efa565b5061149e602061146c6114675f610d88565b6105b8565b63460379839061149361147e3061108a565b92611487610102565b95869485938493610d99565b835260048301610143565b03915afa9081156114e2575f916114b4575b5090565b6114d5915060203d81116114db575b6114cd81836101dd565b810190610dae565b5f6114b0565b503d6114c3565b610dcc565b6114f160a0610206565b90565b606090565b5f90565b5f90565b5f90565b61150d6114e7565b906020808080808661151d6114f4565b8152016115286114f9565b8152016115336114fd565b81520161153e611501565b815201611549611501565b81525050565b611557611505565b90565b52565b9061156790610191565b9052565b90611575906104be565b9052565b906115839061032e565b9052565b906116066115fd60046115986114e7565b946115af6115a75f8301610804565b5f880161155a565b6115c76115be600183016103fb565b6020880161155d565b6115df6115d660028301610449565b6040880161156b565b6115f76115ee6003830161041f565b60608801611579565b0161041f565b60808401611579565b565b61161190611587565b90565b61161c61154f565b50611627600a611608565b90565b90565b61163961163e9161032e565b61162a565b9052565b61164e8160209361162d565b0190565b60200190565b611660611430565b506116886116976116746004600a0161041f565b61167c610102565b92839160208301611642565b602082018103825203826101dd565b6116a96116a382610869565b91611652565b2090565b5f90565b6116c56116c06116ca92610d55565b61058d565b61011f565b90565b6116d6906116b1565b90565b6116e29061032e565b90565b6116ee906103df565b90565b9061170661170161170d926116d9565b6116e5565b8254610e6c565b9055565b60201b90565b9061172d640100000000600160c01b0391611711565b9181191691161790565b90565b9061174f61174a61175692610ad2565b611737565b8254611717565b9055565b90565b61177161176c6117769261175a565b61058d565b610191565b90565b61178861178e91939293610191565b92610191565b9161179a838202610191565b9281840414901517156117a957565b610ddc565b90565b6117c56117c06117ca926117ae565b61058d565b610191565b90565b634e487b7160e01b5f52601260045260245ffd5b6117ed6117f391610191565b91610191565b9081156117fe570490565b6117cd565b5f91031261180d57565b61010c565b91602061183392949361182c60408201965f830190610136565b0190610388565b565b61183d6116ad565b506118956118a461185f61186e84611853610102565b92839160208301611642565b602082018103825203826101dd565b61188061187a82610869565b91611652565b20611889610102565b92839160208301611642565b602082018103825203826101dd565b6118b66118b082610869565b91611652565b206118bf611658565b906118cd600260070161047b565b6118e76118e16118dc5f6116cd565b61012a565b9161012a565b14155f14611935576118fc611902919261032e565b9161032e565b145f1461190f5750600190565b6119319061191b610102565b9182916377efcdf960e01b83526004830161033e565b0390fd5b611942611948919261032e565b9161032e565b145f14611a6a5761195d9060016007016116f1565b61196b33600260070161173a565b61197c6119775f610d88565b6105b8565b63ce7200ba336119b56119a561199560026001016103fb565b61199f600a61175d565b90611779565b6119af60646117b1565b906117e1565b92803b15611a65576119da5f80946119e56119ce610102565b97889687958694610d99565b845260048401611812565b03925af18015611a6057611a34575b5033611a2c7fd742a68488227facc44aad7dce2d652e436f3c1b1f4b355a5384a180954fa78091611a23610102565b91829182610143565b0390a1600190565b611a53905f3d8111611a59575b611a4b81836101dd565b810190611803565b5f6119f4565b503d611a41565b610dcc565b610d95565b611a8c90611a76610102565b9182916377efcdf960e01b83526004830161033e565b0390fdfea264697066735822122000db9fb1f3f425fcf5c52867e35fcf88f1da5a62de787a8192a25eeacf61bae264736f6c63430008180033a26469706673582212203a7116870a924d80b1f5a43a4503c9216bc5c025d1106df7dedc42738ae31bf064736f6c63430008180033",
    "linkReferences": {}
  },
  "methodIdentifiers": {
    "createVoteContract()": "2ef76b00",
    "createVoteContracts(uint256,uint256,uint256,uint256,uint256,uint256,uint32,address,bytes,uint256,uint32,bytes32,bytes32)": "5836302b",
    "getContractsByMarket(uint256)": "31db74a0",
    "marketContracts(uint256)": "7a1de44e"
  },
  "id": 1
}