{"abi":[{"type":"function","name":"createVoteContract","inputs":[],"outputs":[{"name":"","type":"address","internalType":"contract CreateVote"}],"stateMutability":"view"},{"type":"function","name":"createVoteContracts","inputs":[{"name":"_marketId","type":"uint256","internalType":"uint256"},{"name":"_optionA","type":"uint256","internalType":"uint256"},{"name":"_optionB","type":"uint256","internalType":"uint256"},{"name":"_rewards","type":"uint256","internalType":"uint256"},{"name":"_startTimestamp","type":"uint256","internalType":"uint256"},{"name":"_endTimestamp","type":"uint256","internalType":"uint256"},{"name":"_thresholdVotes","type":"uint32","internalType":"uint32"},{"name":"_hbarLockingContractAddress","type":"address","internalType":"address"},{"name":"_N","type":"bytes","internalType":"bytes"},{"name":"_t","type":"uint256","internalType":"uint256"},{"name":"_a","type":"uint32","internalType":"uint32"},{"name":"_skLocked","type":"bytes32","internalType":"bytes32"},{"name":"_hashedSK","type":"bytes32","internalType":"bytes32"},{"name":"_publicKey","type":"bytes32","internalType":"bytes32"}],"outputs":[{"name":"","type":"address","internalType":"address"}],"stateMutability":"nonpayable"},{"type":"function","name":"getContractsByMarket","inputs":[{"name":"_marketId","type":"uint256","internalType":"uint256"}],"outputs":[{"name":"","type":"address","internalType":"address"}],"stateMutability":"view"},{"type":"function","name":"marketContracts","inputs":[{"name":"","type":"uint256","internalType":"uint256"}],"outputs":[{"name":"","type":"address","internalType":"address"}],"stateMutability":"view"},{"type":"event","name":"CreateVoteDeployed","inputs":[{"name":"marketId","type":"uint256","indexed":true,"internalType":"uint256"},{"name":"voteContract","type":"address","indexed":true,"internalType":"address"}],"anonymous":false},{"type":"error","name":"AlreadyDeployed","inputs":[{"name":"","type":"uint256","internalType":"uint256"},{"name":"","type":"address","internalType":"address"}]}],"bytecode":{"object":"0x608060405234601c57600e6020565b61349161002b823961349190f35b6026565b60405190565b5f80fdfe60806040526004361015610013575b610552565b61001d5f3561005c565b806302d8e275146100575780632ef76b001461005257806331db74a01461004d57637a1de44e0361000e5761051d565b61046d565b61041a565b610326565b60e01c90565b60405190565b5f80fd5b5f80fd5b5f80fd5b90565b61008081610074565b0361008757565b5f80fd5b9050359061009882610077565b565b63ffffffff1690565b6100ac8161009a565b036100b357565b5f80fd5b905035906100c4826100a3565b565b60018060a01b031690565b6100da906100c6565b90565b6100e6816100d1565b036100ed57565b5f80fd5b905035906100fe826100dd565b565b5f80fd5b5f80fd5b601f801991011690565b634e487b7160e01b5f52604160045260245ffd5b9061013090610108565b810190811067ffffffffffffffff82111761014a57604052565b610112565b9061016261015b610062565b9283610126565b565b67ffffffffffffffff81116101825761017e602091610108565b0190565b610112565b90825f939282370152565b909291926101a76101a282610164565b61014f565b938185526020850190828401116101c3576101c192610187565b565b610104565b9080601f830112156101e6578160206101e393359101610192565b90565b610100565b90565b6101f7816101eb565b036101fe57565b5f80fd5b9050359061020f826101ee565b565b91906101c0838203126102ff5761022a815f850161008b565b92610238826020830161008b565b92610246836040840161008b565b92610254816060850161008b565b92610262826080830161008b565b926102708360a0840161008b565b9261027e8160c085016100b7565b9261028c8260e083016100f1565b9261010082013567ffffffffffffffff81116102fa57836102ae9184016101c8565b926102bd81610120850161008b565b926102cc8261014083016100b7565b926102f76102de846101608501610202565b936102ed816101808601610202565b936101a001610202565b90565b610070565b61006c565b61030d906100d1565b9052565b9190610324905f60208501940190610304565b565b346103695761036561035461033c366004610211565b9c9b909b9a919a9992999893989794979695966107d4565b61035c610062565b91829182610311565b0390f35b610068565b5f91031261037857565b61006c565b1c90565b60018060a01b031690565b61039c9060086103a1930261037d565b610381565b90565b906103af915461038c565b90565b6103be60015f906103a4565b90565b90565b6103d86103d36103dd926100c6565b6103c1565b6100c6565b90565b6103e9906103c4565b90565b6103f5906103e0565b90565b610401906103ec565b9052565b9190610418905f602085019401906103f8565b565b3461044a5761042a36600461036e565b6104466104356103b2565b61043d610062565b91829182610405565b0390f35b610068565b9060208282031261046857610465915f0161008b565b90565b61006c565b3461049d5761049961048861048336600461044f565b610951565b610490610062565b91829182610311565b0390f35b610068565b6104b66104b16104bb92610074565b6103c1565b610074565b90565b906104c8906104a2565b5f5260205260405f2090565b60018060a01b031690565b6104ef9060086104f4930261037d565b6104d4565b90565b9061050291546104df565b90565b61051a906105155f915f926104be565b6104f7565b90565b3461054d5761054961053861053336600461044f565b610505565b610540610062565b91829182610311565b0390f35b610068565b5f80fd5b5f90565b5f1c90565b61056b6105709161055a565b6104d4565b90565b61057d905461055f565b90565b90565b61059761059261059c92610580565b6103c1565b6100c6565b90565b6105a890610583565b90565b6105b490610074565b9052565b9160206105d99294936105d260408201965f8301906105ab565b0190610304565b565b6105e49061009a565b9052565b5190565b60209181520190565b90825f9392825e0152565b61061f61062860209361062d93610616816105e8565b938480936105ec565b958691016105f5565b610108565b0190565b61063a906101eb565b9052565b9b999e9d9c9a98979593918c979593916101c08901985f0161065f916105ab565b60208d0161066c916105ab565b60408c01610679916105ab565b60608b01610686916105ab565b60808a01610693916105ab565b60a089016106a0916105db565b60c088016106ad91610304565b60e087016106ba91610304565b8581036101008701526106cc91610600565b9661012085016106db916105ab565b61014084016106e9916105db565b61016083016106f791610631565b610180820161070591610631565b6101a00161071291610631565b565b61071c610062565b3d5f823e3d90fd5b5f1b90565b9061073a60018060a01b0391610724565b9181191691161790565b61074d906103c4565b90565b61075990610744565b90565b90565b9061077461076f61077b92610750565b61075c565b8254610729565b9055565b61078b6107909161055a565b610381565b90565b61079d905461077f565b90565b6107a9906103e0565b90565b90565b906107c46107bf6107cb926107a0565b6107ac565b8254610729565b9055565b5f0190565b9b96919994909d9c97929a956107fe6107f98e9b969b6107f2610556565b505f6104be565b610573565b61081861081261080d5f61059f565b6100d1565b916100d1565b0361091f5767ffffffffffffffff9a9b9c9d9e9b9c9991909133939495969798999a610842610062565b9e8f612aec81019e8f91821091111761091a578f9e8f9e61086b9f612aec90610970903961063e565b03905ff080156109155761088090600161075f565b6108a56108956108906001610793565b6103ec565b6108a05f84906104be565b6107af565b6108b76108b26001610793565b6103ec565b6108ea6108e47f4c32280f850f7f801af7640070c521f5541c8ca09d04f613abff1850972a0a8d936104a2565b916107a0565b916108f3610062565b806108fd816107cf565b0390a361091261090d6001610793565b6103ec565b90565b610714565b610112565b8c61093261092d825f6104be565b610573565b9061094d5f928392633c15a62b60e11b8452600484016105b8565b0390fd5b61096761096c91610960610556565b505f6104be565b610573565b9056fe6080604052346100425761002c6100146102e3565b9c9b909b9a919a999299989398979497969596610a83565b610034610047565b611da4610d488239611da490f35b61004d565b60405190565b5f80fd5b601f801991011690565b634e487b7160e01b5f52604160045260245ffd5b9061007990610051565b810190811060018060401b0382111761009157604052565b61005b565b906100a96100a2610047565b928361006f565b565b5f80fd5b5f80fd5b90565b6100bf816100b3565b036100c657565b5f80fd5b905051906100d7826100b6565b565b63ffffffff1690565b6100eb816100d9565b036100f257565b5f80fd5b90505190610103826100e2565b565b60018060a01b031690565b61011990610105565b90565b61012581610110565b0361012c57565b5f80fd5b9050519061013d8261011c565b565b5f80fd5b5f80fd5b60018060401b0381116101635761015f602091610051565b0190565b61005b565b90825f9392825e0152565b9092919261018861018382610147565b610096565b938185526020850190828401116101a4576101a292610168565b565b610143565b9080601f830112156101c7578160206101c493519101610173565b90565b61013f565b90565b6101d8816101cc565b036101df57565b5f80fd5b905051906101f0826101cf565b565b91906101c0838203126102de5761020b815f85016100ca565b9261021982602083016100ca565b9261022783604084016100ca565b9261023581606085016100ca565b9261024382608083016100ca565b926102518360a084016100f6565b9261025f8160c08501610130565b9261026d8260e08301610130565b9261010082015160018060401b0381116102d9578361028d9184016101a9565b9261029c8161012085016100ca565b926102ab8261014083016100f6565b926102d66102bd8461016085016101e3565b936102cc8161018086016101e3565b936101a0016101e3565b90565b6100af565b6100ab565b610301612aec803803806102f681610096565b9283398101906101f2565b909192939495969798999a9b9c9d565b90565b61032861032361032d92610105565b610311565b610105565b90565b61033990610314565b90565b61034590610330565b90565b5f1b90565b9061035e60018060a01b0391610348565b9181191691161790565b61037190610330565b90565b90565b9061038c61038761039392610368565b610374565b825461034d565b9055565b6103a0906100b3565b9052565b9160206103c59294936103be60408201965f830190610397565b0190610397565b565b90565b6103de6103d96103e3926103c7565b610311565b6100b3565b90565b6103ef90610110565b9052565b91602061041492949361040d60408201965f8301906103e6565b0190610397565b565b5f1c90565b60018060a01b031690565b61043261043791610416565b61041b565b90565b6104449054610426565b90565b61045090610314565b90565b61045c90610447565b90565b60e01b90565b9060208282031261047e5761047b915f016100ca565b90565b6100ab565b9190610496905f602085019401906103e6565b565b6104a0610047565b3d5f823e3d90fd5b6104b260e0610096565b90565b906104bf906100b3565b9052565b906104cd906100d9565b9052565b906104db90610110565b9052565b6104e990516100b3565b90565b906104f85f1991610348565b9181191691161790565b61051661051161051b926100b3565b610311565b6100b3565b90565b90565b9061053661053161053d92610502565b61051e565b82546104ec565b9055565b61054b90516100d9565b90565b9061055d63ffffffff91610348565b9181191691161790565b61057b610576610580926100d9565b610311565b6100d9565b90565b90565b9061059b6105966105a292610567565b610583565b825461054e565b9055565b6105b09051610110565b90565b60201b90565b906105cf640100000000600160c01b03916105b3565b9181191691161790565b6105e290610447565b90565b90565b906105fd6105f8610604926105d9565b6105e5565b82546105b9565b9055565b906106af60c060056106b59461062b5f82016106255f88016104df565b90610521565b6106446001820161063e602088016104df565b90610521565b61065d60028201610657604088016104df565b90610521565b61067660038201610670606088016104df565b90610521565b61068f60048201610689608088016104df565b90610521565b6106a78282016106a160a08801610541565b90610586565b0192016105a6565b906105e8565b565b906106c191610608565b565b6106cd60c0610096565b90565b52565b906106dd906101cc565b9052565b5190565b5190565b634e487b7160e01b5f52602260045260245ffd5b906001600283049216801561071d575b602083101461071857565b6106e9565b91607f169161070d565b5f5260205f2090565b601f602091010490565b1b90565b919060086107599102916107535f198461073a565b9261073a565b9181191691161790565b919061077961077461078193610502565b61051e565b90835461073e565b9055565b5f90565b61079b91610795610785565b91610763565b565b5b8181106107a9575050565b806107b65f600193610789565b0161079e565b9190601f81116107cc575b505050565b6107d86107fd93610727565b9060206107e484610730565b83019310610805575b6107f690610730565b019061079d565b5f80806107c7565b91506107f6819290506107ed565b1c90565b90610827905f1990600802610813565b191690565b8161083691610817565b906002021790565b90610848816106e5565b9060018060401b0382116109065761086a8261086485546106fd565b856107bc565b602090601f831160011461089e5791809161088d935f92610892575b505061082c565b90555b565b90915001515f80610886565b601f198316916108ad85610727565b925f5b8181106108ee575091600293918560019694106108d4575b50505002019055610890565b6108e4910151601f841690610817565b90555f80806108c8565b919360206001819287870151815501950192016108b0565b61005b565b906109159161083e565b565b61092190516101cc565b90565b61092d906101cc565b90565b61093990610416565b90565b9061095161094c61095892610924565b610930565b82546104ec565b9055565b906109eb60a060056109f19461097f5f82016109795f88016106e1565b9061090b565b61099860018201610992602088016104df565b90610521565b6109b1600282016109ab60408801610541565b90610586565b6109ca600382016109c460608801610917565b9061093c565b6109e3600482016109dd60808801610917565b9061093c565b019201610917565b9061093c565b565b906109fd9161095c565b565b610a0890610447565b90565b151590565b610a1981610a0b565b03610a2057565b5f80fd5b90505190610a3182610a10565b565b90602082820312610a4c57610a49915f01610a24565b90565b6100ab565b604090610a7a610a819496959396610a7060608401985f8501906103e6565b60208301906103e6565b0190610397565b565b90949392919c989a96610a9c610aa2919d99979d61033c565b5f610377565b81610ab5610aaf856100b3565b916100b3565b1015610d28578c610ad2610acc6305f5e1006103ca565b916100b3565b10610d0857610b1660208d610aee610ae95f61043a565b610453565b610b0b5f630fcd4a47610aff610047565b9687958694859361045f565b835260048301610483565b03925af1908115610d03578e905f92610ccb575b50610b37610b3d916100b3565b916100b3565b10610cac5795610bf8610c1396610bd68f60209f9e9c988f90610c239f9c610bcf92610c1c9f9a610c0a9c610bb4610bbd92610bab610c019e610ba25f9b610b99610bc69a9b91939597999b610b916104a8565b9e8f016104b5565b60208d016104b5565b60408b016104b5565b606089016104b5565b608087016104b5565b60a085016104c3565b60c083016104d1565b60016106b7565b999791939597610bf0610be76106c3565b9b5f8d016106d0565b8d8b016104b5565b604089016104c3565b606087016106d3565b608085016106d3565b60a083016106d3565b600a6109f3565b610c34610c2f5f61043a565b610453565b610c5e5f63eee0b489610c69610c49306109ff565b97610c52610047565b9889978896879561045f565b855260048501610a51565b03925af18015610ca757610c7b575b50565b610c9b9060203d8111610ca0575b610c93818361006f565b810190610a33565b610c78565b503d610c89565b610498565b610cc78c5f918291638ff398d160e01b835260048301610483565b0390fd5b610b3d919250610cf4610b379160203d8111610cfc575b610cec818361006f565b810190610465565b929150610b2a565b503d610ce2565b610498565b8c8c610d245f928392633678013760e21b8452600484016103f3565b0390fd5b50610d435f92839263bcc509ad60e01b8452600484016103a4565b0390fdfe60806040526004361015610013575b610e36565b61001d5f356100fc565b80630270bea0146100f7578063291ae9b3146100f25780636f9fb98a146100ed57806373d4a13a146100e8578063766c0971146100e357806379502c55146100de57806391327ec6146100d957806393ab0b72146100d457806395bedd4a146100cf578063a3ec138d146100ca578063abac7b5e146100c5578063fc7e286d146100c0578063fde315bd146100bb5763ff23ad3a0361000e57610e01565b610d39565b610c58565b610c0a565b610b6d565b610a96565b610a4c565b610952565b610712565b610619565b610544565b6103cb565b610375565b6101d6565b60e01c90565b60405190565b5f80fd5b5f80fd5b5f91031261011a57565b61010c565b90565b61012b9061011f565b9052565b90565b61013b9061012f565b9052565b63ffffffff1690565b6101519061013f565b9052565b60018060a01b031690565b61016990610155565b90565b61017590610160565b9052565b906060806101bf936101915f8201515f860190610122565b6101a360208201516020860190610132565b6101b560408201516040860190610148565b015191019061016c565b565b91906101d4905f60808501940190610179565b565b34610206576101e6366004610110565b6102026101f1610f4c565b6101f9610102565b918291826101c1565b0390f35b610108565b5f80fd5b6102188161011f565b0361021f57565b5f80fd5b905035906102308261020f565b565b5f80fd5b5f80fd5b601f801991011690565b634e487b7160e01b5f52604160045260245ffd5b906102629061023a565b810190811067ffffffffffffffff82111761027c57604052565b610244565b9061029461028d610102565b9283610258565b565b67ffffffffffffffff81116102b4576102b060209161023a565b0190565b610244565b90825f939282370152565b909291926102d96102d482610296565b610281565b938185526020850190828401116102f5576102f3926102b9565b565b610236565b9080601f8301121561031857816020610315933591016102c4565b90565b610232565b909160608284031261036b57610335835f8401610223565b9260208301359067ffffffffffffffff82116103665761035a816103639386016102fa565b93604001610223565b90565b61020b565b61010c565b5f0190565b346103a45761038e61038836600461031d565b9161132b565b610396610102565b806103a081610370565b0390f35b610108565b6103b29061011f565b9052565b91906103c9905f602085019401906103a9565b565b346103fb576103db366004610110565b6103f76103e66115ea565b6103ee610102565b918291826103b6565b0390f35b610108565b5f1c90565b90565b61041461041991610400565b610405565b90565b6104269054610408565b90565b90565b61043861043d91610400565b610429565b90565b61044a905461042c565b90565b63ffffffff1690565b61046261046791610400565b61044d565b90565b6104749054610456565b90565b60201c90565b60018060a01b031690565b61049461049991610477565b61047d565b90565b6104a69054610488565b90565b6007906104b75f830161041c565b916104c460018201610440565b916104dc60026104d581850161046a565b930161049c565b90565b6104e89061012f565b9052565b6104f59061013f565b9052565b61050290610160565b9052565b61053b61054294610531606094989795610527608086019a5f8701906103a9565b60208501906104df565b60408301906104ec565b01906104f9565b565b3461057857610554366004610110565b61057461055f6104a9565b9061056b949294610102565b94859485610506565b0390f35b610108565b1c90565b60018060a01b031690565b61059c9060086105a1930261057d565b610581565b90565b906105af915461058c565b90565b6105bd5f5f906105a4565b90565b90565b6105d76105d26105dc92610155565b6105c0565b610155565b90565b6105e8906105c3565b90565b6105f4906105df565b90565b610600906105eb565b9052565b9190610617905f602085019401906105f7565b565b3461064957610629366004610110565b6106456106346105b2565b61063c610102565b91829182610604565b0390f35b610108565b600161065b5f820161041c565b916106686001830161041c565b916106756002820161041c565b916106826003830161041c565b9161068f6004820161041c565b916106a760056106a081850161046a565b930161049c565b90565b949290979695939160e08601985f87016106c3916103a9565b602086016106d0916103a9565b604085016106dd916103a9565b606084016106ea916103a9565b608083016106f7916103a9565b60a08201610704916104ec565b60c001610710916104f9565b565b3461074957610722366004610110565b61074561072d61064e565b9361073c979597939193610102565b978897886106aa565b0390f35b610108565b634e487b7160e01b5f52602260045260245ffd5b9060016002830492168015610782575b602083101461077d57565b61074e565b91607f1691610772565b60209181520190565b5f5260205f2090565b905f92918054906107b86107b183610762565b809461078c565b916001811690815f1461080f57506001146107d3575b505050565b6107e09192939450610795565b915f925b8184106107f757505001905f80806107ce565b600181602092959395548486015201910192906107e4565b92949550505060ff19168252151560200201905f80806107ce565b906108349161079e565b90565b9061085761085092610847610102565b9384809261082a565b0383610258565b565b600a906108675f8301610837565b916108746001820161041c565b916108816002830161046a565b9161088e60038201610440565b916108a760056108a060048501610440565b9301610440565b90565b5190565b60209181520190565b90825f9392825e0152565b6108e16108ea6020936108ef936108d8816108aa565b938480936108ae565b958691016108b7565b61023a565b0190565b919695939461093f6109509661093560a09661092b6109206109499760c08a01908a82035f8c01526108c2565b9c60208901906103a9565b60408701906104ec565b60608501906104df565b60808301906104df565b01906104df565b565b3461098957610962366004610110565b61098561096d610859565b9261097c969496929192610102565b968796876108f3565b0390f35b610108565b6109ad6109b66020936109bb936109a4816108aa565b9384809361078c565b958691016108b7565b61023a565b0190565b90610a319060a0806109de60c084015f8701518582035f87015261098e565b946109f160208201516020860190610122565b610a0360408201516040860190610148565b610a1560608201516060860190610132565b610a2760808201516080860190610132565b0151910190610132565b90565b610a499160208201915f8184039101526109bf565b90565b34610a7c57610a5c366004610110565b610a78610a6761179f565b610a6f610102565b91829182610a34565b0390f35b610108565b9190610a94905f602085019401906104df565b565b34610ac657610aa6366004610110565b610ac2610ab16117e7565b610ab9610102565b91829182610a81565b0390f35b610108565b610ad481610160565b03610adb57565b5f80fd5b90503590610aec82610acb565b565b90602082820312610b0757610b04915f01610adf565b90565b61010c565b610b15906105df565b90565b90610b2290610b0c565b5f5260205260405f2090565b610b3e906008610b43930261057d565b610405565b90565b90610b519154610b2e565b90565b610b6a90610b656010915f92610b18565b610b46565b90565b34610b9d57610b99610b88610b83366004610aee565b610b54565b610b90610102565b918291826103b6565b0390f35b610108565b610bab8161012f565b03610bb257565b5f80fd5b90503590610bc382610ba2565b565b90602082820312610bde57610bdb915f01610bb6565b90565b61010c565b151590565b610bf190610be3565b9052565b9190610c08905f60208501940190610be8565b565b34610c3a57610c36610c25610c20366004610bc5565b6119c4565b610c2d610102565b91829182610bf5565b0390f35b610108565b610c5590610c506012915f92610b18565b610b46565b90565b34610c8857610c84610c73610c6e366004610aee565b610c3f565b610c7b610102565b918291826103b6565b0390f35b610108565b90602082820312610ca657610ca3915f01610223565b90565b61010c565b610cbf610cba610cc49261011f565b6105c0565b61011f565b90565b90610cd190610cab565b5f5260205260405f2090565b634e487b7160e01b5f525f60045260245ffd5b905f10610d0357610d0090610837565b90565b610cdd565b610d1e90610d196011915f92610cc7565b610cf0565b90565b610d369160208201915f8184039101526108c2565b90565b34610d6957610d65610d54610d4f366004610c8d565b610d08565b610d5c610102565b91829182610d21565b0390f35b610108565b9060c080610dea93610d865f8201515f860190610122565b610d9860208201516020860190610122565b610daa60408201516040860190610122565b610dbc60608201516060860190610122565b610dce60808201516080860190610122565b610de060a082015160a0860190610148565b015191019061016c565b565b9190610dff905f60e08501940190610d6e565b565b34610e3157610e11366004610110565b610e2d610e1c611d58565b610e24610102565b91829182610dec565b0390f35b610108565b5f80fd5b610e446080610281565b90565b5f90565b5f90565b5f90565b5f90565b610e5f610e3a565b90602080808085610e6e610e47565b815201610e79610e4b565b815201610e84610e4f565b815201610e8f610e53565b81525050565b610e9d610e57565b90565b90610eaa9061011f565b9052565b90610eb89061012f565b9052565b90610ec69061013f565b9052565b90610ed490610160565b9052565b90610f3e610f356002610ee9610e3a565b94610f00610ef85f830161041c565b5f8801610ea0565b610f18610f0f60018301610440565b60208801610eae565b610f2f610f2683830161046a565b60408801610ebc565b0161049c565b60608401610eca565b565b610f4990610ed8565b90565b610f54610e95565b50610f5f6007610f40565b90565b90565b610f79610f74610f7e92610f62565b6105c0565b61011f565b90565b9190610f94905f602085019401906104f9565b565b610fa2610fa791610400565b610581565b90565b610fb49054610f96565b90565b5f80fd5b60e01b90565b90505190610fce8261020f565b565b90602082820312610fe957610fe6915f01610fc1565b90565b61010c565b610ff6610102565b3d5f823e3d90fd5b634e487b7160e01b5f52601160045260245ffd5b61101b9061013f565b63ffffffff811461102c5760010190565b610ffe565b5f1b90565b9061104563ffffffff91611031565b9181191691161790565b61106361105e6110689261013f565b6105c0565b61013f565b90565b90565b9061108361107e61108a9261104f565b61106b565b8254611036565b9055565b9061109a5f1991611031565b9181191691161790565b90565b906110bc6110b76110c392610cab565b6110a4565b825461108e565b9055565b601f602091010490565b1b90565b919060086110f09102916110ea5f19846110d1565b926110d1565b9181191691161790565b919061111061110b61111893610cab565b6110a4565b9083546110d5565b9055565b5f90565b6111329161112c61111c565b916110fa565b565b5b818110611140575050565b8061114d5f600193611120565b01611135565b9190601f8111611163575b505050565b61116f61119493610795565b90602061117b846110c7565b8301931061119c575b61118d906110c7565b0190611134565b5f808061115e565b915061118d81929050611184565b906111ba905f199060080261057d565b191690565b816111c9916111aa565b906002021790565b906111db816108aa565b9067ffffffffffffffff821161129b576111ff826111f98554610762565b85611153565b602090601f831160011461123357918091611222935f92611227575b50506111bf565b90555b565b90915001515f8061121b565b601f1983169161124285610795565b925f5b81811061128357509160029391856001969410611269575b50505002019055611225565b611279910151601f8416906111aa565b90555f808061125d565b91936020600181928787015181550195019201611245565b610244565b906112aa916111d1565b565b6112b5906105df565b90565b6112c181610be3565b036112c857565b5f80fd5b905051906112d9826112b8565b565b906020828203126112f4576112f1915f016112cc565b90565b61010c565b604090611322611329949695939661131860608401985f8501906104f9565b60208301906104f9565b01906103a9565b565b9161134061133b60103390610b18565b61041c565b61135261134c5f610f65565b9161011f565b036115cb57611398602061136d6113685f610faa565b6105eb565b630fcd4a479061138d5f3393611381610102565b96879586948593610fbb565b835260048301610f81565b03925af19081156115c6575f91611598575b506113bd6113b78361011f565b9161011f565b1061157957426113e16113db6113d6600360010161041c565b61011f565b9161011f565b108015611553575b6115285761140c60026007016114066114018261046a565b611012565b9061106e565b6114218361141c60103390610b18565b6110a7565b6114368261143160118690610cc7565b6112a0565b61144b8161144660123390610b18565b6110a7565b602061145e6114595f610faa565b6105eb565b63eee0b4899061148b5f3393611496611476306112ac565b9761147f610102565b98899788968795610fbb565b8552600485016112f9565b03925af18015611523576114f7575b50339190916114f26114e06114da7f71a29581f391d0ca96684c69771724a921678b572e21378712be03e8da07e2ca93610b0c565b93610cab565b936114e9610102565b91829182610d21565b0390a3565b6115179060203d811161151c575b61150f8183610258565b8101906112db565b6114a5565b503d611505565b610fee565b61154f611538600360010161041c565b5f9182916354fbd5ef60e01b8352600483016103b6565b0390fd5b504261157361156d611568600460010161041c565b61011f565b9161011f565b116113e9565b611594335f918291638ff398d160e01b835260048301610f81565b0390fd5b6115b9915060203d81116115bf575b6115b18183610258565b810190610fd0565b5f6113aa565b503d6115a7565b610fee565b6115e6335f918291633512759d60e21b835260048301610f81565b0390fd5b6115f261111c565b5061163b60206116096116045f610faa565b6105eb565b63460379839061163061161b306112ac565b92611624610102565b95869485938493610fbb565b835260048301610f81565b03915afa90811561167f575f91611651575b5090565b611672915060203d8111611678575b61166a8183610258565b810190610fd0565b5f61164d565b503d611660565b610fee565b61168e60c0610281565b90565b606090565b61169e611684565b9060208080808080876116af611691565b8152016116ba610e47565b8152016116c5610e4f565b8152016116d0610e4b565b8152016116db610e4b565b8152016116e6610e4b565b81525050565b6116f4611696565b90565b52565b90611791611788600561170b611684565b9461172261171a5f8301610837565b5f88016116f7565b61173a6117316001830161041c565b60208801610ea0565b6117526117496002830161046a565b60408801610ebc565b61176a61176160038301610440565b60608801610eae565b61178261177960048301610440565b60808801610eae565b01610440565b60a08401610eae565b565b61179c906116fa565b90565b6117a76116ec565b506117b2600a611793565b90565b5f90565b90565b6117c86117cd9161012f565b6117b9565b9052565b6117dd816020936117bc565b0190565b60200190565b6117ef6117b5565b506118176118266118036004600a01610440565b61180b610102565b928391602083016117d1565b60208201810382520382610258565b611838611832826108aa565b916117e1565b2090565b5f90565b61185461184f61185992610f62565b6105c0565b610155565b90565b61186590611840565b90565b6118719061012f565b90565b61187d90610400565b90565b9061189561189061189c92611868565b611874565b825461108e565b9055565b60201b90565b906118bc640100000000600160c01b03916118a0565b9181191691161790565b90565b906118de6118d96118e592610b0c565b6118c6565b82546118a6565b9055565b90565b6119006118fb611905926118e9565b6105c0565b61011f565b90565b61191761191d9193929361011f565b9261011f565b9161192983820261011f565b92818404149015171561193857565b610ffe565b90565b61195461194f6119599261193d565b6105c0565b61011f565b90565b634e487b7160e01b5f52601260045260245ffd5b61197c6119829161011f565b9161011f565b90811561198d570490565b61195c565b5f91031261199c57565b61010c565b9160206119c29294936119bb60408201965f8301906104f9565b01906103a9565b565b6119cc61183c565b50611a24611a336119ee6119fd846119e2610102565b928391602083016117d1565b60208201810382520382610258565b611a0f611a09826108aa565b916117e1565b20611a18610102565b928391602083016117d1565b60208201810382520382610258565b611a45611a3f826108aa565b916117e1565b20611a4e6117e7565b90611a5c600260070161049c565b611a76611a70611a6b5f61185c565b610160565b91610160565b14155f14611abd57611a8b611a91919261012f565b9161012f565b145f14611a9e5750600190565b611ab9905f9182916377efcdf960e01b835260048301610a81565b0390fd5b611aca611ad0919261012f565b9161012f565b145f14611c0357611ae5816001600701611880565b611af33360026007016118c9565b611b04611aff5f610faa565b6105eb565b63ce7200ba33611b3d611b2d611b1d600260010161041c565b611b27600a6118ec565b90611908565b611b376064611940565b90611970565b92803b15611bfe57611b625f8094611b6d611b56610102565b97889687958694610fbb565b8452600484016119a1565b03925af18015611bf957611bcd575b503390611bb2611bac7f8c43435d00d84a08dc7aaa1aeecdd17d35ba5b16a2c50897dee23ec147ea5bdd93610b0c565b91611868565b91611bbb610102565b80611bc581610370565b0390a3600190565b611bec905f3d8111611bf2575b611be48183610258565b810190611992565b5f611b7c565b503d611bda565b610fee565b610fb7565b611c1e905f9182916377efcdf960e01b835260048301610a81565b0390fd5b611c2c60e0610281565b90565b611c37611c22565b90602080808080808088611c49610e47565b815201611c54610e47565b815201611c5f610e47565b815201611c6a610e47565b815201611c75610e47565b815201611c80610e4f565b815201611c8b610e53565b81525050565b611c99611c2f565b90565b90611d4a611d416005611cad611c22565b94611cc4611cbc5f830161041c565b5f8801610ea0565b611cdc611cd36001830161041c565b60208801610ea0565b611cf4611ceb6002830161041c565b60408801610ea0565b611d0c611d036003830161041c565b60608801610ea0565b611d24611d1b6004830161041c565b60808801610ea0565b611d3b611d3283830161046a565b60a08801610ebc565b0161049c565b60c08401610eca565b565b611d5590611c9c565b90565b611d60611c91565b50611d6b6001611d4c565b9056fea264697066735822122061dec2e9008f97ca972f03a4eec34005900d74aebc7a4a04d423f139f5ebc99864736f6c634300081e0033a26469706673582212207e77646283ca68f991337865732fdbbecc0df4e8c8d25cf228d41d1e29f21a7b64736f6c634300081e0033","linkReferences":{}},"methodIdentifiers":{"createVoteContract()":"2ef76b00","createVoteContracts(uint256,uint256,uint256,uint256,uint256,uint256,uint32,address,bytes,uint256,uint32,bytes32,bytes32,bytes32)":"02d8e275","getContractsByMarket(uint256)":"31db74a0","marketContracts(uint256)":"7a1de44e"},"id":1}