{"abi":[{"type":"constructor","inputs":[{"name":"_optionA","type":"uint256","internalType":"uint256"},{"name":"_optionB","type":"uint256","internalType":"uint256"},{"name":"_rewards","type":"uint256","internalType":"uint256"},{"name":"_startTimestamp","type":"uint256","internalType":"uint256"},{"name":"_endTimestamp","type":"uint256","internalType":"uint256"},{"name":"_thresholdVotes","type":"uint32","internalType":"uint32"},{"name":"_creator","type":"address","internalType":"address"},{"name":"_hbarLockingContractAddress","type":"address","internalType":"address"},{"name":"_N","type":"bytes","internalType":"bytes"},{"name":"_t","type":"uint256","internalType":"uint256"},{"name":"_a","type":"uint32","internalType":"uint32"},{"name":"_skLocked","type":"bytes32","internalType":"bytes32"},{"name":"_hashedSK","type":"bytes32","internalType":"bytes32"},{"name":"_publicKey","type":"bytes32","internalType":"bytes32"}],"stateMutability":"nonpayable"},{"type":"function","name":"LockingContract","inputs":[],"outputs":[{"name":"","type":"address","internalType":"contract HBARlockingContract"}],"stateMutability":"view"},{"type":"function","name":"castVote","inputs":[{"name":"_userPublicKey","type":"uint256","internalType":"uint256"},{"name":"_option","type":"bytes","internalType":"bytes"},{"name":"_amount","type":"uint256","internalType":"uint256"}],"outputs":[],"stateMutability":"nonpayable"},{"type":"function","name":"claimRewards","inputs":[{"name":"proof","type":"bytes32[]","internalType":"bytes32[]"}],"outputs":[],"stateMutability":"nonpayable"},{"type":"function","name":"config","inputs":[],"outputs":[{"name":"optionA","type":"uint256","internalType":"uint256"},{"name":"optionB","type":"uint256","internalType":"uint256"},{"name":"rewards","type":"uint256","internalType":"uint256"},{"name":"startTimestamp","type":"uint256","internalType":"uint256"},{"name":"endTimestamp","type":"uint256","internalType":"uint256"},{"name":"thresholdVotes","type":"uint32","internalType":"uint32"},{"name":"creator","type":"address","internalType":"address"}],"stateMutability":"view"},{"type":"function","name":"data","inputs":[],"outputs":[{"name":"resolvedOption","type":"uint256","internalType":"uint256"},{"name":"unlockedSecret","type":"bytes32","internalType":"bytes32"},{"name":"totalVotes","type":"uint32","internalType":"uint32"},{"name":"solver","type":"address","internalType":"address"},{"name":"owner","type":"address","internalType":"address"},{"name":"optionACount","type":"uint256","internalType":"uint256"},{"name":"optionBCount","type":"uint256","internalType":"uint256"},{"name":"winnerMerkleTreeRoot","type":"bytes32","internalType":"bytes32"}],"stateMutability":"view"},{"type":"function","name":"deposits","inputs":[{"name":"","type":"address","internalType":"address"}],"outputs":[{"name":"","type":"uint256","internalType":"uint256"}],"stateMutability":"view"},{"type":"function","name":"encryptedVotes","inputs":[{"name":"","type":"uint256","internalType":"uint256"}],"outputs":[{"name":"","type":"bytes","internalType":"bytes"}],"stateMutability":"view"},{"type":"function","name":"finalizeVote","inputs":[{"name":"_optionACount","type":"uint256","internalType":"uint256"},{"name":"_optionBcount","type":"uint256","internalType":"uint256"},{"name":"_winnerMerkleTreeRoot","type":"bytes32","internalType":"bytes32"},{"name":"_addedRewards","type":"uint256","internalType":"uint256"}],"outputs":[],"stateMutability":"nonpayable"},{"type":"function","name":"getContractBalance","inputs":[],"outputs":[{"name":"","type":"uint256","internalType":"uint256"}],"stateMutability":"view"},{"type":"function","name":"getDoubleHashedSK","inputs":[],"outputs":[{"name":"","type":"bytes32","internalType":"bytes32"}],"stateMutability":"view"},{"type":"function","name":"getPublicParameters","inputs":[],"outputs":[{"name":"","type":"tuple","internalType":"struct CreateVote.PublicParameters","components":[{"name":"N","type":"bytes","internalType":"bytes"},{"name":"t","type":"uint256","internalType":"uint256"},{"name":"a","type":"uint32","internalType":"uint32"},{"name":"sk_locked","type":"bytes32","internalType":"bytes32"},{"name":"hashedSK","type":"bytes32","internalType":"bytes32"},{"name":"publicKey","type":"bytes32","internalType":"bytes32"}]}],"stateMutability":"view"},{"type":"function","name":"getVoteConfig","inputs":[],"outputs":[{"name":"","type":"tuple","internalType":"struct CreateVote.VoteConfig","components":[{"name":"optionA","type":"uint256","internalType":"uint256"},{"name":"optionB","type":"uint256","internalType":"uint256"},{"name":"rewards","type":"uint256","internalType":"uint256"},{"name":"startTimestamp","type":"uint256","internalType":"uint256"},{"name":"endTimestamp","type":"uint256","internalType":"uint256"},{"name":"thresholdVotes","type":"uint32","internalType":"uint32"},{"name":"creator","type":"address","internalType":"address"}]}],"stateMutability":"view"},{"type":"function","name":"getVoteData","inputs":[],"outputs":[{"name":"","type":"tuple","internalType":"struct CreateVote.VoteData","components":[{"name":"resolvedOption","type":"uint256","internalType":"uint256"},{"name":"unlockedSecret","type":"bytes32","internalType":"bytes32"},{"name":"totalVotes","type":"uint32","internalType":"uint32"},{"name":"solver","type":"address","internalType":"address"},{"name":"owner","type":"address","internalType":"address"},{"name":"optionACount","type":"uint256","internalType":"uint256"},{"name":"optionBCount","type":"uint256","internalType":"uint256"},{"name":"winnerMerkleTreeRoot","type":"bytes32","internalType":"bytes32"}]}],"stateMutability":"view"},{"type":"function","name":"pp","inputs":[],"outputs":[{"name":"N","type":"bytes","internalType":"bytes"},{"name":"t","type":"uint256","internalType":"uint256"},{"name":"a","type":"uint32","internalType":"uint32"},{"name":"sk_locked","type":"bytes32","internalType":"bytes32"},{"name":"hashedSK","type":"bytes32","internalType":"bytes32"},{"name":"publicKey","type":"bytes32","internalType":"bytes32"}],"stateMutability":"view"},{"type":"function","name":"verifySecret","inputs":[{"name":"_userSecret","type":"bytes32","internalType":"bytes32"}],"outputs":[{"name":"","type":"bool","internalType":"bool"}],"stateMutability":"nonpayable"},{"type":"function","name":"voters","inputs":[{"name":"","type":"address","internalType":"address"}],"outputs":[{"name":"","type":"uint256","internalType":"uint256"}],"stateMutability":"view"},{"type":"event","name":"PuzzleSolved","inputs":[{"name":"solver","type":"address","indexed":true,"internalType":"address"},{"name":"unlockedSecret","type":"bytes32","indexed":true,"internalType":"bytes32"}],"anonymous":false},{"type":"event","name":"VoteCast","inputs":[{"name":"voter","type":"address","indexed":true,"internalType":"address"},{"name":"userPublicKey","type":"uint256","indexed":true,"internalType":"uint256"},{"name":"amount","type":"uint256","indexed":true,"internalType":"uint256"},{"name":"option","type":"bytes","indexed":false,"internalType":"bytes"}],"anonymous":false},{"type":"event","name":"VoteFinalized","inputs":[{"name":"totalVotes","type":"uint256","indexed":true,"internalType":"uint256"},{"name":"resolvedOption","type":"uint256","indexed":true,"internalType":"uint256"},{"name":"rewards","type":"uint256","indexed":true,"internalType":"uint256"}],"anonymous":false},{"type":"event","name":"VoteLost","inputs":[{"name":"voter","type":"address","indexed":true,"internalType":"address"}],"anonymous":false},{"type":"error","name":"AlreadyVoted","inputs":[{"name":"","type":"address","internalType":"address"}]},{"type":"error","name":"DepositTooSmall","inputs":[{"name":"","type":"address","internalType":"address"}]},{"type":"error","name":"IncorrectSecretKey","inputs":[{"name":"","type":"bytes32","internalType":"bytes32"}]},{"type":"error","name":"InvalidMerkleProof","inputs":[{"name":"","type":"address","internalType":"address"}]},{"type":"error","name":"NotOwner","inputs":[{"name":"","type":"address","internalType":"address"}]},{"type":"error","name":"RewardsTooSmall","inputs":[{"name":"","type":"address","internalType":"address"},{"name":"","type":"uint256","internalType":"uint256"}]},{"type":"error","name":"StartTimestampMustBeBeforeEndTimestamp","inputs":[{"name":"startTimestamp","type":"uint256","internalType":"uint256"},{"name":"endTimestamp","type":"uint256","internalType":"uint256"}]},{"type":"error","name":"VoteAlreadyFinalized","inputs":[{"name":"","type":"address","internalType":"address"}]},{"type":"error","name":"VoteNotEnded","inputs":[{"name":"","type":"uint256","internalType":"uint256"}]},{"type":"error","name":"VoteNotStarted","inputs":[{"name":"","type":"uint256","internalType":"uint256"}]}],"bytecode":{"object":"0x6080604052346100425761002c6100146102e3565b9c9b909b9a919a999299989398979497969596610aa3565b610034610047565b61261a610d8a823961261a90f35b61004d565b60405190565b5f80fd5b601f801991011690565b634e487b7160e01b5f52604160045260245ffd5b9061007990610051565b810190811060018060401b0382111761009157604052565b61005b565b906100a96100a2610047565b928361006f565b565b5f80fd5b5f80fd5b90565b6100bf816100b3565b036100c657565b5f80fd5b905051906100d7826100b6565b565b63ffffffff1690565b6100eb816100d9565b036100f257565b5f80fd5b90505190610103826100e2565b565b60018060a01b031690565b61011990610105565b90565b61012581610110565b0361012c57565b5f80fd5b9050519061013d8261011c565b565b5f80fd5b5f80fd5b60018060401b0381116101635761015f602091610051565b0190565b61005b565b90825f9392825e0152565b9092919261018861018382610147565b610096565b938185526020850190828401116101a4576101a292610168565b565b610143565b9080601f830112156101c7578160206101c493519101610173565b90565b61013f565b90565b6101d8816101cc565b036101df57565b5f80fd5b905051906101f0826101cf565b565b91906101c0838203126102de5761020b815f85016100ca565b9261021982602083016100ca565b9261022783604084016100ca565b9261023581606085016100ca565b9261024382608083016100ca565b926102518360a084016100f6565b9261025f8160c08501610130565b9261026d8260e08301610130565b9261010082015160018060401b0381116102d9578361028d9184016101a9565b9261029c8161012085016100ca565b926102ab8261014083016100f6565b926102d66102bd8461016085016101e3565b936102cc8161018086016101e3565b936101a0016101e3565b90565b6100af565b6100ab565b6103016133a4803803806102f681610096565b9283398101906101f2565b909192939495969798999a9b9c9d565b90565b61032861032361032d92610105565b610311565b610105565b90565b61033990610314565b90565b61034590610330565b90565b5f1b90565b9061035e60018060a01b0391610348565b9181191691161790565b61037190610330565b90565b90565b9061038c61038761039392610368565b610374565b825461034d565b9055565b6103a0906100b3565b9052565b9160206103c59294936103be60408201965f830190610397565b0190610397565b565b90565b6103de6103d96103e3926103c7565b610311565b6100b3565b90565b6103ef90610110565b9052565b91602061041492949361040d60408201965f8301906103e6565b0190610397565b565b5f1c90565b60018060a01b031690565b61043261043791610416565b61041b565b90565b6104449054610426565b90565b61045090610314565b90565b61045c90610447565b90565b60e01b90565b9060208282031261047e5761047b915f016100ca565b90565b6100ab565b9190610496905f602085019401906103e6565b565b6104a0610047565b3d5f823e3d90fd5b6104b260e0610096565b90565b906104bf906100b3565b9052565b906104cd906100d9565b9052565b906104db90610110565b9052565b6104e990516100b3565b90565b906104f85f1991610348565b9181191691161790565b61051661051161051b926100b3565b610311565b6100b3565b90565b90565b9061053661053161053d92610502565b61051e565b82546104ec565b9055565b61054b90516100d9565b90565b9061055d63ffffffff91610348565b9181191691161790565b61057b610576610580926100d9565b610311565b6100d9565b90565b90565b9061059b6105966105a292610567565b610583565b825461054e565b9055565b6105b09051610110565b90565b60201b90565b906105cf640100000000600160c01b03916105b3565b9181191691161790565b6105e290610447565b90565b90565b906105fd6105f8610604926105d9565b6105e5565b82546105b9565b9055565b906106af60c060056106b59461062b5f82016106255f88016104df565b90610521565b6106446001820161063e602088016104df565b90610521565b61065d60028201610657604088016104df565b90610521565b61067660038201610670606088016104df565b90610521565b61068f60048201610689608088016104df565b90610521565b6106a78282016106a160a08801610541565b90610586565b0192016105a6565b906105e8565b565b906106c191610608565b565b6106cd60c0610096565b90565b52565b906106dd906101cc565b9052565b5190565b5190565b634e487b7160e01b5f52602260045260245ffd5b906001600283049216801561071d575b602083101461071857565b6106e9565b91607f169161070d565b5f5260205f2090565b601f602091010490565b1b90565b919060086107599102916107535f198461073a565b9261073a565b9181191691161790565b919061077961077461078193610502565b61051e565b90835461073e565b9055565b5f90565b61079b91610795610785565b91610763565b565b5b8181106107a9575050565b806107b65f600193610789565b0161079e565b9190601f81116107cc575b505050565b6107d86107fd93610727565b9060206107e484610730565b83019310610805575b6107f690610730565b019061079d565b5f80806107c7565b91506107f6819290506107ed565b1c90565b90610827905f1990600802610813565b191690565b8161083691610817565b906002021790565b90610848816106e5565b9060018060401b0382116109065761086a8261086485546106fd565b856107bc565b602090601f831160011461089e5791809161088d935f92610892575b505061082c565b90555b565b90915001515f80610886565b601f198316916108ad85610727565b925f5b8181106108ee575091600293918560019694106108d4575b50505002019055610890565b6108e4910151601f841690610817565b90555f80806108c8565b919360206001819287870151815501950192016108b0565b61005b565b906109159161083e565b565b61092190516101cc565b90565b61092d906101cc565b90565b61093990610416565b90565b9061095161094c61095892610924565b610930565b82546104ec565b9055565b906109eb60a060056109f19461097f5f82016109795f88016106e1565b9061090b565b61099860018201610992602088016104df565b90610521565b6109b1600282016109ab60408801610541565b90610586565b6109ca600382016109c460608801610917565b9061093c565b6109e3600482016109dd60808801610917565b9061093c565b019201610917565b9061093c565b565b906109fd9161095c565b565b90610a14610a0f610a1b926105d9565b6105e5565b825461034d565b9055565b610a2890610447565b90565b151590565b610a3981610a2b565b03610a4057565b5f80fd5b90505190610a5182610a30565b565b90602082820312610a6c57610a69915f01610a44565b90565b6100ab565b604090610a9a610aa19496959396610a9060608401985f8501906103e6565b60208301906103e6565b0190610397565b565b90949392919c989a96610abc610ac2919d99979d61033c565b5f610377565b81610ad5610acf856100b3565b916100b3565b1015610d6a578c610af2610aec6305f5e1006103ca565b916100b3565b10610d4a57610b3660208d610b0e610b095f61043a565b610453565b610b2b5f630fcd4a47610b1f610047565b9687958694859361045f565b835260048301610483565b03925af1908115610d45578e905f92610d0d575b50610b57610b5d916100b3565b916100b3565b10610cee5795610c18610c3396610bf68f60209f9e9c988f90610c439f9c610bef92610c3c9f9a610c2a9c610bd4610bdd92610bcb610c219e610bc25f9b610bb9610be69a9b91939597999b610bb16104a8565b9e8f016104b5565b60208d016104b5565b60408b016104b5565b606089016104b5565b608087016104b5565b60a085016104c3565b60c083016104d1565b60016106b7565b999791939597610c10610c076106c3565b9b5f8d016106d0565b8d8b016104b5565b604089016104c3565b606087016106d3565b608085016106d3565b60a083016106d3565b600e6109f3565b610c657316c9889e863ac61880c9268500b1ba323493539260036007016109ff565b610c76610c715f61043a565b610453565b610ca05f63eee0b489610cab610c8b30610a1f565b97610c94610047565b9889978896879561045f565b855260048501610a71565b03925af18015610ce957610cbd575b50565b610cdd9060203d8111610ce2575b610cd5818361006f565b810190610a53565b610cba565b503d610ccb565b610498565b610d098c5f918291638ff398d160e01b835260048301610483565b0390fd5b610b5d919250610d36610b579160203d8111610d3e575b610d2e818361006f565b810190610465565b929150610b4a565b503d610d24565b610498565b8c8c610d665f928392633678013760e21b8452600484016103f3565b0390fd5b50610d855f92839263bcc509ad60e01b8452600484016103a4565b0390fdfe60806040526004361015610013575b6110b5565b61001d5f3561011c565b80630270bea0146101175780630f3c34d114610112578063291ae9b31461010d5780636f9fb98a1461010857806373d4a13a14610103578063766c0971146100fe57806379502c55146100f957806391327ec6146100f457806393ab0b72146100ef57806395bedd4a146100ea5780639900a416146100e5578063a3ec138d146100e0578063abac7b5e146100db578063fc7e286d146100d6578063fde315bd146100d15763ff23ad3a0361000e57611080565b610fb8565b610ed7565b610e89565b610e0f565b610d36565b610cbb565b610c71565b610b77565b610937565b61083e565b610763565b61055a565b610504565b6103d0565b61023f565b60e01c90565b60405190565b5f80fd5b5f80fd5b5f91031261013a57565b61012c565b90565b61014b9061013f565b9052565b90565b61015b9061014f565b9052565b63ffffffff1690565b6101719061015f565b9052565b60018060a01b031690565b61018990610175565b90565b61019590610180565b9052565b9060e080610227936101b15f8201515f860190610142565b6101c360208201516020860190610152565b6101d560408201516040860190610168565b6101e76060820151606086019061018c565b6101f96080820151608086019061018c565b61020b60a082015160a0860190610142565b61021d60c082015160c0860190610142565b0151910190610152565b565b919061023d905f6101008501940190610199565b565b3461026f5761024f366004610130565b61026b61025a61125d565b610262610122565b91829182610229565b0390f35b610128565b5f80fd5b5f80fd5b601f801991011690565b634e487b7160e01b5f52604160045260245ffd5b906102a49061027c565b810190811067ffffffffffffffff8211176102be57604052565b610286565b906102d66102cf610122565b928361029a565b565b67ffffffffffffffff81116102f05760208091020190565b610286565b5f80fd5b6103028161014f565b0361030957565b5f80fd5b9050359061031a826102f9565b565b9092919261033161032c826102d8565b6102c3565b938185526020808601920283019281841161036e57915b8383106103555750505050565b60208091610363848661030d565b815201920191610348565b6102f5565b9080601f830112156103915781602061038e9335910161031c565b90565b610278565b906020828203126103c6575f82013567ffffffffffffffff81116103c1576103be9201610373565b90565b610274565b61012c565b5f0190565b346103fe576103e86103e3366004610396565b61144e565b6103f0610122565b806103fa816103cb565b0390f35b610128565b61040c8161013f565b0361041357565b5f80fd5b9050359061042482610403565b565b5f80fd5b67ffffffffffffffff81116104485761044460209161027c565b0190565b610286565b90825f939282370152565b9092919261046d6104688261042a565b6102c3565b93818552602085019082840111610489576104879261044d565b565b610426565b9080601f830112156104ac578160206104a993359101610458565b90565b610278565b90916060828403126104ff576104c9835f8401610417565b9260208301359067ffffffffffffffff82116104fa576104ee816104f793860161048e565b93604001610417565b90565b610274565b61012c565b346105335761051d6105173660046104b1565b91611920565b610525610122565b8061052f816103cb565b0390f35b610128565b6105419061013f565b9052565b9190610558905f60208501940190610538565b565b3461058a5761056a366004610130565b610586610575611bea565b61057d610122565b91829182610545565b0390f35b610128565b5f1c90565b90565b6105a36105a89161058f565b610594565b90565b6105b59054610597565b90565b90565b6105c76105cc9161058f565b6105b8565b90565b6105d990546105bb565b90565b63ffffffff1690565b6105f16105f69161058f565b6105dc565b90565b61060390546105e5565b90565b60201c90565b60018060a01b031690565b61062361062891610606565b61060c565b90565b6106359054610617565b90565b6106446106499161058f565b61060c565b90565b6106569054610638565b90565b6007906106675f83016105ab565b91610674600182016105cf565b91610681600283016105f9565b9161068e6002820161062b565b9161069b6003830161064c565b916106a8600482016105ab565b916106c160066106ba600585016105ab565b93016105cf565b90565b6106cd9061014f565b9052565b6106da9061015f565b9052565b6106e790610180565b9052565b959391989796949290986101008701995f880161070791610538565b60208701610714916106c4565b60408601610721916106d1565b6060850161072e916106de565b6080840161073b916106de565b60a0830161074891610538565b60c0820161075591610538565b60e001610761916106c4565b565b3461079d57610773366004610130565b61079961077e610659565b94610790989698949194939293610122565b988998896106eb565b0390f35b610128565b1c90565b60018060a01b031690565b6107c19060086107c693026107a2565b6107a6565b90565b906107d491546107b1565b90565b6107e25f5f906107c9565b90565b90565b6107fc6107f761080192610175565b6107e5565b610175565b90565b61080d906107e8565b90565b61081990610804565b90565b61082590610810565b9052565b919061083c905f6020850194019061081c565b565b3461086e5761084e366004610130565b61086a6108596107d7565b610861610122565b91829182610829565b0390f35b610128565b60016108805f82016105ab565b9161088d600183016105ab565b9161089a600282016105ab565b916108a7600383016105ab565b916108b4600482016105ab565b916108cc60056108c58185016105f9565b930161062b565b90565b949290979695939160e08601985f87016108e891610538565b602086016108f591610538565b6040850161090291610538565b6060840161090f91610538565b6080830161091c91610538565b60a08201610929916106d1565b60c001610935916106de565b565b3461096e57610947366004610130565b61096a610952610873565b93610961979597939193610122565b978897886108cf565b0390f35b610128565b634e487b7160e01b5f52602260045260245ffd5b90600160028304921680156109a7575b60208310146109a257565b610973565b91607f1691610997565b60209181520190565b5f5260205f2090565b905f92918054906109dd6109d683610987565b80946109b1565b916001811690815f14610a3457506001146109f8575b505050565b610a0591929394506109ba565b915f925b818410610a1c57505001905f80806109f3565b60018160209295939554848601520191019290610a09565b92949550505060ff19168252151560200201905f80806109f3565b90610a59916109c3565b90565b90610a7c610a7592610a6c610122565b93848092610a4f565b038361029a565b565b600e90610a8c5f8301610a5c565b91610a99600182016105ab565b91610aa6600283016105f9565b91610ab3600382016105cf565b91610acc6005610ac5600485016105cf565b93016105cf565b90565b5190565b60209181520190565b90825f9392825e0152565b610b06610b0f602093610b1493610afd81610acf565b93848093610ad3565b95869101610adc565b61027c565b0190565b9196959394610b64610b7596610b5a60a096610b50610b45610b6e9760c08a01908a82035f8c0152610ae7565b9c6020890190610538565b60408701906106d1565b60608501906106c4565b60808301906106c4565b01906106c4565b565b34610bae57610b87366004610130565b610baa610b92610a7e565b92610ba1969496929192610122565b96879687610b18565b0390f35b610128565b610bd2610bdb602093610be093610bc981610acf565b938480936109b1565b95869101610adc565b61027c565b0190565b90610c569060a080610c0360c084015f8701518582035f870152610bb3565b94610c1660208201516020860190610142565b610c2860408201516040860190610168565b610c3a60608201516060860190610152565b610c4c60808201516080860190610152565b0151910190610152565b90565b610c6e9160208201915f818403910152610be4565b90565b34610ca157610c81366004610130565b610c9d610c8c611d9f565b610c94610122565b91829182610c59565b0390f35b610128565b9190610cb9905f602085019401906106c4565b565b34610ceb57610ccb366004610130565b610ce7610cd6611db9565b610cde610122565b91829182610ca6565b0390f35b610128565b608081830312610d3157610d06825f8301610417565b92610d2e610d178460208501610417565b93610d25816040860161030d565b93606001610417565b90565b61012c565b34610d6857610d52610d49366004610cf0565b92919091611e7e565b610d5a610122565b80610d64816103cb565b0390f35b610128565b610d7681610180565b03610d7d57565b5f80fd5b90503590610d8e82610d6d565b565b90602082820312610da957610da6915f01610d81565b90565b61012c565b610db790610804565b90565b90610dc490610dae565b5f5260205260405f2090565b610de0906008610de593026107a2565b610594565b90565b90610df39154610dd0565b90565b610e0c90610e076014915f92610dba565b610de8565b90565b34610e3f57610e3b610e2a610e25366004610d90565b610df6565b610e32610122565b91829182610545565b0390f35b610128565b90602082820312610e5d57610e5a915f0161030d565b90565b61012c565b151590565b610e7090610e62565b9052565b9190610e87905f60208501940190610e67565b565b34610eb957610eb5610ea4610e9f366004610e44565b6120fe565b610eac610122565b91829182610e74565b0390f35b610128565b610ed490610ecf6016915f92610dba565b610de8565b90565b34610f0757610f03610ef2610eed366004610d90565b610ebe565b610efa610122565b91829182610545565b0390f35b610128565b90602082820312610f2557610f22915f01610417565b90565b61012c565b610f3e610f39610f439261013f565b6107e5565b61013f565b90565b90610f5090610f2a565b5f5260205260405f2090565b634e487b7160e01b5f525f60045260245ffd5b905f10610f8257610f7f90610a5c565b90565b610f5c565b610f9d90610f986015915f92610f46565b610f6f565b90565b610fb59160208201915f818403910152610ae7565b90565b34610fe857610fe4610fd3610fce366004610f0c565b610f87565b610fdb610122565b91829182610fa0565b0390f35b610128565b9060c080611069936110055f8201515f860190610142565b61101760208201516020860190610142565b61102960408201516040860190610142565b61103b60608201516060860190610142565b61104d60808201516080860190610142565b61105f60a082015160a0860190610168565b015191019061018c565b565b919061107e905f60e08501940190610fed565b565b346110b057611090366004610130565b6110ac61109b612492565b6110a3610122565b9182918261106b565b0390f35b610128565b5f80fd5b6110c46101006102c3565b90565b5f90565b5f90565b5f90565b5f90565b6110df6110b9565b90602080808080808080896110f26110c7565b8152016110fd6110cb565b8152016111086110cf565b8152016111136110d3565b81520161111e6110d3565b8152016111296110c7565b8152016111346110c7565b81520161113f6110cb565b81525050565b61114d6110d7565b90565b9061115a9061013f565b9052565b906111689061014f565b9052565b906111769061015f565b9052565b9061118490610180565b9052565b9061124f61124660066111996110b9565b946111b06111a85f83016105ab565b5f8801611150565b6111c86111bf600183016105cf565b6020880161115e565b6111e06111d7600283016105f9565b6040880161116c565b6111f86111ef6002830161062b565b6060880161117a565b6112106112076003830161064c565b6080880161117a565b61122861121f600483016105ab565b60a08801611150565b611240611237600583016105ab565b60c08801611150565b016105cf565b60e0840161115e565b565b61125a90611188565b90565b611265611145565b506112706007611251565b90565b90565b61128a61128561128f92611273565b6107e5565b61013f565b90565b91906112a5905f602085019401906106de565b565b9160206112c89294936112c160408201965f8301906106de565b0190610538565b565b60200190565b90565b6112df6112e49161014f565b6112d0565b9052565b6112f4816020936112d3565b0190565b90611320611304610122565b80936113146020830191826112e8565b9081038252038361029a565b565b634e487b7160e01b5f52601160045260245ffd5b61134561134b9193929361013f565b9261013f565b9161135783820261013f565b92818404149015171561136657565b611322565b634e487b7160e01b5f52601260045260245ffd5b61138b6113919161013f565b9161013f565b90811561139c570490565b61136b565b6113b06113b69193929361013f565b9261013f565b82018092116113c157565b611322565b5f1b90565b906113d75f19916113c6565b9181191691161790565b90565b906113f96113f461140092610f2a565b6113e1565b82546113cb565b9055565b6114106114159161058f565b6107a6565b90565b6114229054611404565b90565b5f80fd5b60e01b90565b5f91031261143957565b61012c565b611446610122565b3d5f823e3d90fd5b61146261145d60163390610dba565b6105ab565b90816114766114705f611276565b9161013f565b146115f9576114f06114f6916114c9336114b186916114a2611496610122565b938492602084016112a7565b6020820181038252038261029a565b6114c36114bd82610acf565b916112ca565b206112f8565b6114db6114d582610acf565b916112ca565b206114e960066007016105cf565b90916124a8565b15610e62565b6115da5761152b90611525611509611bea565b6115208361151a60026001016105ab565b90611336565b61137f565b906113a1565b6115486115375f611276565b61154360163390610dba565b6113e4565b6115596115545f611418565b610810565b9063ce7200ba90339092803b156115d5576115875f809461159261157b610122565b97889687958694611429565b8452600484016112a7565b03925af180156115d0576115a4575b50565b6115c3905f3d81116115c9575b6115bb818361029a565b81019061142f565b5f6115a1565b503d6115b1565b61143e565b611425565b6115f5335f91829163a14aa8d160e01b835260048301611292565b0390fd5b611614335f918291638ff398d160e01b835260048301611292565b0390fd5b9050519061162582610403565b565b906020828203126116405761163d915f01611618565b90565b61012c565b61164e9061015f565b63ffffffff811461165f5760010190565b611322565b9061167363ffffffff916113c6565b9181191691161790565b61169161168c6116969261015f565b6107e5565b61015f565b90565b90565b906116b16116ac6116b89261167d565b611699565b8254611664565b9055565b601f602091010490565b1b90565b919060086116e59102916116df5f19846116c6565b926116c6565b9181191691161790565b919061170561170061170d93610f2a565b6113e1565b9083546116ca565b9055565b5f90565b61172791611721611711565b916116ef565b565b5b818110611735575050565b806117425f600193611715565b0161172a565b9190601f8111611758575b505050565b611764611789936109ba565b906020611770846116bc565b83019310611791575b611782906116bc565b0190611729565b5f8080611753565b915061178281929050611779565b906117af905f19906008026107a2565b191690565b816117be9161179f565b906002021790565b906117d081610acf565b9067ffffffffffffffff8211611890576117f4826117ee8554610987565b85611748565b602090601f831160011461182857918091611817935f9261181c575b50506117b4565b90555b565b90915001515f80611810565b601f19831691611837856109ba565b925f5b8181106118785750916002939185600196941061185e575b5050500201905561181a565b61186e910151601f84169061179f565b90555f8080611852565b9193602060018192878701518155019501920161183a565b610286565b9061189f916117c6565b565b6118aa90610804565b90565b6118b681610e62565b036118bd57565b5f80fd5b905051906118ce826118ad565b565b906020828203126118e9576118e6915f016118c1565b90565b61012c565b60409061191761191e949695939661190d60608401985f8501906106de565b60208301906106de565b0190610538565b565b9161193561193060143390610dba565b6105ab565b6119476119415f611276565b9161013f565b03611bcb5761198d602061196261195d5f611418565b610810565b630fcd4a47906119825f3393611976610122565b96879586948593611429565b835260048301611292565b03925af1908115611bc6575f91611b98575b506119b26119ac8361013f565b9161013f565b10611b7957426119d66119d06119cb60036001016105ab565b61013f565b9161013f565b108015611b53575b611b2857611a0160026007016119fb6119f6826105f9565b611645565b9061169c565b611a1683611a1160143390610dba565b6113e4565b611a2b82611a2660158690610f46565b611895565b611a4081611a3b60163390610dba565b6113e4565b611a51611a4c5f611418565b610810565b602063eee0b489913390611a815f611a68306118a1565b95611a8c88611a75610122565b98899788968795611429565b8552600485016118ee565b03925af18015611b2357611af7575b503392909192611af2611ae0611ada611ad47f4be73bfc1c7b94f7cc1fa60e17c015e2fe5ce36b8bb6549ce1a0534b7ec3ab1c94610dae565b94610f2a565b94610f2a565b94611ae9610122565b91829182610fa0565b0390a4565b611b179060203d8111611b1c575b611b0f818361029a565b8101906118d0565b611a9b565b503d611b05565b61143e565b611b4f611b3860036001016105ab565b5f9182916354fbd5ef60e01b835260048301610545565b0390fd5b5042611b73611b6d611b6860046001016105ab565b61013f565b9161013f565b116119de565b611b94335f918291638ff398d160e01b835260048301611292565b0390fd5b611bb9915060203d8111611bbf575b611bb1818361029a565b810190611627565b5f61199f565b503d611ba7565b61143e565b611be6335f918291633512759d60e21b835260048301611292565b0390fd5b611bf2611711565b50611c3b6020611c09611c045f611418565b610810565b634603798390611c30611c1b306118a1565b92611c24610122565b95869485938493611429565b835260048301611292565b03915afa908115611c7f575f91611c51575b5090565b611c72915060203d8111611c78575b611c6a818361029a565b810190611627565b5f611c4d565b503d611c60565b61143e565b611c8e60c06102c3565b90565b606090565b611c9e611c84565b906020808080808087611caf611c91565b815201611cba6110c7565b815201611cc56110cf565b815201611cd06110cb565b815201611cdb6110cb565b815201611ce66110cb565b81525050565b611cf4611c96565b90565b52565b90611d91611d886005611d0b611c84565b94611d22611d1a5f8301610a5c565b5f8801611cf7565b611d3a611d31600183016105ab565b60208801611150565b611d52611d49600283016105f9565b6040880161116c565b611d6a611d61600383016105cf565b6060880161115e565b611d82611d79600483016105cf565b6080880161115e565b016105cf565b60a0840161115e565b565b611d9c90611cfa565b90565b611da7611cec565b50611db2600e611d93565b90565b5f90565b611dc1611db5565b50611de9611df8611dd56004600e016105cf565b611ddd610122565b928391602083016112e8565b6020820181038252038261029a565b611e0a611e0482610acf565b916112ca565b2090565b611e22611e1d611e2792611273565b6113c6565b61014f565b90565b611e339061014f565b90565b611e3f9061058f565b90565b90611e57611e52611e5e92611e2a565b611e36565b82546113cb565b9055565b611e76611e71611e7b9261015f565b6107e5565b61013f565b90565b929133611e9f611e99611e94600360070161064c565b610180565b91610180565b0361202c5742611ec3611ebd611eb860046001016105ab565b61013f565b9161013f565b1061200157611ed560066007016105cf565b611eef611ee9611ee45f611e0e565b61014f565b9161014f565b03611fda5783611f2f92611f4c95611f0f611f098361013f565b9161013f565b115f14611fc75750611f24905f6007016113e4565b5b6006600701611e42565b611f46600260010191611f41836105ab565b6113a1565b906113e4565b611f5960026007016105f9565b611f655f6007016105ab565b611f7260026001016105ab565b90611faf611fa9611fa37f261d46d7f08568cdea1c49c29df898cb08eecb2059d632030361815c60f13bc495611e62565b92610f2a565b92610f2a565b92611fb8610122565b80611fc2816103cb565b0390a4565b611fd591505f6007016113e4565b611f25565b611ffd611fe6306118a1565b5f918291639433374960e01b835260048301611292565b0390fd5b61202861201160046001016105ab565b5f91829163121d3f5760e01b835260048301610545565b0390fd5b612047335f91829163245aecd360e01b835260048301611292565b0390fd5b5f90565b61206361205e61206892611273565b6107e5565b610175565b90565b6120749061204f565b90565b60201b90565b90612093640100000000600160c01b0391612077565b9181191691161790565b90565b906120b56120b06120bc92610dae565b61209d565b825461207d565b9055565b90565b6120d76120d26120dc926120c0565b6107e5565b61013f565b90565b90565b6120f66120f16120fb926120df565b6107e5565b61013f565b90565b61210661204b565b5061215e61216d6121286121378461211c610122565b928391602083016112e8565b6020820181038252038261029a565b61214961214382610acf565b916112ca565b20612152610122565b928391602083016112e8565b6020820181038252038261029a565b61217f61217982610acf565b916112ca565b20612188611db9565b90612196600260070161062b565b6121b06121aa6121a55f61206b565b610180565b91610180565b14155f146121f7576121c56121cb919261014f565b9161014f565b145f146121d85750600190565b6121f3905f9182916377efcdf960e01b835260048301610ca6565b0390fd5b61220461220a919261014f565b9161014f565b145f1461233d5761221f816001600701611e42565b61222d3360026007016120a0565b61223e6122395f611418565b610810565b63ce7200ba3361227761226761225760026001016105ab565b612261600a6120c3565b90611336565b61227160646120e2565b9061137f565b92803b156123385761229c5f80946122a7612290610122565b97889687958694611429565b8452600484016112a7565b03925af1801561233357612307575b5033906122ec6122e67f8c43435d00d84a08dc7aaa1aeecdd17d35ba5b16a2c50897dee23ec147ea5bdd93610dae565b91611e2a565b916122f5610122565b806122ff816103cb565b0390a3600190565b612326905f3d811161232c575b61231e818361029a565b81019061142f565b5f6122b6565b503d612314565b61143e565b611425565b612358905f9182916377efcdf960e01b835260048301610ca6565b0390fd5b61236660e06102c3565b90565b61237161235c565b906020808080808080886123836110c7565b81520161238e6110c7565b8152016123996110c7565b8152016123a46110c7565b8152016123af6110c7565b8152016123ba6110cf565b8152016123c56110d3565b81525050565b6123d3612369565b90565b9061248461247b60056123e761235c565b946123fe6123f65f83016105ab565b5f8801611150565b61241661240d600183016105ab565b60208801611150565b61242e612425600283016105ab565b60408801611150565b61244661243d600383016105ab565b60608801611150565b61245e612455600483016105ab565b60808801611150565b61247561246c8383016105f9565b60a0880161116c565b0161062b565b60c0840161117a565b565b61248f906123d6565b90565b61249a6123cb565b506124a56001612486565b90565b6124c26124ce92936124c8926124bc61204b565b50612526565b9261014f565b9161014f565b1490565b60016124de910161013f565b90565b5190565b634e487b7160e01b5f52603260045260245ffd5b90612503826124e1565b811015612514576020809102010190565b6124e5565b612523905161014f565b90565b9190612530611db5565b5061253a5f611276565b905b8161255761255161254c876124e1565b61013f565b9161013f565b10156125895761257d612583916125776125728786906124f9565b612519565b90612590565b916124d2565b9061253c565b9192505090565b612598611db5565b50806125ac6125a68461014f565b9161014f565b105f146125c157906125bd916125cf565b5b90565b6125ca916125cf565b6125be565b6125d7611db5565b505f5260205260405f209056fea26469706673582212203b8e520ab8947a43c86e26097e2034583e8adf9789de9ac64298b0755fe76ef164736f6c634300081e0033","linkReferences":{}},"methodIdentifiers":{"LockingContract()":"766c0971","castVote(uint256,bytes,uint256)":"291ae9b3","claimRewards(bytes32[])":"0f3c34d1","config()":"79502c55","data()":"73d4a13a","deposits(address)":"fc7e286d","encryptedVotes(uint256)":"fde315bd","finalizeVote(uint256,uint256,bytes32,uint256)":"9900a416","getContractBalance()":"6f9fb98a","getDoubleHashedSK()":"95bedd4a","getPublicParameters()":"93ab0b72","getVoteConfig()":"ff23ad3a","getVoteData()":"0270bea0","pp()":"91327ec6","verifySecret(bytes32)":"abac7b5e","voters(address)":"a3ec138d"},"id":2}