{"abi":[{"type":"constructor","inputs":[{"name":"_optionA","type":"uint256","internalType":"uint256"},{"name":"_optionB","type":"uint256","internalType":"uint256"},{"name":"_rewards","type":"uint256","internalType":"uint256"},{"name":"_startTimestamp","type":"uint256","internalType":"uint256"},{"name":"_endTimestamp","type":"uint256","internalType":"uint256"},{"name":"_thresholdVotes","type":"uint32","internalType":"uint32"},{"name":"_creator","type":"address","internalType":"address"},{"name":"_hbarLockingContractAddress","type":"address","internalType":"address"},{"name":"_N","type":"bytes","internalType":"bytes"},{"name":"_t","type":"uint256","internalType":"uint256"},{"name":"_a","type":"uint32","internalType":"uint32"},{"name":"_skLocked","type":"bytes32","internalType":"bytes32"},{"name":"_hashedSK","type":"bytes32","internalType":"bytes32"},{"name":"_publicKey","type":"bytes32","internalType":"bytes32"},{"name":"_question","type":"string","internalType":"string"},{"name":"_description","type":"string","internalType":"string"}],"stateMutability":"nonpayable"},{"type":"function","name":"LockingContract","inputs":[],"outputs":[{"name":"","type":"address","internalType":"contract HBARlockingContract"}],"stateMutability":"view"},{"type":"function","name":"castVote","inputs":[{"name":"_userPublicKey","type":"uint256","internalType":"uint256"},{"name":"_option","type":"bytes","internalType":"bytes"},{"name":"_amount","type":"uint256","internalType":"uint256"}],"outputs":[],"stateMutability":"nonpayable"},{"type":"function","name":"claimRewards","inputs":[{"name":"proof","type":"bytes32[]","internalType":"bytes32[]"}],"outputs":[],"stateMutability":"nonpayable"},{"type":"function","name":"config","inputs":[],"outputs":[{"name":"optionA","type":"uint256","internalType":"uint256"},{"name":"optionB","type":"uint256","internalType":"uint256"},{"name":"rewards","type":"uint256","internalType":"uint256"},{"name":"startTimestamp","type":"uint256","internalType":"uint256"},{"name":"endTimestamp","type":"uint256","internalType":"uint256"},{"name":"thresholdVotes","type":"uint32","internalType":"uint32"},{"name":"creator","type":"address","internalType":"address"},{"name":"question","type":"string","internalType":"string"},{"name":"description","type":"string","internalType":"string"}],"stateMutability":"view"},{"type":"function","name":"data","inputs":[],"outputs":[{"name":"resolvedOption","type":"uint256","internalType":"uint256"},{"name":"unlockedSecret","type":"bytes32","internalType":"bytes32"},{"name":"totalVotes","type":"uint32","internalType":"uint32"},{"name":"solver","type":"address","internalType":"address"},{"name":"owner","type":"address","internalType":"address"},{"name":"optionACount","type":"uint256","internalType":"uint256"},{"name":"optionBCount","type":"uint256","internalType":"uint256"},{"name":"winnerMerkleTreeRoot","type":"bytes32","internalType":"bytes32"}],"stateMutability":"view"},{"type":"function","name":"deposits","inputs":[{"name":"","type":"address","internalType":"address"}],"outputs":[{"name":"","type":"uint256","internalType":"uint256"}],"stateMutability":"view"},{"type":"function","name":"encryptedVotes","inputs":[{"name":"","type":"uint256","internalType":"uint256"}],"outputs":[{"name":"","type":"bytes","internalType":"bytes"}],"stateMutability":"view"},{"type":"function","name":"finalizeVote","inputs":[{"name":"_optionACount","type":"uint256","internalType":"uint256"},{"name":"_optionBcount","type":"uint256","internalType":"uint256"},{"name":"_winnerMerkleTreeRoot","type":"bytes32","internalType":"bytes32"},{"name":"_addedRewards","type":"uint256","internalType":"uint256"}],"outputs":[],"stateMutability":"nonpayable"},{"type":"function","name":"getContractBalance","inputs":[],"outputs":[{"name":"","type":"uint256","internalType":"uint256"}],"stateMutability":"view"},{"type":"function","name":"getDoubleHashedSK","inputs":[],"outputs":[{"name":"","type":"bytes32","internalType":"bytes32"}],"stateMutability":"view"},{"type":"function","name":"getPublicParameters","inputs":[],"outputs":[{"name":"","type":"tuple","internalType":"struct CreateVote.PublicParameters","components":[{"name":"N","type":"bytes","internalType":"bytes"},{"name":"t","type":"uint256","internalType":"uint256"},{"name":"a","type":"uint32","internalType":"uint32"},{"name":"sk_locked","type":"bytes32","internalType":"bytes32"},{"name":"hashedSK","type":"bytes32","internalType":"bytes32"},{"name":"publicKey","type":"bytes32","internalType":"bytes32"}]}],"stateMutability":"view"},{"type":"function","name":"getVoteConfig","inputs":[],"outputs":[{"name":"","type":"tuple","internalType":"struct CreateVote.VoteConfig","components":[{"name":"optionA","type":"uint256","internalType":"uint256"},{"name":"optionB","type":"uint256","internalType":"uint256"},{"name":"rewards","type":"uint256","internalType":"uint256"},{"name":"startTimestamp","type":"uint256","internalType":"uint256"},{"name":"endTimestamp","type":"uint256","internalType":"uint256"},{"name":"thresholdVotes","type":"uint32","internalType":"uint32"},{"name":"creator","type":"address","internalType":"address"},{"name":"question","type":"string","internalType":"string"},{"name":"description","type":"string","internalType":"string"}]}],"stateMutability":"view"},{"type":"function","name":"getVoteData","inputs":[],"outputs":[{"name":"","type":"tuple","internalType":"struct CreateVote.VoteData","components":[{"name":"resolvedOption","type":"uint256","internalType":"uint256"},{"name":"unlockedSecret","type":"bytes32","internalType":"bytes32"},{"name":"totalVotes","type":"uint32","internalType":"uint32"},{"name":"solver","type":"address","internalType":"address"},{"name":"owner","type":"address","internalType":"address"},{"name":"optionACount","type":"uint256","internalType":"uint256"},{"name":"optionBCount","type":"uint256","internalType":"uint256"},{"name":"winnerMerkleTreeRoot","type":"bytes32","internalType":"bytes32"}]}],"stateMutability":"view"},{"type":"function","name":"pp","inputs":[],"outputs":[{"name":"N","type":"bytes","internalType":"bytes"},{"name":"t","type":"uint256","internalType":"uint256"},{"name":"a","type":"uint32","internalType":"uint32"},{"name":"sk_locked","type":"bytes32","internalType":"bytes32"},{"name":"hashedSK","type":"bytes32","internalType":"bytes32"},{"name":"publicKey","type":"bytes32","internalType":"bytes32"}],"stateMutability":"view"},{"type":"function","name":"verifySecret","inputs":[{"name":"_userSecret","type":"bytes32","internalType":"bytes32"}],"outputs":[{"name":"","type":"bool","internalType":"bool"}],"stateMutability":"nonpayable"},{"type":"function","name":"voters","inputs":[{"name":"","type":"address","internalType":"address"}],"outputs":[{"name":"","type":"uint256","internalType":"uint256"}],"stateMutability":"view"},{"type":"event","name":"PuzzleSolved","inputs":[{"name":"solver","type":"address","indexed":true,"internalType":"address"},{"name":"unlockedSecret","type":"bytes32","indexed":true,"internalType":"bytes32"}],"anonymous":false},{"type":"event","name":"VoteCast","inputs":[{"name":"voter","type":"address","indexed":true,"internalType":"address"},{"name":"userPublicKey","type":"uint256","indexed":true,"internalType":"uint256"},{"name":"amount","type":"uint256","indexed":true,"internalType":"uint256"},{"name":"option","type":"bytes","indexed":false,"internalType":"bytes"}],"anonymous":false},{"type":"event","name":"VoteFinalized","inputs":[{"name":"totalVotes","type":"uint256","indexed":true,"internalType":"uint256"},{"name":"resolvedOption","type":"uint256","indexed":true,"internalType":"uint256"},{"name":"rewards","type":"uint256","indexed":true,"internalType":"uint256"}],"anonymous":false},{"type":"event","name":"VoteLost","inputs":[{"name":"voter","type":"address","indexed":true,"internalType":"address"}],"anonymous":false},{"type":"error","name":"AlreadyVoted","inputs":[{"name":"","type":"address","internalType":"address"}]},{"type":"error","name":"DepositTooSmall","inputs":[{"name":"","type":"address","internalType":"address"}]},{"type":"error","name":"IncorrectSecretKey","inputs":[{"name":"","type":"bytes32","internalType":"bytes32"}]},{"type":"error","name":"InvalidMerkleProof","inputs":[{"name":"","type":"address","internalType":"address"}]},{"type":"error","name":"NotOwner","inputs":[{"name":"","type":"address","internalType":"address"}]},{"type":"error","name":"RewardsTooSmall","inputs":[{"name":"","type":"address","internalType":"address"},{"name":"","type":"uint256","internalType":"uint256"}]},{"type":"error","name":"StartTimestampMustBeBeforeEndTimestamp","inputs":[{"name":"startTimestamp","type":"uint256","internalType":"uint256"},{"name":"endTimestamp","type":"uint256","internalType":"uint256"}]},{"type":"error","name":"VoteAlreadyFinalized","inputs":[{"name":"","type":"address","internalType":"address"}]},{"type":"error","name":"VoteNotEnded","inputs":[{"name":"","type":"uint256","internalType":"uint256"}]},{"type":"error","name":"VoteNotStarted","inputs":[{"name":"","type":"uint256","internalType":"uint256"}]}],"bytecode":{"object":"0x6080806040523461045557611b1c803803809161001c8285610742565b833981016102008282031261045557815160208301519260408101519160608201519460808301519561005160a08501610765565b9661005e60c08601610776565b9661006b60e08701610776565b6101008701519091906001600160401b03811161045557870181601f82011215610455578181602061009f9351910161078a565b99610120880151936100b46101408a01610765565b956101608a0151976101808b0151996101a08c01519b6101c081015160018060401b03811161045557876100e99183016107cf565b6101e08201519097906001600160401b0381116104555761010a92016107cf565b5f80546001600160a01b0319166001600160a01b038a16179055968484101561072a576305f5e1008e1061070b5760208f9160245f936040519485938492630fcd4a4760e01b845260018060a01b0316600484015260018060a01b03165af18015610461578e915f916106d6575b50106106b857604051610120810195906001600160401b0387118188101761053e578f968f926101009363ffffffff92604052858452866020850152604084015286606084015287608084015216968760a083015260018060a01b031660c08201528760e0820152019687526001556002558a60035560045560055563ffffffff196006541617600655600654640100000000600160c01b038a60201b1690640100000000600160c01b0319161760065580519060018060401b03821161053e576102446007546107ec565b601f811161066a575b50602090601f83116001146106055761027d92915f918361046c575b50508160011b915f199060031b1c19161790565b6007555b518051906001600160401b03821161053e5761029e6008546107ec565b601f81116105b7575b50602090601f8311600114610552576102d692915f918361046c5750508160011b915f199060031b1c19161790565b6008555b60405160c08101906001600160401b0382118183101761053e5760a0916040528981526020810192835263ffffffff6040820194168452606081019485526080810195865201948552875160018060401b03811161053e5761033d6010546107ec565b601f81116104e5575b506020601f8211600114610477578163ffffffff94939261037f9260209b9c5f9261046c5750508160011b915f199060031b1c19161790565b6010555b51601155516012805463ffffffff191692909116919091179055516013555160145551601555600c80546001600160a01b0319167316c9889e863ac61880c9268500b1ba32349353921790555f805460405163eee0b48960e01b81526001600160a01b03958616600482015230602482015260448101939093529193849260649284929091165af1801561046157610425575b6040516112e1908161083b8239f35b6020813d602011610459575b8161043e60209383610742565b81010312610455575180151503610455575f610416565b5f80fd5b3d9150610431565b6040513d5f823e3d90fd5b015190505f80610269565b601f1982169960105f52815f209a5f5b8181106104cd57509a600192849263ffffffff97969560209d9e106104b5575b505050811b01601055610383565b01515f1960f88460031b161c191690555f80806104a7565b838301518d556001909c019b60209384019301610487565b60105f5261052e907f1b6847dc741a1b0cd08d278845f9d819d87b734759afb55fe2de5cb82a9ae672601f840160051c81019160208510610534575b601f0160051c0190610824565b5f610346565b9091508190610521565b634e487b7160e01b5f52604160045260245ffd5b90601f1983169160085f52815f20925f5b81811061059f5750908460019594939210610587575b505050811b016008556102da565b01515f1960f88460031b161c191690555f8080610579565b92936020600181928786015181550195019301610563565b60085f526105ff907ff3f7a9fe364faab93b216da50a3214154f22a0a2b415b23a84c8169e8b636ee3601f850160051c8101916020861061053457601f0160051c0190610824565b5f6102a7565b90601f1983169160075f52815f20925f5b818110610652575090846001959493921061063a575b505050811b01600755610281565b01515f1960f88460031b161c191690555f808061062c565b92936020600181928786015181550195019301610616565b60075f526106b2907fa66cc928b5edb82af9bd49922954155ab7b0942694bea4ce44661d9a8736c688601f850160051c8101916020861061053457601f0160051c0190610824565b5f61024d565b638ff398d160e01b5f9081526001600160a01b038f16600452602490fd5b9150506020813d602011610703575b816106f260209383610742565b81010312610455578d90515f610178565b3d91506106e5565b8d8f633678013760e21b5f5260018060a01b031660045260245260445ffd5b50505063bcc509ad60e01b5f5260045260245260445ffd5b601f909101601f19168101906001600160401b0382119082101761053e57604052565b519063ffffffff8216820361045557565b51906001600160a01b038216820361045557565b9192916001600160401b03821161053e57604051916107b3601f8201601f191660200184610742565b829481845281830111610455578281602093845f96015e010152565b9080601f830112156104555781516107e99260200161078a565b90565b90600182811c9216801561081a575b602083101461080657565b634e487b7160e01b5f52602260045260245ffd5b91607f16916107fb565b81811061082f575050565b5f815560010161082456fe6080806040526004361015610012575f80fd5b5f905f3560e01c9081630270bea014610cf7575080630f3c34d114610ac9578063291ae9b3146107145780636f9fb98a146106f957806373d4a13a14610687578063766c09711461066057806379502c55146105c857806391327ec61461056357806393ab0b721461048e57806395bedd4a1461046b5780639900a41614610393578063a3ec138d14610356578063abac7b5e1461032d578063fc7e286d146102ec578063fde315bd146102135763ff23ad3a146100ce575f80fd5b34610210578060031936011261021057610100606091604051906100f182610e37565b80825280602083015280604083015280848301528060808301528060a083015260c08201528260e0820152015260405161012a81610e37565b6001548152600254906020810191825261020c600354604083019081526101f8600454606085019081526005546080860190815263ffffffff6006549160a0880190828416825260c089019360018060a01b039060201c16845261018c610eae565b9460e08a0195865261019c610f65565b976101008b019889526040519b8c9b60208d525160208d01525160408c01525160608b01525160808a01525160a0890152511660c087015260018060a01b0390511660e086015251610120610100860152610140850190610ffa565b9051838203601f1901610120850152610ffa565b0390f35b80fd5b503461021057602036600319011261021057600435815260176020526040812090604051918181549161024583610e76565b80865292600181169081156102c25750600114610281575b61020c8561026d81870382610e54565b604051918291602083526020830190610ffa565b815260208120939250905b8082106102a85750909150810160200161026d8261020c61025d565b91926001816020925483858801015201910190929161028c565b86955061020c9693506020925061026d94915060ff191682840152151560051b820101929361025d565b5034610210576020366003190112610210576004356001600160a01b03811690819003610329578160409160209352601883522054604051908152f35b5080fd5b503461021057602036600319011261021057602061034c60043561114d565b6040519015158152f35b5034610210576020366003190112610210576004356001600160a01b03811690819003610329578160409160209352601683522054604051908152f35b503461021057608036600319011261021057600c5460043590602435906001600160a01b03163303610458576005548042106104465750600f54610433578082111561042a57506009555b604435600f556103f26064356003546110b3565b8060035563ffffffff600b5416600954907f261d46d7f08568cdea1c49c29df898cb08eecb2059d632030361815c60f13bc48480a480f35b600955506103de565b639433374960e01b835230600452602483fd5b63121d3f5760e01b8452600452602483fd5b63245aecd360e01b835233600452602483fd5b5034610210578060031936011261021057602061048661112b565b604051908152f35b503461021057806003193601126102105760a06040516104ad81610e1b565b60608152826020820152826040820152826060820152826080820152015261053f6040516104da81610e1b565b6104e261101e565b81526011546020820190815263ffffffff601254166040830190815260135460608401908152601454906080850191825263ffffffff6015549360a08701948552604051978897602089525160c060208a015260e0890190610ffa565b95516040880152511660608601525160808501525160a08401525160c08301520390f35b50346102105780600319360112610210576105aa61057f61101e565b60115463ffffffff60125416601354601454906015549260405196879660c0885260c0880190610ffa565b94602087015260408601526060850152608084015260a08301520390f35b50346102105780600319360112610210576001546002549061020c600354610651600454600554600654906105fb610eae565b92610604610f65565b95604051998a998a5260208a015260408901526060880152608087015263ffffffff811660a087015260018060a01b039060201c1660c086015261012060e0860152610120850190610ffa565b90838203610100850152610ffa565b5034610210578060031936011261021057546040516001600160a01b039091168152602090f35b5034610210578060031936011261021057610100600954600a54600b5460018060a01b03600c5416600d5490600e5492600f5494604051968752602087015263ffffffff8116604087015260018060a01b039060201c166060860152608085015260a084015260c083015260e0820152f35b503461021057806003193601126102105760206104866110c0565b50346102105760603660031901126102105760243560043567ffffffffffffffff8211610ab15736602383011215610ab15781600401359167ffffffffffffffff8311610ab5578390604051936107756020601f19601f8401160186610e54565b8085523660248284010111610ab1578060246020930183870137840101526044359133845260166020526040842054610a9e578354604051630fcd4a4760e01b8152336004820152906020908290602490829089906001600160a01b03165af180156109525784918691610a65575b5010610a52576004548042108015610a47575b610a355750600b5463ffffffff811663ffffffff8114610a2157600163ffffffff9101169063ffffffff191617600b553384526016602052816040852055818452601760205260408420815167ffffffffffffffff8111610a0d5761085c8254610e76565b601f81116109c8575b50806020601f821160011461096857879161095d575b508160011b915f199060031b1c19161790555b338452601860205282604085205583602060018060a01b0382541660646040518094819363eee0b48960e01b83523360048401523060248401528960448401525af180156109525761091a575b507f4be73bfc1c7b94f7cc1fa60e17c015e2fe5ce36b8bb6549ce1a0534b7ec3ab1c604051602081528061091433946020830190610ffa565b0390a480f35b6020813d60201161094a575b8161093360209383610e54565b81010312610946575180151581146108db575b8480fd5b3d9150610926565b6040513d87823e3d90fd5b90508301515f61087b565b8388528088209150601f198316885b8181106109b057509083600194939210610998575b5050811b01905561088e565b8501515f1960f88460031b161c191690555f8061098c565b9192602060018192868a015181550194019201610977565b82875260208720601f830160051c81019160208410610a03575b601f0160051c01905b8181106109f85750610865565b8781556001016109eb565b90915081906109e2565b634e487b7160e01b86526041600452602486fd5b634e487b7160e01b86526011600452602486fd5b6354fbd5ef60e01b8552600452602484fd5b5060055442116107f7565b638ff398d160e01b845233600452602484fd5b9150506020813d602011610a96575b81610a8160209383610e54565b81010312610a92578390515f6107e4565b5f80fd5b3d9150610a74565b633512759d60e21b845233600452602484fd5b8280fd5b634e487b7160e01b84526041600452602484fd5b5034610a92576020366003190112610a92576004359067ffffffffffffffff8211610a925736602383011215610a925781600401359167ffffffffffffffff8311610ce3578260051b60405193610b236020830186610e54565b84526024602085019183010191368311610a9257602401905b828210610cd357505050335f52601860205260405f2054918215610cc057604080513360208201908152818301869052918152610b7a606082610e54565b5190206040516020810191825260208152610b96604082610e54565b51902091600f5492935f945b8351861015610be45760208660051b85010151908181105f14610bd3575f52602052600160405f205b950194610ba2565b905f52602052600160405f20610bcb565b8403610cad57610bf26110c0565b90600354918282029282840403610c99578015610c8557610c149204906110b3565b335f908152601860205260408120819055546001600160a01b0316803b15610a9257604051636739005d60e11b815233600482015260248101929092525f908290604490829084905af18015610c7a57610c6c575080f35b610c7891505f90610e54565b005b6040513d5f823e3d90fd5b634e487b7160e01b5f52601260045260245ffd5b634e487b7160e01b5f52601160045260245ffd5b63a14aa8d160e01b5f523360045260245ffd5b638ff398d160e01b5f523360045260245ffd5b8135815260209182019101610b3c565b634e487b7160e01b5f52604160045260245ffd5b34610a92575f366003190112610a925760e081610d145f93610dfe565b8281528260208201528260408201528260608201528260808201528260a08201528260c08201520152610100604051610d4c81610dfe565b60095490818152600a5460208201908152600b54604083019063ffffffff81168252606084019060018060a01b039060201c16815260018060a01b03600c5416906080850191825263ffffffff600d549360a08701948552600e549560c0880196875260e0600f5498019788526040519889525160208901525116604087015260018060a01b03905116606086015260018060a01b0390511660808501525160a08401525160c08301525160e0820152f35b610100810190811067ffffffffffffffff821117610ce357604052565b60c0810190811067ffffffffffffffff821117610ce357604052565b610120810190811067ffffffffffffffff821117610ce357604052565b90601f8019910116810190811067ffffffffffffffff821117610ce357604052565b90600182811c92168015610ea4575b6020831014610e9057565b634e487b7160e01b5f52602260045260245ffd5b91607f1691610e85565b604051905f8260075491610ec183610e76565b8083529260018116908115610f465750600114610ee7575b610ee592500383610e54565b565b5060075f90815290917fa66cc928b5edb82af9bd49922954155ab7b0942694bea4ce44661d9a8736c6885b818310610f2a575050906020610ee592820101610ed9565b6020919350806001915483858901015201910190918492610f12565b60209250610ee594915060ff191682840152151560051b820101610ed9565b604051905f8260085491610f7883610e76565b8083529260018116908115610f465750600114610f9b57610ee592500383610e54565b5060085f90815290917ff3f7a9fe364faab93b216da50a3214154f22a0a2b415b23a84c8169e8b636ee35b818310610fde575050906020610ee592820101610ed9565b6020919350806001915483858901015201910190918492610fc6565b805180835260209291819084018484015e5f828201840152601f01601f1916010190565b604051905f826010549161103183610e76565b8083529260018116908115610f46575060011461105457610ee592500383610e54565b5060105f90815290917f1b6847dc741a1b0cd08d278845f9d819d87b734759afb55fe2de5cb82a9ae6725b818310611097575050906020610ee592820101610ed9565b602091935080600191548385890101520191019091849261107f565b91908201809211610c9957565b5f54604051634603798360e01b815230600482015290602090829060249082906001600160a01b03165afa908115610c7a575f916110fc575090565b90506020813d602011611123575b8161111760209383610e54565b81010312610a92575190565b3d915061110a565b6014546040516020810191825260208152611147604082610e54565b51902090565b5f90604051602081019082825260208152611169604082610e54565b5190206040516020810191825260208152611185604082610e54565b51902061119061112b565b600b54909190602081901c6001600160a01b0316156111c95750036111b6575050600190565b6377efcdf960e01b825260045260249150fd5b929392910361129857600a838155640100000000600160c01b03199091163360201b640100000000600160c01b031617600b555f54600354808302926001600160a01b0392909216918115918404141715610c9957803b15610a9257604051636739005d60e11b8152336004820152606490920460248301525f908290604490829084905af18015610c7a57611285575b507f8c43435d00d84a08dc7aaa1aeecdd17d35ba5b16a2c50897dee23ec147ea5bdd339180a3600190565b61129191505f90610e54565b5f5f61125a565b826377efcdf960e01b5f5260045260245ffdfea264697066735822122095dd89fdf9bd986c410d9b11d70874f850c61f6c4924b87e3848a4fa5538f11c64736f6c634300081e0033","linkReferences":{}},"methodIdentifiers":{"LockingContract()":"766c0971","castVote(uint256,bytes,uint256)":"291ae9b3","claimRewards(bytes32[])":"0f3c34d1","config()":"79502c55","data()":"73d4a13a","deposits(address)":"fc7e286d","encryptedVotes(uint256)":"fde315bd","finalizeVote(uint256,uint256,bytes32,uint256)":"9900a416","getContractBalance()":"6f9fb98a","getDoubleHashedSK()":"95bedd4a","getPublicParameters()":"93ab0b72","getVoteConfig()":"ff23ad3a","getVoteData()":"0270bea0","pp()":"91327ec6","verifySecret(bytes32)":"abac7b5e","voters(address)":"a3ec138d"},"id":2}