{
  "abi": [
    {
      "type": "constructor",
      "inputs": [
        {
          "name": "_optionA",
          "type": "uint256",
          "internalType": "uint256"
        },
        {
          "name": "_optionB",
          "type": "uint256",
          "internalType": "uint256"
        },
        {
          "name": "_rewards",
          "type": "uint256",
          "internalType": "uint256"
        },
        {
          "name": "_startTimestamp",
          "type": "uint256",
          "internalType": "uint256"
        },
        {
          "name": "_endTimestamp",
          "type": "uint256",
          "internalType": "uint256"
        },
        {
          "name": "_thresholdVotes",
          "type": "uint32",
          "internalType": "uint32"
        },
        {
          "name": "_creator",
          "type": "address",
          "internalType": "address"
        },
        {
          "name": "_hbarLockingContractAddress",
          "type": "address",
          "internalType": "address"
        },
        {
          "name": "_N",
          "type": "bytes",
          "internalType": "bytes"
        },
        {
          "name": "_t",
          "type": "uint256",
          "internalType": "uint256"
        },
        {
          "name": "_a",
          "type": "uint32",
          "internalType": "uint32"
        },
        {
          "name": "_skLocked",
          "type": "bytes32",
          "internalType": "bytes32"
        },
        {
          "name": "_hashedSK",
          "type": "bytes32",
          "internalType": "bytes32"
        },
        {
          "name": "_publicKey",
          "type": "bytes32",
          "internalType": "bytes32"
        }
      ],
      "stateMutability": "nonpayable"
    },
    {
      "type": "function",
      "name": "LockingContract",
      "inputs": [],
      "outputs": [
        {
          "name": "",
          "type": "address",
          "internalType": "contract HBARlockingContract"
        }
      ],
      "stateMutability": "view"
    },
    {
      "type": "function",
      "name": "castVote",
      "inputs": [
        {
          "name": "_userPublicKey",
          "type": "uint256",
          "internalType": "uint256"
        },
        {
          "name": "_option",
          "type": "bytes",
          "internalType": "bytes"
        },
        {
          "name": "_amount",
          "type": "uint256",
          "internalType": "uint256"
        }
      ],
      "outputs": [],
      "stateMutability": "nonpayable"
    },
    {
      "type": "function",
      "name": "claimRewards",
      "inputs": [
        {
          "name": "proof",
          "type": "bytes32[]",
          "internalType": "bytes32[]"
        }
      ],
      "outputs": [],
      "stateMutability": "nonpayable"
    },
    {
      "type": "function",
      "name": "config",
      "inputs": [],
      "outputs": [
        {
          "name": "optionA",
          "type": "uint256",
          "internalType": "uint256"
        },
        {
          "name": "optionB",
          "type": "uint256",
          "internalType": "uint256"
        },
        {
          "name": "rewards",
          "type": "uint256",
          "internalType": "uint256"
        },
        {
          "name": "startTimestamp",
          "type": "uint256",
          "internalType": "uint256"
        },
        {
          "name": "endTimestamp",
          "type": "uint256",
          "internalType": "uint256"
        },
        {
          "name": "thresholdVotes",
          "type": "uint32",
          "internalType": "uint32"
        },
        {
          "name": "creator",
          "type": "address",
          "internalType": "address"
        }
      ],
      "stateMutability": "view"
    },
    {
      "type": "function",
      "name": "data",
      "inputs": [],
      "outputs": [
        {
          "name": "resolvedOption",
          "type": "uint256",
          "internalType": "uint256"
        },
        {
          "name": "unlockedSecret",
          "type": "bytes32",
          "internalType": "bytes32"
        },
        {
          "name": "totalVotes",
          "type": "uint32",
          "internalType": "uint32"
        },
        {
          "name": "solver",
          "type": "address",
          "internalType": "address"
        },
        {
          "name": "owner",
          "type": "address",
          "internalType": "address"
        },
        {
          "name": "optionACount",
          "type": "uint256",
          "internalType": "uint256"
        },
        {
          "name": "optionBCount",
          "type": "uint256",
          "internalType": "uint256"
        },
        {
          "name": "winnerMerkleTreeRoot",
          "type": "bytes32",
          "internalType": "bytes32"
        },
        {
          "name": "loserMerkleTreeRoot",
          "type": "bytes32",
          "internalType": "bytes32"
        }
      ],
      "stateMutability": "view"
    },
    {
      "type": "function",
      "name": "deposits",
      "inputs": [
        {
          "name": "",
          "type": "address",
          "internalType": "address"
        }
      ],
      "outputs": [
        {
          "name": "",
          "type": "uint256",
          "internalType": "uint256"
        }
      ],
      "stateMutability": "view"
    },
    {
      "type": "function",
      "name": "encryptedVotes",
      "inputs": [
        {
          "name": "",
          "type": "uint256",
          "internalType": "uint256"
        }
      ],
      "outputs": [
        {
          "name": "",
          "type": "bytes",
          "internalType": "bytes"
        }
      ],
      "stateMutability": "view"
    },
    {
      "type": "function",
      "name": "finalizeVote",
      "inputs": [
        {
          "name": "_optionACount",
          "type": "uint256",
          "internalType": "uint256"
        },
        {
          "name": "_optionBcount",
          "type": "uint256",
          "internalType": "uint256"
        },
        {
          "name": "_winnerMerkleTreeRoot",
          "type": "bytes32",
          "internalType": "bytes32"
        },
        {
          "name": "_loserMerkleTreeRoot",
          "type": "bytes32",
          "internalType": "bytes32"
        },
        {
          "name": "_addedRewards",
          "type": "uint256",
          "internalType": "uint256"
        }
      ],
      "outputs": [],
      "stateMutability": "nonpayable"
    },
    {
      "type": "function",
      "name": "getContractBalance",
      "inputs": [],
      "outputs": [
        {
          "name": "",
          "type": "uint256",
          "internalType": "uint256"
        }
      ],
      "stateMutability": "view"
    },
    {
      "type": "function",
      "name": "getDoubleHashedSK",
      "inputs": [],
      "outputs": [
        {
          "name": "",
          "type": "bytes32",
          "internalType": "bytes32"
        }
      ],
      "stateMutability": "view"
    },
    {
      "type": "function",
      "name": "getPublicParameters",
      "inputs": [],
      "outputs": [
        {
          "name": "",
          "type": "tuple",
          "internalType": "struct CreateVote.PublicParameters",
          "components": [
            {
              "name": "N",
              "type": "bytes",
              "internalType": "bytes"
            },
            {
              "name": "t",
              "type": "uint256",
              "internalType": "uint256"
            },
            {
              "name": "a",
              "type": "uint32",
              "internalType": "uint32"
            },
            {
              "name": "sk_locked",
              "type": "bytes32",
              "internalType": "bytes32"
            },
            {
              "name": "hashedSK",
              "type": "bytes32",
              "internalType": "bytes32"
            },
            {
              "name": "publicKey",
              "type": "bytes32",
              "internalType": "bytes32"
            }
          ]
        }
      ],
      "stateMutability": "view"
    },
    {
      "type": "function",
      "name": "getVoteConfig",
      "inputs": [],
      "outputs": [
        {
          "name": "",
          "type": "tuple",
          "internalType": "struct CreateVote.VoteConfig",
          "components": [
            {
              "name": "optionA",
              "type": "uint256",
              "internalType": "uint256"
            },
            {
              "name": "optionB",
              "type": "uint256",
              "internalType": "uint256"
            },
            {
              "name": "rewards",
              "type": "uint256",
              "internalType": "uint256"
            },
            {
              "name": "startTimestamp",
              "type": "uint256",
              "internalType": "uint256"
            },
            {
              "name": "endTimestamp",
              "type": "uint256",
              "internalType": "uint256"
            },
            {
              "name": "thresholdVotes",
              "type": "uint32",
              "internalType": "uint32"
            },
            {
              "name": "creator",
              "type": "address",
              "internalType": "address"
            }
          ]
        }
      ],
      "stateMutability": "view"
    },
    {
      "type": "function",
      "name": "getVoteData",
      "inputs": [],
      "outputs": [
        {
          "name": "",
          "type": "tuple",
          "internalType": "struct CreateVote.VoteData",
          "components": [
            {
              "name": "resolvedOption",
              "type": "uint256",
              "internalType": "uint256"
            },
            {
              "name": "unlockedSecret",
              "type": "bytes32",
              "internalType": "bytes32"
            },
            {
              "name": "totalVotes",
              "type": "uint32",
              "internalType": "uint32"
            },
            {
              "name": "solver",
              "type": "address",
              "internalType": "address"
            },
            {
              "name": "owner",
              "type": "address",
              "internalType": "address"
            },
            {
              "name": "optionACount",
              "type": "uint256",
              "internalType": "uint256"
            },
            {
              "name": "optionBCount",
              "type": "uint256",
              "internalType": "uint256"
            },
            {
              "name": "winnerMerkleTreeRoot",
              "type": "bytes32",
              "internalType": "bytes32"
            },
            {
              "name": "loserMerkleTreeRoot",
              "type": "bytes32",
              "internalType": "bytes32"
            }
          ]
        }
      ],
      "stateMutability": "view"
    },
    {
      "type": "function",
      "name": "pp",
      "inputs": [],
      "outputs": [
        {
          "name": "N",
          "type": "bytes",
          "internalType": "bytes"
        },
        {
          "name": "t",
          "type": "uint256",
          "internalType": "uint256"
        },
        {
          "name": "a",
          "type": "uint32",
          "internalType": "uint32"
        },
        {
          "name": "sk_locked",
          "type": "bytes32",
          "internalType": "bytes32"
        },
        {
          "name": "hashedSK",
          "type": "bytes32",
          "internalType": "bytes32"
        },
        {
          "name": "publicKey",
          "type": "bytes32",
          "internalType": "bytes32"
        }
      ],
      "stateMutability": "view"
    },
    {
      "type": "function",
      "name": "verifySecret",
      "inputs": [
        {
          "name": "_userSecret",
          "type": "bytes32",
          "internalType": "bytes32"
        }
      ],
      "outputs": [
        {
          "name": "",
          "type": "bool",
          "internalType": "bool"
        }
      ],
      "stateMutability": "nonpayable"
    },
    {
      "type": "function",
      "name": "voters",
      "inputs": [
        {
          "name": "",
          "type": "address",
          "internalType": "address"
        }
      ],
      "outputs": [
        {
          "name": "",
          "type": "uint256",
          "internalType": "uint256"
        }
      ],
      "stateMutability": "view"
    },
    {
      "type": "event",
      "name": "PuzzleSolved",
      "inputs": [
        {
          "name": "solver",
          "type": "address",
          "indexed": true,
          "internalType": "address"
        },
        {
          "name": "unlockedSecret",
          "type": "bytes32",
          "indexed": true,
          "internalType": "bytes32"
        }
      ],
      "anonymous": false
    },
    {
      "type": "event",
      "name": "VoteCast",
      "inputs": [
        {
          "name": "voter",
          "type": "address",
          "indexed": true,
          "internalType": "address"
        },
        {
          "name": "userPublicKey",
          "type": "uint256",
          "indexed": true,
          "internalType": "uint256"
        },
        {
          "name": "amount",
          "type": "uint256",
          "indexed": true,
          "internalType": "uint256"
        },
        {
          "name": "option",
          "type": "bytes",
          "indexed": false,
          "internalType": "bytes"
        }
      ],
      "anonymous": false
    },
    {
      "type": "event",
      "name": "VoteFinalized",
      "inputs": [
        {
          "name": "totalVotes",
          "type": "uint256",
          "indexed": true,
          "internalType": "uint256"
        },
        {
          "name": "resolvedOption",
          "type": "uint256",
          "indexed": true,
          "internalType": "uint256"
        },
        {
          "name": "rewards",
          "type": "uint256",
          "indexed": true,
          "internalType": "uint256"
        }
      ],
      "anonymous": false
    },
    {
      "type": "event",
      "name": "VoteLost",
      "inputs": [
        {
          "name": "voter",
          "type": "address",
          "indexed": true,
          "internalType": "address"
        }
      ],
      "anonymous": false
    },
    {
      "type": "error",
      "name": "AlreadyVoted",
      "inputs": [
        {
          "name": "",
          "type": "address",
          "internalType": "address"
        }
      ]
    },
    {
      "type": "error",
      "name": "DepositTooSmall",
      "inputs": [
        {
          "name": "",
          "type": "address",
          "internalType": "address"
        }
      ]
    },
    {
      "type": "error",
      "name": "IncorrectSecretKey",
      "inputs": [
        {
          "name": "",
          "type": "bytes32",
          "internalType": "bytes32"
        }
      ]
    },
    {
      "type": "error",
      "name": "InvalidMerkleProof",
      "inputs": [
        {
          "name": "",
          "type": "address",
          "internalType": "address"
        }
      ]
    },
    {
      "type": "error",
      "name": "NotOwner",
      "inputs": [
        {
          "name": "",
          "type": "address",
          "internalType": "address"
        }
      ]
    },
    {
      "type": "error",
      "name": "RewardsTooSmall",
      "inputs": [
        {
          "name": "",
          "type": "address",
          "internalType": "address"
        },
        {
          "name": "",
          "type": "uint256",
          "internalType": "uint256"
        }
      ]
    },
    {
      "type": "error",
      "name": "StartTimestampMustBeBeforeEndTimestamp",
      "inputs": [
        {
          "name": "startTimestamp",
          "type": "uint256",
          "internalType": "uint256"
        },
        {
          "name": "endTimestamp",
          "type": "uint256",
          "internalType": "uint256"
        }
      ]
    },
    {
      "type": "error",
      "name": "VoteAlreadyFinalized",
      "inputs": [
        {
          "name": "",
          "type": "address",
          "internalType": "address"
        }
      ]
    },
    {
      "type": "error",
      "name": "VoteNotEnded",
      "inputs": [
        {
          "name": "",
          "type": "uint256",
          "internalType": "uint256"
        }
      ]
    },
    {
      "type": "error",
      "name": "VoteNotStarted",
      "inputs": [
        {
          "name": "",
          "type": "uint256",
          "internalType": "uint256"
        }
      ]
    }
  ],
  "bytecode": {
    "object": "0x6080604052346100425761002c6100146102e3565b9c9b909b9a919a999299989398979497969596610aa3565b610034610047565b612765610d8a823961276590f35b61004d565b60405190565b5f80fd5b601f801991011690565b634e487b7160e01b5f52604160045260245ffd5b9061007990610051565b810190811060018060401b0382111761009157604052565b61005b565b906100a96100a2610047565b928361006f565b565b5f80fd5b5f80fd5b90565b6100bf816100b3565b036100c657565b5f80fd5b905051906100d7826100b6565b565b63ffffffff1690565b6100eb816100d9565b036100f257565b5f80fd5b90505190610103826100e2565b565b60018060a01b031690565b61011990610105565b90565b61012581610110565b0361012c57565b5f80fd5b9050519061013d8261011c565b565b5f80fd5b5f80fd5b60018060401b0381116101635761015f602091610051565b0190565b61005b565b90825f9392825e0152565b9092919261018861018382610147565b610096565b938185526020850190828401116101a4576101a292610168565b565b610143565b9080601f830112156101c7578160206101c493519101610173565b90565b61013f565b90565b6101d8816101cc565b036101df57565b5f80fd5b905051906101f0826101cf565b565b91906101c0838203126102de5761020b815f85016100ca565b9261021982602083016100ca565b9261022783604084016100ca565b9261023581606085016100ca565b9261024382608083016100ca565b926102518360a084016100f6565b9261025f8160c08501610130565b9261026d8260e08301610130565b9261010082015160018060401b0381116102d9578361028d9184016101a9565b9261029c8161012085016100ca565b926102ab8261014083016100f6565b926102d66102bd8461016085016101e3565b936102cc8161018086016101e3565b936101a0016101e3565b90565b6100af565b6100ab565b6103016134ef803803806102f681610096565b9283398101906101f2565b909192939495969798999a9b9c9d565b90565b61032861032361032d92610105565b610311565b610105565b90565b61033990610314565b90565b61034590610330565b90565b5f1b90565b9061035e60018060a01b0391610348565b9181191691161790565b61037190610330565b90565b90565b9061038c61038761039392610368565b610374565b825461034d565b9055565b6103a0906100b3565b9052565b9160206103c59294936103be60408201965f830190610397565b0190610397565b565b90565b6103de6103d96103e3926103c7565b610311565b6100b3565b90565b6103ef90610110565b9052565b91602061041492949361040d60408201965f8301906103e6565b0190610397565b565b5f1c90565b60018060a01b031690565b61043261043791610416565b61041b565b90565b6104449054610426565b90565b61045090610314565b90565b61045c90610447565b90565b60e01b90565b9060208282031261047e5761047b915f016100ca565b90565b6100ab565b9190610496905f602085019401906103e6565b565b6104a0610047565b3d5f823e3d90fd5b6104b260e0610096565b90565b906104bf906100b3565b9052565b906104cd906100d9565b9052565b906104db90610110565b9052565b6104e990516100b3565b90565b906104f85f1991610348565b9181191691161790565b61051661051161051b926100b3565b610311565b6100b3565b90565b90565b9061053661053161053d92610502565b61051e565b82546104ec565b9055565b61054b90516100d9565b90565b9061055d63ffffffff91610348565b9181191691161790565b61057b610576610580926100d9565b610311565b6100d9565b90565b90565b9061059b6105966105a292610567565b610583565b825461054e565b9055565b6105b09051610110565b90565b60201b90565b906105cf640100000000600160c01b03916105b3565b9181191691161790565b6105e290610447565b90565b90565b906105fd6105f8610604926105d9565b6105e5565b82546105b9565b9055565b906106af60c060056106b59461062b5f82016106255f88016104df565b90610521565b6106446001820161063e602088016104df565b90610521565b61065d60028201610657604088016104df565b90610521565b61067660038201610670606088016104df565b90610521565b61068f60048201610689608088016104df565b90610521565b6106a78282016106a160a08801610541565b90610586565b0192016105a6565b906105e8565b565b906106c191610608565b565b6106cd60c0610096565b90565b52565b906106dd906101cc565b9052565b5190565b5190565b634e487b7160e01b5f52602260045260245ffd5b906001600283049216801561071d575b602083101461071857565b6106e9565b91607f169161070d565b5f5260205f2090565b601f602091010490565b1b90565b919060086107599102916107535f198461073a565b9261073a565b9181191691161790565b919061077961077461078193610502565b61051e565b90835461073e565b9055565b5f90565b61079b91610795610785565b91610763565b565b5b8181106107a9575050565b806107b65f600193610789565b0161079e565b9190601f81116107cc575b505050565b6107d86107fd93610727565b9060206107e484610730565b83019310610805575b6107f690610730565b019061079d565b5f80806107c7565b91506107f6819290506107ed565b1c90565b90610827905f1990600802610813565b191690565b8161083691610817565b906002021790565b90610848816106e5565b9060018060401b0382116109065761086a8261086485546106fd565b856107bc565b602090601f831160011461089e5791809161088d935f92610892575b505061082c565b90555b565b90915001515f80610886565b601f198316916108ad85610727565b925f5b8181106108ee575091600293918560019694106108d4575b50505002019055610890565b6108e4910151601f841690610817565b90555f80806108c8565b919360206001819287870151815501950192016108b0565b61005b565b906109159161083e565b565b61092190516101cc565b90565b61092d906101cc565b90565b61093990610416565b90565b9061095161094c61095892610924565b610930565b82546104ec565b9055565b906109eb60a060056109f19461097f5f82016109795f88016106e1565b9061090b565b61099860018201610992602088016104df565b90610521565b6109b1600282016109ab60408801610541565b90610586565b6109ca600382016109c460608801610917565b9061093c565b6109e3600482016109dd60808801610917565b9061093c565b019201610917565b9061093c565b565b906109fd9161095c565b565b90610a14610a0f610a1b926105d9565b6105e5565b825461034d565b9055565b610a2890610447565b90565b151590565b610a3981610a2b565b03610a4057565b5f80fd5b90505190610a5182610a30565b565b90602082820312610a6c57610a69915f01610a44565b90565b6100ab565b604090610a9a610aa19496959396610a9060608401985f8501906103e6565b60208301906103e6565b0190610397565b565b90949392919c989a96610abc610ac2919d99979d61033c565b5f610377565b81610ad5610acf856100b3565b916100b3565b1015610d6a578c610af2610aec6305f5e1006103ca565b916100b3565b10610d4a57610b3660208d610b0e610b095f61043a565b610453565b610b2b5f630fcd4a47610b1f610047565b9687958694859361045f565b835260048301610483565b03925af1908115610d45578e905f92610d0d575b50610b57610b5d916100b3565b916100b3565b10610cee5795610c18610c3396610bf68f60209f9e9c988f90610c439f9c610bef92610c3c9f9a610c2a9c610bd4610bdd92610bcb610c219e610bc25f9b610bb9610be69a9b91939597999b610bb16104a8565b9e8f016104b5565b60208d016104b5565b60408b016104b5565b606089016104b5565b608087016104b5565b60a085016104c3565b60c083016104d1565b60016106b7565b999791939597610c10610c076106c3565b9b5f8d016106d0565b8d8b016104b5565b604089016104c3565b606087016106d3565b608085016106d3565b60a083016106d3565b600f6109f3565b610c657316c9889e863ac61880c9268500b1ba323493539260036007016109ff565b610c76610c715f61043a565b610453565b610ca05f63eee0b489610cab610c8b30610a1f565b97610c94610047565b9889978896879561045f565b855260048501610a71565b03925af18015610ce957610cbd575b50565b610cdd9060203d8111610ce2575b610cd5818361006f565b810190610a53565b610cba565b503d610ccb565b610498565b610d098c5f918291638ff398d160e01b835260048301610483565b0390fd5b610b5d919250610d36610b579160203d8111610d3e575b610d2e818361006f565b810190610465565b929150610b4a565b503d610d24565b610498565b8c8c610d665f928392633678013760e21b8452600484016103f3565b0390fd5b50610d855f92839263bcc509ad60e01b8452600484016103a4565b0390fdfe60806040526004361015610013575b6110f2565b61001d5f3561011c565b80630270bea0146101175780630a50ec66146101125780630f3c34d11461010d578063291ae9b3146101085780636f9fb98a1461010357806373d4a13a146100fe578063766c0971146100f957806379502c55146100f457806391327ec6146100ef57806393ab0b72146100ea57806395bedd4a146100e5578063a3ec138d146100e0578063abac7b5e146100db578063fc7e286d146100d6578063fde315bd146100d15763ff23ad3a0361000e576110bd565b610ff5565b610f14565b610ec6565b610e4c565b610d75565b610d2b565b610c31565b6109f1565b6108f8565b61081d565b6105fa565b6105a4565b610493565b61032c565b610252565b60e01c90565b60405190565b5f80fd5b5f80fd5b5f91031261013a57565b61012c565b90565b61014b9061013f565b9052565b90565b61015b9061014f565b9052565b63ffffffff1690565b6101719061015f565b9052565b60018060a01b031690565b61018990610175565b90565b61019590610180565b9052565b906101008061023a936101b25f8201515f860190610142565b6101c460208201516020860190610152565b6101d660408201516040860190610168565b6101e86060820151606086019061018c565b6101fa6080820151608086019061018c565b61020c60a082015160a0860190610142565b61021e60c082015160c0860190610142565b61023060e082015160e0860190610152565b0151910190610152565b565b9190610250905f6101208501940190610199565b565b3461028257610262366004610130565b61027e61026d6112bf565b610275610122565b9182918261023c565b0390f35b610128565b5f80fd5b6102948161013f565b0361029b57565b5f80fd5b905035906102ac8261028b565b565b6102b78161014f565b036102be57565b5f80fd5b905035906102cf826102ae565b565b919060a083820312610322576102e9815f850161029f565b926102f7826020830161029f565b9261031f61030884604085016102c2565b9361031681606086016102c2565b9360800161029f565b90565b61012c565b5f0190565b3461035e5761034861033f3660046102d1565b939290926113e0565b610350610122565b8061035a81610327565b0390f35b610128565b5f80fd5b601f801991011690565b634e487b7160e01b5f52604160045260245ffd5b9061038f90610367565b810190811067ffffffffffffffff8211176103a957604052565b610371565b906103c16103ba610122565b9283610385565b565b67ffffffffffffffff81116103db5760208091020190565b610371565b5f80fd5b909291926103f96103f4826103c3565b6103ae565b938185526020808601920283019281841161043657915b83831061041d5750505050565b6020809161042b84866102c2565b815201920191610410565b6103e0565b9080601f8301121561045957816020610456933591016103e4565b90565b610363565b9060208282031261048e575f82013567ffffffffffffffff811161048957610486920161043b565b90565b610287565b61012c565b346104c1576104ab6104a636600461045e565b61173e565b6104b3610122565b806104bd81610327565b0390f35b610128565b5f80fd5b67ffffffffffffffff81116104e8576104e4602091610367565b0190565b610371565b90825f939282370152565b9092919261050d610508826104ca565b6103ae565b9381855260208501908284011161052957610527926104ed565b565b6104c6565b9080601f8301121561054c57816020610549933591016104f8565b90565b610363565b909160608284031261059f57610569835f840161029f565b9260208301359067ffffffffffffffff821161059a5761058e8161059793860161052e565b9360400161029f565b90565b610287565b61012c565b346105d3576105bd6105b7366004610551565b91611ca8565b6105c5610122565b806105cf81610327565b0390f35b610128565b6105e19061013f565b9052565b91906105f8905f602085019401906105d8565b565b3461062a5761060a366004610130565b610626610615611f72565b61061d610122565b918291826105e5565b0390f35b610128565b5f1c90565b90565b6106436106489161062f565b610634565b90565b6106559054610637565b90565b90565b61066761066c9161062f565b610658565b90565b610679905461065b565b90565b63ffffffff1690565b6106916106969161062f565b61067c565b90565b6106a39054610685565b90565b60201c90565b60018060a01b031690565b6106c36106c8916106a6565b6106ac565b90565b6106d590546106b7565b90565b6106e46106e99161062f565b6106ac565b90565b6106f690546106d8565b90565b60076107065f820161064b565b916107136001830161066f565b9161072060028201610699565b9161072d600283016106cb565b9161073a600382016106ec565b916107476004830161064b565b916107546005820161064b565b9161076d60076107666006850161066f565b930161066f565b90565b6107799061014f565b9052565b6107869061015f565b9052565b61079390610180565b9052565b9694929099989795939161012088019a5f89016107b3916105d8565b602088016107c091610770565b604087016107cd9161077d565b606086016107da9161078a565b608085016107e79161078a565b60a084016107f4916105d8565b60c08301610801916105d8565b60e0820161080e91610770565b6101000161081b91610770565b565b346108575761082d366004610130565b6108536108386106f9565b9561084a999799959195949294610122565b998a998a610797565b0390f35b610128565b1c90565b60018060a01b031690565b61087b906008610880930261085c565b610860565b90565b9061088e915461086b565b90565b61089c5f5f90610883565b90565b90565b6108b66108b16108bb92610175565b61089f565b610175565b90565b6108c7906108a2565b90565b6108d3906108be565b90565b6108df906108ca565b9052565b91906108f6905f602085019401906108d6565b565b3461092857610908366004610130565b610924610913610891565b61091b610122565b918291826108e3565b0390f35b610128565b600161093a5f820161064b565b916109476001830161064b565b916109546002820161064b565b916109616003830161064b565b9161096e6004820161064b565b91610986600561097f818501610699565b93016106cb565b90565b949290979695939160e08601985f87016109a2916105d8565b602086016109af916105d8565b604085016109bc916105d8565b606084016109c9916105d8565b608083016109d6916105d8565b60a082016109e39161077d565b60c0016109ef9161078a565b565b34610a2857610a01366004610130565b610a24610a0c61092d565b93610a1b979597939193610122565b97889788610989565b0390f35b610128565b634e487b7160e01b5f52602260045260245ffd5b9060016002830492168015610a61575b6020831014610a5c57565b610a2d565b91607f1691610a51565b60209181520190565b5f5260205f2090565b905f9291805490610a97610a9083610a41565b8094610a6b565b916001811690815f14610aee5750600114610ab2575b505050565b610abf9192939450610a74565b915f925b818410610ad657505001905f8080610aad565b60018160209295939554848601520191019290610ac3565b92949550505060ff19168252151560200201905f8080610aad565b90610b1391610a7d565b90565b90610b36610b2f92610b26610122565b93848092610b09565b0383610385565b565b600f90610b465f8301610b16565b91610b536001820161064b565b91610b6060028301610699565b91610b6d6003820161066f565b91610b866005610b7f6004850161066f565b930161066f565b90565b5190565b60209181520190565b90825f9392825e0152565b610bc0610bc9602093610bce93610bb781610b89565b93848093610b8d565b95869101610b96565b610367565b0190565b9196959394610c1e610c2f96610c1460a096610c0a610bff610c289760c08a01908a82035f8c0152610ba1565b9c60208901906105d8565b604087019061077d565b6060850190610770565b6080830190610770565b0190610770565b565b34610c6857610c41366004610130565b610c64610c4c610b38565b92610c5b969496929192610122565b96879687610bd2565b0390f35b610128565b610c8c610c95602093610c9a93610c8381610b89565b93848093610a6b565b95869101610b96565b610367565b0190565b90610d109060a080610cbd60c084015f8701518582035f870152610c6d565b94610cd060208201516020860190610142565b610ce260408201516040860190610168565b610cf460608201516060860190610152565b610d0660808201516080860190610152565b0151910190610152565b90565b610d289160208201915f818403910152610c9e565b90565b34610d5b57610d3b366004610130565b610d57610d46612127565b610d4e610122565b91829182610d13565b0390f35b610128565b9190610d73905f60208501940190610770565b565b34610da557610d85366004610130565b610da1610d90612141565b610d98610122565b91829182610d60565b0390f35b610128565b610db381610180565b03610dba57565b5f80fd5b90503590610dcb82610daa565b565b90602082820312610de657610de3915f01610dbe565b90565b61012c565b610df4906108be565b90565b90610e0190610deb565b5f5260205260405f2090565b610e1d906008610e22930261085c565b610634565b90565b90610e309154610e0d565b90565b610e4990610e446015915f92610df7565b610e25565b90565b34610e7c57610e78610e67610e62366004610dcd565b610e33565b610e6f610122565b918291826105e5565b0390f35b610128565b90602082820312610e9a57610e97915f016102c2565b90565b61012c565b151590565b610ead90610e9f565b9052565b9190610ec4905f60208501940190610ea4565b565b34610ef657610ef2610ee1610edc366004610e81565b612249565b610ee9610122565b91829182610eb1565b0390f35b610128565b610f1190610f0c6017915f92610df7565b610e25565b90565b34610f4457610f40610f2f610f2a366004610dcd565b610efb565b610f37610122565b918291826105e5565b0390f35b610128565b90602082820312610f6257610f5f915f0161029f565b90565b61012c565b610f7b610f76610f809261013f565b61089f565b61013f565b90565b90610f8d90610f67565b5f5260205260405f2090565b634e487b7160e01b5f525f60045260245ffd5b905f10610fbf57610fbc90610b16565b90565b610f99565b610fda90610fd56016915f92610f83565b610fac565b90565b610ff29160208201915f818403910152610ba1565b90565b346110255761102161101061100b366004610f49565b610fc4565b611018610122565b91829182610fdd565b0390f35b610128565b9060c0806110a6936110425f8201515f860190610142565b61105460208201516020860190610142565b61106660408201516040860190610142565b61107860608201516060860190610142565b61108a60808201516080860190610142565b61109c60a082015160a0860190610168565b015191019061018c565b565b91906110bb905f60e0850194019061102a565b565b346110ed576110cd366004610130565b6110e96110d86125dd565b6110e0610122565b918291826110a8565b0390f35b610128565b5f80fd5b6111016101206103ae565b90565b5f90565b5f90565b5f90565b5f90565b61111c6110f6565b90602080808080808080808a611130611104565b81520161113b611108565b81520161114661110c565b815201611151611110565b81520161115c611110565b815201611167611104565b815201611172611104565b81520161117d611108565b815201611188611108565b81525050565b611196611114565b90565b906111a39061013f565b9052565b906111b19061014f565b9052565b906111bf9061015f565b9052565b906111cd90610180565b9052565b906112b16112a760076111e26110f6565b946111f96111f15f830161064b565b5f8801611199565b6112116112086001830161066f565b602088016111a7565b61122961122060028301610699565b604088016111b5565b611241611238600283016106cb565b606088016111c3565b611259611250600383016106ec565b608088016111c3565b6112716112686004830161064b565b60a08801611199565b6112896112806005830161064b565b60c08801611199565b6112a16112986006830161066f565b60e088016111a7565b0161066f565b61010084016111a7565b565b6112bc906111d1565b90565b6112c761118e565b506112d260076112b3565b90565b91906112e8905f6020850194019061078a565b565b90565b5f1b90565b61130661130161130b926112ea565b6112ed565b61014f565b90565b611317906108be565b90565b906113265f19916112ed565b9181191691161790565b90565b9061134861134361134f92610f67565b611330565b825461131a565b9055565b61135c9061014f565b90565b6113689061062f565b90565b9061138061137b61138792611353565b61135f565b825461131a565b9055565b634e487b7160e01b5f52601160045260245ffd5b6113ae6113b49193929361013f565b9261013f565b82018092116113bf57565b61138b565b6113d86113d36113dd9261015f565b61089f565b61013f565b90565b91939290336114036113fd6113f860036007016106ec565b610180565b91610180565b036115d3574261142761142161141c600460010161064b565b61013f565b9161013f565b106115a857611439600660070161066f565b61145361144d6114485f6112f2565b61014f565b9161014f565b1415801561157a575b611553576114c5948361149f926114a89561147f6114798361013f565b9161013f565b115f146115405750611494905f600701611333565b5b600660070161136b565b6007800161136b565b6114bf6002600101916114ba8361064b565b61139f565b90611333565b6114d26002600701610699565b6114de5f60070161064b565b6114eb600260010161064b565b9061152861152261151c7f261d46d7f08568cdea1c49c29df898cb08eecb2059d632030361815c60f13bc4956113c4565b92610f67565b92610f67565b92611531610122565b8061153b81610327565b0390a4565b61154e91505f600701611333565b611495565b61157661155f3061130e565b5f918291639433374960e01b8352600483016112d5565b0390fd5b506115876007800161066f565b6115a161159b6115965f6112f2565b61014f565b9161014f565b141561145c565b6115cf6115b8600460010161064b565b5f91829163121d3f5760e01b8352600483016105e5565b0390fd5b6115ee335f91829163245aecd360e01b8352600483016112d5565b0390fd5b61160661160161160b926112ea565b61089f565b61013f565b90565b91602061162f92949361162860408201965f83019061078a565b01906105d8565b565b60200190565b90565b61164661164b9161014f565b611637565b9052565b61165b8160209361163a565b0190565b9061168761166b610122565b809361167b60208301918261164f565b90810382520383610385565b565b61169861169e9193929361013f565b9261013f565b916116aa83820261013f565b9281840414901517156116b957565b61138b565b634e487b7160e01b5f52601260045260245ffd5b6116de6116e49161013f565b9161013f565b9081156116ef570490565b6116be565b6117006117059161062f565b610860565b90565b61171290546116f4565b90565b5f80fd5b60e01b90565b5f91031261172957565b61012c565b611736610122565b3d5f823e3d90fd5b61175261174d60173390610df7565b61064b565b8061176561175f5f6115f2565b9161013f565b1461198d57611772611f72565b906117fd6117bd336117a5849161179661178a610122565b9384926020840161160e565b60208201810382520382610385565b6117b76117b182610b89565b91611631565b2061165f565b6117cf6117c982610b89565b91611631565b206117e8856117e1600660070161066f565b83916125f3565b94906117f66007800161066f565b90916125f3565b926118088115610e9f565b8061197d575b61195e57611883575b5050611820575b565b61183d61182c5f6115f2565b61183860173390610df7565b611333565b336118687ff8a88977c8b138d6aaaf7ee265d1a3aba6c1b2db9c51a98ca63207693b65fcf891610deb565b90611871610122565b8061187b81610327565b0390a261181e565b6118a66118ac926118a18361189b600260010161064b565b90611689565b6116d2565b9061139f565b6118c96118b85f6115f2565b6118c460173390610df7565b611333565b6118da6118d55f611708565b6108ca565b9063ce7200ba90339092803b15611959576119085f80946119136118fc610122565b97889687958694611719565b84526004840161160e565b03925af1801561195457611928575b80611817565b611947905f3d811161194d575b61193f8183610385565b81019061171f565b5f611922565b503d611935565b61172e565b611715565b611979335f91829163a14aa8d160e01b8352600483016112d5565b0390fd5b506119888415610e9f565b61180e565b6119a8335f918291638ff398d160e01b8352600483016112d5565b0390fd5b905051906119b98261028b565b565b906020828203126119d4576119d1915f016119ac565b90565b61012c565b6119e29061015f565b63ffffffff81146119f35760010190565b61138b565b90611a0763ffffffff916112ed565b9181191691161790565b611a25611a20611a2a9261015f565b61089f565b61015f565b90565b90565b90611a45611a40611a4c92611a11565b611a2d565b82546119f8565b9055565b601f602091010490565b1b90565b91906008611a79910291611a735f1984611a5a565b92611a5a565b9181191691161790565b9190611a99611a94611aa193610f67565b611330565b908354611a5e565b9055565b5f90565b611abb91611ab5611aa5565b91611a83565b565b5b818110611ac9575050565b80611ad65f600193611aa9565b01611abe565b9190601f8111611aec575b505050565b611af8611b1d93610a74565b906020611b0484611a50565b83019310611b25575b611b1690611a50565b0190611abd565b5f8080611ae7565b9150611b1681929050611b0d565b90611b43905f199060080261085c565b191690565b81611b5291611b33565b906002021790565b90611b6481610b89565b9067ffffffffffffffff8211611c2457611b8882611b828554610a41565b85611adc565b602090601f8311600114611bbc57918091611bab935f92611bb0575b5050611b48565b90555b565b90915001515f80611ba4565b601f19831691611bcb85610a74565b925f5b818110611c0c57509160029391856001969410611bf2575b50505002019055611bae565b611c02910151601f841690611b33565b90555f8080611be6565b91936020600181928787015181550195019201611bce565b610371565b90611c3391611b5a565b565b611c3e81610e9f565b03611c4557565b5f80fd5b90505190611c5682611c35565b565b90602082820312611c7157611c6e915f01611c49565b90565b61012c565b604090611c9f611ca69496959396611c9560608401985f85019061078a565b602083019061078a565b01906105d8565b565b91611cbd611cb860153390610df7565b61064b565b611ccf611cc95f6115f2565b9161013f565b03611f5357611d156020611cea611ce55f611708565b6108ca565b630fcd4a4790611d0a5f3393611cfe610122565b96879586948593611719565b8352600483016112d5565b03925af1908115611f4e575f91611f20575b50611d3a611d348361013f565b9161013f565b10611f015742611d5e611d58611d53600360010161064b565b61013f565b9161013f565b108015611edb575b611eb057611d896002600701611d83611d7e82610699565b6119d9565b90611a30565b611d9e83611d9960153390610df7565b611333565b611db382611dae60168690610f83565b611c29565b611dc881611dc360173390610df7565b611333565b611dd9611dd45f611708565b6108ca565b602063eee0b489913390611e095f611df03061130e565b95611e1488611dfd610122565b98899788968795611719565b855260048501611c76565b03925af18015611eab57611e7f575b503392909192611e7a611e68611e62611e5c7f4be73bfc1c7b94f7cc1fa60e17c015e2fe5ce36b8bb6549ce1a0534b7ec3ab1c94610deb565b94610f67565b94610f67565b94611e71610122565b91829182610fdd565b0390a4565b611e9f9060203d8111611ea4575b611e978183610385565b810190611c58565b611e23565b503d611e8d565b61172e565b611ed7611ec0600360010161064b565b5f9182916354fbd5ef60e01b8352600483016105e5565b0390fd5b5042611efb611ef5611ef0600460010161064b565b61013f565b9161013f565b11611d66565b611f1c335f918291638ff398d160e01b8352600483016112d5565b0390fd5b611f41915060203d8111611f47575b611f398183610385565b8101906119bb565b5f611d27565b503d611f2f565b61172e565b611f6e335f918291633512759d60e21b8352600483016112d5565b0390fd5b611f7a611aa5565b50611fc36020611f91611f8c5f611708565b6108ca565b634603798390611fb8611fa33061130e565b92611fac610122565b95869485938493611719565b8352600483016112d5565b03915afa908115612007575f91611fd9575b5090565b611ffa915060203d8111612000575b611ff28183610385565b8101906119bb565b5f611fd5565b503d611fe8565b61172e565b61201660c06103ae565b90565b606090565b61202661200c565b906020808080808087612037612019565b815201612042611104565b81520161204d61110c565b815201612058611108565b815201612063611108565b81520161206e611108565b81525050565b61207c61201e565b90565b52565b90612119612110600561209361200c565b946120aa6120a25f8301610b16565b5f880161207f565b6120c26120b96001830161064b565b60208801611199565b6120da6120d160028301610699565b604088016111b5565b6120f26120e96003830161066f565b606088016111a7565b61210a6121016004830161066f565b608088016111a7565b0161066f565b60a084016111a7565b565b61212490612082565b90565b61212f612074565b5061213a600f61211b565b90565b5f90565b61214961213d565b5061217161218061215d6004600f0161066f565b612165610122565b9283916020830161164f565b60208201810382520382610385565b61219261218c82610b89565b91611631565b2090565b5f90565b6121ae6121a96121b3926112ea565b61089f565b610175565b90565b6121bf9061219a565b90565b60201b90565b906121de640100000000600160c01b03916121c2565b9181191691161790565b90565b906122006121fb61220792610deb565b6121e8565b82546121c8565b9055565b90565b61222261221d6122279261220b565b61089f565b61013f565b90565b90565b61224161223c6122469261222a565b61089f565b61013f565b90565b612251612196565b506122a96122b861227361228284612267610122565b9283916020830161164f565b60208201810382520382610385565b61229461228e82610b89565b91611631565b2061229d610122565b9283916020830161164f565b60208201810382520382610385565b6122ca6122c482610b89565b91611631565b206122d3612141565b906122e160026007016106cb565b6122fb6122f56122f05f6121b6565b610180565b91610180565b14155f1461234257612310612316919261014f565b9161014f565b145f146123235750600190565b61233e905f9182916377efcdf960e01b835260048301610d60565b0390fd5b61234f612355919261014f565b9161014f565b145f146124885761236a81600160070161136b565b6123783360026007016121eb565b6123896123845f611708565b6108ca565b63ce7200ba336123c26123b26123a2600260010161064b565b6123ac600a61220e565b90611689565b6123bc606461222d565b906116d2565b92803b15612483576123e75f80946123f26123db610122565b97889687958694611719565b84526004840161160e565b03925af1801561247e57612452575b5033906124376124317f8c43435d00d84a08dc7aaa1aeecdd17d35ba5b16a2c50897dee23ec147ea5bdd93610deb565b91611353565b91612440610122565b8061244a81610327565b0390a3600190565b612471905f3d8111612477575b6124698183610385565b81019061171f565b5f612401565b503d61245f565b61172e565b611715565b6124a3905f9182916377efcdf960e01b835260048301610d60565b0390fd5b6124b160e06103ae565b90565b6124bc6124a7565b906020808080808080886124ce611104565b8152016124d9611104565b8152016124e4611104565b8152016124ef611104565b8152016124fa611104565b81520161250561110c565b815201612510611110565b81525050565b61251e6124b4565b90565b906125cf6125c660056125326124a7565b946125496125415f830161064b565b5f8801611199565b6125616125586001830161064b565b60208801611199565b6125796125706002830161064b565b60408801611199565b6125916125886003830161064b565b60608801611199565b6125a96125a06004830161064b565b60808801611199565b6125c06125b7838301610699565b60a088016111b5565b016106cb565b60c084016111c3565b565b6125da90612521565b90565b6125e5612516565b506125f060016125d1565b90565b61260d612619929361261392612607612196565b50612671565b9261014f565b9161014f565b1490565b6001612629910161013f565b90565b5190565b634e487b7160e01b5f52603260045260245ffd5b9061264e8261262c565b81101561265f576020809102010190565b612630565b61266e905161014f565b90565b919061267b61213d565b506126855f6115f2565b905b816126a261269c6126978761262c565b61013f565b9161013f565b10156126d4576126c86126ce916126c26126bd878690612644565b612664565b906126db565b9161261d565b90612687565b9192505090565b6126e361213d565b50806126f76126f18461014f565b9161014f565b105f1461270c57906127089161271a565b5b90565b6127159161271a565b612709565b61272261213d565b505f5260205260405f209056fea264697066735822122003537fe18f6ec340177e3028413ebaa8c855ad78f0a2d3cc74aa5aad87195de564736f6c634300081e0033",
    "linkReferences": {}
  },
  "methodIdentifiers": {
    "LockingContract()": "766c0971",
    "castVote(uint256,bytes,uint256)": "291ae9b3",
    "claimRewards(bytes32[])": "0f3c34d1",
    "config()": "79502c55",
    "data()": "73d4a13a",
    "deposits(address)": "fc7e286d",
    "encryptedVotes(uint256)": "fde315bd",
    "finalizeVote(uint256,uint256,bytes32,bytes32,uint256)": "0a50ec66",
    "getContractBalance()": "6f9fb98a",
    "getDoubleHashedSK()": "95bedd4a",
    "getPublicParameters()": "93ab0b72",
    "getVoteConfig()": "ff23ad3a",
    "getVoteData()": "0270bea0",
    "pp()": "91327ec6",
    "verifySecret(bytes32)": "abac7b5e",
    "voters(address)": "a3ec138d"
  },
  "id": 2
}