{
  "abi": [
    {
      "type": "function",
      "name": "createVoteContract",
      "inputs": [],
      "outputs": [
        {
          "name": "",
          "type": "address",
          "internalType": "contract CreateVote"
        }
      ],
      "stateMutability": "view"
    },
    {
      "type": "function",
      "name": "createVoteContracts",
      "inputs": [
        {
          "name": "_marketId",
          "type": "uint256",
          "internalType": "uint256"
        },
        {
          "name": "_optionA",
          "type": "uint256",
          "internalType": "uint256"
        },
        {
          "name": "_optionB",
          "type": "uint256",
          "internalType": "uint256"
        },
        {
          "name": "_rewards",
          "type": "uint256",
          "internalType": "uint256"
        },
        {
          "name": "_startTimestamp",
          "type": "uint256",
          "internalType": "uint256"
        },
        {
          "name": "_endTimestamp",
          "type": "uint256",
          "internalType": "uint256"
        },
        {
          "name": "_thresholdVotes",
          "type": "uint32",
          "internalType": "uint32"
        },
        {
          "name": "_hbarLockingContractAddress",
          "type": "address",
          "internalType": "address"
        },
        {
          "name": "_N",
          "type": "bytes",
          "internalType": "bytes"
        },
        {
          "name": "_t",
          "type": "uint256",
          "internalType": "uint256"
        },
        {
          "name": "_a",
          "type": "uint32",
          "internalType": "uint32"
        },
        {
          "name": "_skLocked",
          "type": "bytes32",
          "internalType": "bytes32"
        },
        {
          "name": "_hashedSK",
          "type": "bytes32",
          "internalType": "bytes32"
        },
        {
          "name": "_publicKey",
          "type": "bytes32",
          "internalType": "bytes32"
        }
      ],
      "outputs": [
        {
          "name": "",
          "type": "address",
          "internalType": "address"
        }
      ],
      "stateMutability": "nonpayable"
    },
    {
      "type": "function",
      "name": "getContractsByMarket",
      "inputs": [
        {
          "name": "_marketId",
          "type": "uint256",
          "internalType": "uint256"
        }
      ],
      "outputs": [
        {
          "name": "",
          "type": "address",
          "internalType": "address"
        }
      ],
      "stateMutability": "view"
    },
    {
      "type": "function",
      "name": "marketContracts",
      "inputs": [
        {
          "name": "",
          "type": "uint256",
          "internalType": "uint256"
        }
      ],
      "outputs": [
        {
          "name": "",
          "type": "address",
          "internalType": "address"
        }
      ],
      "stateMutability": "view"
    },
    {
      "type": "event",
      "name": "CreateVoteDeployed",
      "inputs": [
        {
          "name": "marketId",
          "type": "uint256",
          "indexed": true,
          "internalType": "uint256"
        },
        {
          "name": "voteContract",
          "type": "address",
          "indexed": true,
          "internalType": "address"
        }
      ],
      "anonymous": false
    },
    {
      "type": "error",
      "name": "AlreadyDeployed",
      "inputs": [
        {
          "name": "",
          "type": "uint256",
          "internalType": "uint256"
        },
        {
          "name": "",
          "type": "address",
          "internalType": "address"
        }
      ]
    }
  ],
  "bytecode": {
    "object": "0x608060405234601c57600e6020565b61341161002b823961341190f35b6026565b60405190565b5f80fdfe60806040526004361015610013575b610552565b61001d5f3561005c565b806302d8e275146100575780632ef76b001461005257806331db74a01461004d57637a1de44e0361000e5761051d565b61046d565b61041a565b610326565b60e01c90565b60405190565b5f80fd5b5f80fd5b5f80fd5b90565b61008081610074565b0361008757565b5f80fd5b9050359061009882610077565b565b63ffffffff1690565b6100ac8161009a565b036100b357565b5f80fd5b905035906100c4826100a3565b565b60018060a01b031690565b6100da906100c6565b90565b6100e6816100d1565b036100ed57565b5f80fd5b905035906100fe826100dd565b565b5f80fd5b5f80fd5b601f801991011690565b634e487b7160e01b5f52604160045260245ffd5b9061013090610108565b810190811067ffffffffffffffff82111761014a57604052565b610112565b9061016261015b610062565b9283610126565b565b67ffffffffffffffff81116101825761017e602091610108565b0190565b610112565b90825f939282370152565b909291926101a76101a282610164565b61014f565b938185526020850190828401116101c3576101c192610187565b565b610104565b9080601f830112156101e6578160206101e393359101610192565b90565b610100565b90565b6101f7816101eb565b036101fe57565b5f80fd5b9050359061020f826101ee565b565b91906101c0838203126102ff5761022a815f850161008b565b92610238826020830161008b565b92610246836040840161008b565b92610254816060850161008b565b92610262826080830161008b565b926102708360a0840161008b565b9261027e8160c085016100b7565b9261028c8260e083016100f1565b9261010082013567ffffffffffffffff81116102fa57836102ae9184016101c8565b926102bd81610120850161008b565b926102cc8261014083016100b7565b926102f76102de846101608501610202565b936102ed816101808601610202565b936101a001610202565b90565b610070565b61006c565b61030d906100d1565b9052565b9190610324905f60208501940190610304565b565b346103695761036561035461033c366004610211565b9c9b909b9a919a9992999893989794979695966107d4565b61035c610062565b91829182610311565b0390f35b610068565b5f91031261037857565b61006c565b1c90565b60018060a01b031690565b61039c9060086103a1930261037d565b610381565b90565b906103af915461038c565b90565b6103be60015f906103a4565b90565b90565b6103d86103d36103dd926100c6565b6103c1565b6100c6565b90565b6103e9906103c4565b90565b6103f5906103e0565b90565b610401906103ec565b9052565b9190610418905f602085019401906103f8565b565b3461044a5761042a36600461036e565b6104466104356103b2565b61043d610062565b91829182610405565b0390f35b610068565b9060208282031261046857610465915f0161008b565b90565b61006c565b3461049d5761049961048861048336600461044f565b610951565b610490610062565b91829182610311565b0390f35b610068565b6104b66104b16104bb92610074565b6103c1565b610074565b90565b906104c8906104a2565b5f5260205260405f2090565b60018060a01b031690565b6104ef9060086104f4930261037d565b6104d4565b90565b9061050291546104df565b90565b61051a906105155f915f926104be565b6104f7565b90565b3461054d5761054961053861053336600461044f565b610505565b610540610062565b91829182610311565b0390f35b610068565b5f80fd5b5f90565b5f1c90565b61056b6105709161055a565b6104d4565b90565b61057d905461055f565b90565b90565b61059761059261059c92610580565b6103c1565b6100c6565b90565b6105a890610583565b90565b6105b490610074565b9052565b9160206105d99294936105d260408201965f8301906105ab565b0190610304565b565b6105e49061009a565b9052565b5190565b60209181520190565b90825f9392825e0152565b61061f61062860209361062d93610616816105e8565b938480936105ec565b958691016105f5565b610108565b0190565b61063a906101eb565b9052565b9b999e9d9c9a98979593918c979593916101c08901985f0161065f916105ab565b60208d0161066c916105ab565b60408c01610679916105ab565b60608b01610686916105ab565b60808a01610693916105ab565b60a089016106a0916105db565b60c088016106ad91610304565b60e087016106ba91610304565b8581036101008701526106cc91610600565b9661012085016106db916105ab565b61014084016106e9916105db565b61016083016106f791610631565b610180820161070591610631565b6101a00161071291610631565b565b61071c610062565b3d5f823e3d90fd5b5f1b90565b9061073a60018060a01b0391610724565b9181191691161790565b61074d906103c4565b90565b61075990610744565b90565b90565b9061077461076f61077b92610750565b61075c565b8254610729565b9055565b61078b6107909161055a565b610381565b90565b61079d905461077f565b90565b6107a9906103e0565b90565b90565b906107c46107bf6107cb926107a0565b6107ac565b8254610729565b9055565b5f0190565b9b96919994909d9c97929a956107fe6107f98e9b969b6107f2610556565b505f6104be565b610573565b61081861081261080d5f61059f565b6100d1565b916100d1565b0361091f5767ffffffffffffffff9a9b9c9d9e9b9c9991909133939495969798999a610842610062565b9e8f612a6c81019e8f91821091111761091a578f9e8f9e61086b9f612a6c90610970903961063e565b03905ff080156109155761088090600161075f565b6108a56108956108906001610793565b6103ec565b6108a05f84906104be565b6107af565b6108b76108b26001610793565b6103ec565b6108ea6108e47f4c32280f850f7f801af7640070c521f5541c8ca09d04f613abff1850972a0a8d936104a2565b916107a0565b916108f3610062565b806108fd816107cf565b0390a361091261090d6001610793565b6103ec565b90565b610714565b610112565b8c61093261092d825f6104be565b610573565b9061094d5f928392633c15a62b60e11b8452600484016105b8565b0390fd5b61096761096c91610960610556565b505f6104be565b610573565b9056fe6080604052346100425761002c6100146102e3565b9c9b909b9a919a999299989398979497969596610a83565b610034610047565b611d24610d488239611d2490f35b61004d565b60405190565b5f80fd5b601f801991011690565b634e487b7160e01b5f52604160045260245ffd5b9061007990610051565b810190811060018060401b0382111761009157604052565b61005b565b906100a96100a2610047565b928361006f565b565b5f80fd5b5f80fd5b90565b6100bf816100b3565b036100c657565b5f80fd5b905051906100d7826100b6565b565b63ffffffff1690565b6100eb816100d9565b036100f257565b5f80fd5b90505190610103826100e2565b565b60018060a01b031690565b61011990610105565b90565b61012581610110565b0361012c57565b5f80fd5b9050519061013d8261011c565b565b5f80fd5b5f80fd5b60018060401b0381116101635761015f602091610051565b0190565b61005b565b90825f9392825e0152565b9092919261018861018382610147565b610096565b938185526020850190828401116101a4576101a292610168565b565b610143565b9080601f830112156101c7578160206101c493519101610173565b90565b61013f565b90565b6101d8816101cc565b036101df57565b5f80fd5b905051906101f0826101cf565b565b91906101c0838203126102de5761020b815f85016100ca565b9261021982602083016100ca565b9261022783604084016100ca565b9261023581606085016100ca565b9261024382608083016100ca565b926102518360a084016100f6565b9261025f8160c08501610130565b9261026d8260e08301610130565b9261010082015160018060401b0381116102d9578361028d9184016101a9565b9261029c8161012085016100ca565b926102ab8261014083016100f6565b926102d66102bd8461016085016101e3565b936102cc8161018086016101e3565b936101a0016101e3565b90565b6100af565b6100ab565b610301612a6c803803806102f681610096565b9283398101906101f2565b909192939495969798999a9b9c9d565b90565b61032861032361032d92610105565b610311565b610105565b90565b61033990610314565b90565b61034590610330565b90565b5f1b90565b9061035e60018060a01b0391610348565b9181191691161790565b61037190610330565b90565b90565b9061038c61038761039392610368565b610374565b825461034d565b9055565b6103a0906100b3565b9052565b9160206103c59294936103be60408201965f830190610397565b0190610397565b565b90565b6103de6103d96103e3926103c7565b610311565b6100b3565b90565b6103ef90610110565b9052565b91602061041492949361040d60408201965f8301906103e6565b0190610397565b565b5f1c90565b60018060a01b031690565b61043261043791610416565b61041b565b90565b6104449054610426565b90565b61045090610314565b90565b61045c90610447565b90565b60e01b90565b9060208282031261047e5761047b915f016100ca565b90565b6100ab565b9190610496905f602085019401906103e6565b565b6104a0610047565b3d5f823e3d90fd5b6104b260e0610096565b90565b906104bf906100b3565b9052565b906104cd906100d9565b9052565b906104db90610110565b9052565b6104e990516100b3565b90565b906104f85f1991610348565b9181191691161790565b61051661051161051b926100b3565b610311565b6100b3565b90565b90565b9061053661053161053d92610502565b61051e565b82546104ec565b9055565b61054b90516100d9565b90565b9061055d63ffffffff91610348565b9181191691161790565b61057b610576610580926100d9565b610311565b6100d9565b90565b90565b9061059b6105966105a292610567565b610583565b825461054e565b9055565b6105b09051610110565b90565b60201b90565b906105cf640100000000600160c01b03916105b3565b9181191691161790565b6105e290610447565b90565b90565b906105fd6105f8610604926105d9565b6105e5565b82546105b9565b9055565b906106af60c060056106b59461062b5f82016106255f88016104df565b90610521565b6106446001820161063e602088016104df565b90610521565b61065d60028201610657604088016104df565b90610521565b61067660038201610670606088016104df565b90610521565b61068f60048201610689608088016104df565b90610521565b6106a78282016106a160a08801610541565b90610586565b0192016105a6565b906105e8565b565b906106c191610608565b565b6106cd60c0610096565b90565b52565b906106dd906101cc565b9052565b5190565b5190565b634e487b7160e01b5f52602260045260245ffd5b906001600283049216801561071d575b602083101461071857565b6106e9565b91607f169161070d565b5f5260205f2090565b601f602091010490565b1b90565b919060086107599102916107535f198461073a565b9261073a565b9181191691161790565b919061077961077461078193610502565b61051e565b90835461073e565b9055565b5f90565b61079b91610795610785565b91610763565b565b5b8181106107a9575050565b806107b65f600193610789565b0161079e565b9190601f81116107cc575b505050565b6107d86107fd93610727565b9060206107e484610730565b83019310610805575b6107f690610730565b019061079d565b5f80806107c7565b91506107f6819290506107ed565b1c90565b90610827905f1990600802610813565b191690565b8161083691610817565b906002021790565b90610848816106e5565b9060018060401b0382116109065761086a8261086485546106fd565b856107bc565b602090601f831160011461089e5791809161088d935f92610892575b505061082c565b90555b565b90915001515f80610886565b601f198316916108ad85610727565b925f5b8181106108ee575091600293918560019694106108d4575b50505002019055610890565b6108e4910151601f841690610817565b90555f80806108c8565b919360206001819287870151815501950192016108b0565b61005b565b906109159161083e565b565b61092190516101cc565b90565b61092d906101cc565b90565b61093990610416565b90565b9061095161094c61095892610924565b610930565b82546104ec565b9055565b906109eb60a060056109f19461097f5f82016109795f88016106e1565b9061090b565b61099860018201610992602088016104df565b90610521565b6109b1600282016109ab60408801610541565b90610586565b6109ca600382016109c460608801610917565b9061093c565b6109e3600482016109dd60808801610917565b9061093c565b019201610917565b9061093c565b565b906109fd9161095c565b565b610a0890610447565b90565b151590565b610a1981610a0b565b03610a2057565b5f80fd5b90505190610a3182610a10565b565b90602082820312610a4c57610a49915f01610a24565b90565b6100ab565b604090610a7a610a819496959396610a7060608401985f8501906103e6565b60208301906103e6565b0190610397565b565b90949392919c989a96610a9c610aa2919d99979d61033c565b5f610377565b81610ab5610aaf856100b3565b916100b3565b1015610d28578c610ad2610acc6305f5e1006103ca565b916100b3565b10610d0857610b1660208d610aee610ae95f61043a565b610453565b610b0b5f630fcd4a47610aff610047565b9687958694859361045f565b835260048301610483565b03925af1908115610d03578e905f92610ccb575b50610b37610b3d916100b3565b916100b3565b10610cac5795610bf8610c1396610bd68f60209f9e9c988f90610c239f9c610bcf92610c1c9f9a610c0a9c610bb4610bbd92610bab610c019e610ba25f9b610b99610bc69a9b91939597999b610b916104a8565b9e8f016104b5565b60208d016104b5565b60408b016104b5565b606089016104b5565b608087016104b5565b60a085016104c3565b60c083016104d1565b60016106b7565b999791939597610bf0610be76106c3565b9b5f8d016106d0565b8d8b016104b5565b604089016104c3565b606087016106d3565b608085016106d3565b60a083016106d3565b600a6109f3565b610c34610c2f5f61043a565b610453565b610c5e5f63eee0b489610c69610c49306109ff565b97610c52610047565b9889978896879561045f565b855260048501610a51565b03925af18015610ca757610c7b575b50565b610c9b9060203d8111610ca0575b610c93818361006f565b810190610a33565b610c78565b503d610c89565b610498565b610cc78c5f918291638ff398d160e01b835260048301610483565b0390fd5b610b3d919250610cf4610b379160203d8111610cfc575b610cec818361006f565b810190610465565b929150610b2a565b503d610ce2565b610498565b8c8c610d245f928392633678013760e21b8452600484016103f3565b0390fd5b50610d435f92839263bcc509ad60e01b8452600484016103a4565b0390fdfe60806040526004361015610013575b610e33565b61001d5f3561010c565b80630bcb5ed014610107578063291ae9b3146101025780635c889881146100fd5780636f9fb98a146100f857806373d4a13a146100f3578063766c0971146100ee57806379502c55146100e957806391327ec6146100e457806393ab0b72146100df57806395bedd4a146100da578063a3ec138d146100d5578063abac7b5e146100d0578063fc7e286d146100cb578063fde315bd146100c65763ff23ad3a0361000e57610dfe565b610d29565b610c48565b610bfa565b610b5d565b610a86565b610a51565b610930565b6106f0565b6105f7565b610522565b6103ba565b610363565b61030a565b610168565b60e01c90565b60405190565b5f80fd5b5f80fd5b5f91031261012a57565b61011c565b60018060a01b031690565b6101439061012f565b90565b61014f9061013a565b9052565b9190610166905f60208501940190610146565b565b3461019857610178366004610120565b610194610183610e3b565b61018b610112565b91829182610153565b0390f35b610118565b5f80fd5b90565b6101ad816101a1565b036101b457565b5f80fd5b905035906101c5826101a4565b565b5f80fd5b5f80fd5b601f801991011690565b634e487b7160e01b5f52604160045260245ffd5b906101f7906101cf565b810190811067ffffffffffffffff82111761021157604052565b6101d9565b90610229610222610112565b92836101ed565b565b67ffffffffffffffff8111610249576102456020916101cf565b0190565b6101d9565b90825f939282370152565b9092919261026e6102698261022b565b610216565b9381855260208501908284011161028a576102889261024e565b565b6101cb565b9080601f830112156102ad578160206102aa93359101610259565b90565b6101c7565b9091606082840312610300576102ca835f84016101b8565b9260208301359067ffffffffffffffff82116102fb576102ef816102f893860161028f565b936040016101b8565b90565b61019d565b61011c565b5f0190565b346103395761032361031d3660046102b2565b9161125d565b61032b610112565b8061033581610305565b0390f35b610118565b90565b61034a9061033e565b9052565b9190610361905f60208501940190610341565b565b3461039357610373366004610120565b61038f61037e61151e565b610386610112565b9182918261034e565b0390f35b610118565b6103a1906101a1565b9052565b91906103b8905f60208501940190610398565b565b346103ea576103ca366004610120565b6103e66103d5611537565b6103dd610112565b918291826103a5565b0390f35b610118565b5f1c90565b90565b610403610408916103ef565b6103f4565b90565b61041590546103f7565b90565b90565b61042761042c916103ef565b610418565b90565b610439905461041b565b90565b63ffffffff1690565b610451610456916103ef565b61043c565b90565b6104639054610445565b90565b60201c90565b60018060a01b031690565b61048361048891610466565b61046c565b90565b6104959054610477565b90565b6007906104a65f830161040b565b916104b36001820161042f565b916104cb60026104c4818501610459565b930161048b565b90565b63ffffffff1690565b6104e0906104ce565b9052565b6105196105209461050f606094989795610505608086019a5f870190610398565b6020850190610341565b60408301906104d7565b0190610146565b565b3461055657610532366004610120565b61055261053d610498565b90610549949294610112565b948594856104e4565b0390f35b610118565b1c90565b60018060a01b031690565b61057a90600861057f930261055b565b61055f565b90565b9061058d915461056a565b90565b61059b5f5f90610582565b90565b90565b6105b56105b06105ba9261012f565b61059e565b61012f565b90565b6105c6906105a1565b90565b6105d2906105bd565b90565b6105de906105c9565b9052565b91906105f5905f602085019401906105d5565b565b3461062757610607366004610120565b610623610612610590565b61061a610112565b918291826105e2565b0390f35b610118565b60016106395f820161040b565b916106466001830161040b565b916106536002820161040b565b916106606003830161040b565b9161066d6004820161040b565b91610685600561067e818501610459565b930161048b565b90565b949290979695939160e08601985f87016106a191610398565b602086016106ae91610398565b604085016106bb91610398565b606084016106c891610398565b608083016106d591610398565b60a082016106e2916104d7565b60c0016106ee91610146565b565b3461072757610700366004610120565b61072361070b61062c565b9361071a979597939193610112565b97889788610688565b0390f35b610118565b634e487b7160e01b5f52602260045260245ffd5b9060016002830492168015610760575b602083101461075b57565b61072c565b91607f1691610750565b60209181520190565b5f5260205f2090565b905f929180549061079661078f83610740565b809461076a565b916001811690815f146107ed57506001146107b1575b505050565b6107be9192939450610773565b915f925b8184106107d557505001905f80806107ac565b600181602092959395548486015201910192906107c2565b92949550505060ff19168252151560200201905f80806107ac565b906108129161077c565b90565b9061083561082e92610825610112565b93848092610808565b03836101ed565b565b600a906108455f8301610815565b916108526001820161040b565b9161085f60028301610459565b9161086c6003820161042f565b91610885600561087e6004850161042f565b930161042f565b90565b5190565b60209181520190565b90825f9392825e0152565b6108bf6108c86020936108cd936108b681610888565b9384809361088c565b95869101610895565b6101cf565b0190565b919695939461091d61092e9661091360a0966109096108fe6109279760c08a01908a82035f8c01526108a0565b9c6020890190610398565b60408701906104d7565b6060850190610341565b6080830190610341565b0190610341565b565b3461096757610940366004610120565b61096361094b610837565b9261095a969496929192610112565b968796876108d1565b0390f35b610118565b61098b6109946020936109999361098281610888565b9384809361076a565b95869101610895565b6101cf565b0190565b6109a6906101a1565b9052565b6109b3906104ce565b9052565b6109c09061033e565b9052565b90610a369060a0806109e360c084015f8701518582035f87015261096c565b946109f66020820151602086019061099d565b610a08604082015160408601906109aa565b610a1a606082015160608601906109b7565b610a2c608082015160808601906109b7565b01519101906109b7565b90565b610a4e9160208201915f8184039101526109c4565b90565b34610a8157610a61366004610120565b610a7d610a6c611722565b610a74610112565b91829182610a39565b0390f35b610118565b34610ab657610a96366004610120565b610ab2610aa1611766565b610aa9610112565b9182918261034e565b0390f35b610118565b610ac48161013a565b03610acb57565b5f80fd5b90503590610adc82610abb565b565b90602082820312610af757610af4915f01610acf565b90565b61011c565b610b05906105bd565b90565b90610b1290610afc565b5f5260205260405f2090565b610b2e906008610b33930261055b565b6103f4565b90565b90610b419154610b1e565b90565b610b5a90610b556010915f92610b08565b610b36565b90565b34610b8d57610b89610b78610b73366004610ade565b610b44565b610b80610112565b918291826103a5565b0390f35b610118565b610b9b8161033e565b03610ba257565b5f80fd5b90503590610bb382610b92565b565b90602082820312610bce57610bcb915f01610ba6565b90565b61011c565b151590565b610be190610bd3565b9052565b9190610bf8905f60208501940190610bd8565b565b34610c2a57610c26610c15610c10366004610bb5565b611943565b610c1d610112565b91829182610be5565b0390f35b610118565b610c4590610c406012915f92610b08565b610b36565b90565b34610c7857610c74610c63610c5e366004610ade565b610c2f565b610c6b610112565b918291826103a5565b0390f35b610118565b90602082820312610c9657610c93915f016101b8565b90565b61011c565b610caf610caa610cb4926101a1565b61059e565b6101a1565b90565b90610cc190610c9b565b5f5260205260405f2090565b634e487b7160e01b5f525f60045260245ffd5b905f10610cf357610cf090610815565b90565b610ccd565b610d0e90610d096011915f92610cb7565b610ce0565b90565b610d269160208201915f8184039101526108a0565b90565b34610d5957610d55610d44610d3f366004610c7d565b610cf8565b610d4c610112565b91829182610d11565b0390f35b610118565b610d679061013a565b9052565b9060c080610de793610d835f8201515f86019061099d565b610d956020820151602086019061099d565b610da76040820151604086019061099d565b610db96060820151606086019061099d565b610dcb6080820151608086019061099d565b610ddd60a082015160a08601906109aa565b0151910190610d5e565b565b9190610dfc905f60e08501940190610d6b565b565b34610e2e57610e0e366004610120565b610e2a610e19611cd8565b610e21610112565b91829182610de9565b0390f35b610118565b5f80fd5b5f90565b610e43610e37565b50610e51600260070161048b565b90565b90565b610e6b610e66610e7092610e54565b61059e565b6101a1565b90565b610e7f610e84916103ef565b61055f565b90565b610e919054610e73565b90565b5f80fd5b60e01b90565b90505190610eab826101a4565b565b90602082820312610ec657610ec3915f01610e9e565b90565b61011c565b610ed3610112565b3d5f823e3d90fd5b634e487b7160e01b5f52601160045260245ffd5b610ef8906104ce565b63ffffffff8114610f095760010190565b610edb565b5f1b90565b90610f2263ffffffff91610f0e565b9181191691161790565b610f40610f3b610f45926104ce565b61059e565b6104ce565b90565b90565b90610f60610f5b610f6792610f2c565b610f48565b8254610f13565b9055565b90610f775f1991610f0e565b9181191691161790565b90565b90610f99610f94610fa092610c9b565b610f81565b8254610f6b565b9055565b601f602091010490565b1b90565b91906008610fcd910291610fc75f1984610fae565b92610fae565b9181191691161790565b9190610fed610fe8610ff593610c9b565b610f81565b908354610fb2565b9055565b5f90565b61100f91611009610ff9565b91610fd7565b565b5b81811061101d575050565b8061102a5f600193610ffd565b01611012565b9190601f8111611040575b505050565b61104c61107193610773565b90602061105884610fa4565b83019310611079575b61106a90610fa4565b0190611011565b5f808061103b565b915061106a81929050611061565b90611097905f199060080261055b565b191690565b816110a691611087565b906002021790565b906110b881610888565b9067ffffffffffffffff8211611178576110dc826110d68554610740565b85611030565b602090601f8311600114611110579180916110ff935f92611104575b505061109c565b90555b565b90915001515f806110f8565b601f1983169161111f85610773565b925f5b81811061116057509160029391856001969410611146575b50505002019055611102565b611156910151601f841690611087565b90555f808061113a565b91936020600181928787015181550195019201611122565b6101d9565b90611187916110ae565b565b611192906105bd565b90565b61119e81610bd3565b036111a557565b5f80fd5b905051906111b682611195565b565b906020828203126111d1576111ce915f016111a9565b90565b61011c565b6040906111ff61120694969593966111f560608401985f850190610146565b6020830190610146565b0190610398565b565b905090565b6112326112299260209261122081610888565b94858093611208565b93849101610895565b0190565b61123f9161120d565b90565b6112579061124e610112565b91829182611236565b03902090565b91909161127461126f60103390610b08565b61040b565b6112866112805f610e57565b916101a1565b036114fb576112cc60206112a161129c5f610e87565b6105c9565b630fcd4a47906112c15f33936112b5610112565b96879586948593610e98565b835260048301610153565b03925af19081156114f6575f916114c8575b506112f16112eb846101a1565b916101a1565b106114a9574261131561130f61130a600360010161040b565b6101a1565b916101a1565b108015611483575b6114585761136a90611344600260070161133e61133982610459565b610eef565b90610f4b565b6113598161135460103390610b08565b610f84565b61136584916011610cb7565b61117d565b61137f8161137a60123390610b08565b610f84565b602061139261138d5f610e87565b6105c9565b63eee0b489906113bf5f33936113ca6113aa30611189565b976113b3610112565b98899788968795610e98565b8552600485016111d6565b03925af1801561145357611427575b50339061140f6114097f1f42239b48b503e3dfaf0ba9d3094e44ec6412593db709afb46e847fbf35071e93610afc565b91611242565b91611418610112565b8061142281610305565b0390a3565b6114479060203d811161144c575b61143f81836101ed565b8101906111b8565b6113d9565b503d611435565b610ecb565b61147f611468600360010161040b565b5f9182916354fbd5ef60e01b8352600483016103a5565b0390fd5b50426114a361149d611498600460010161040b565b6101a1565b916101a1565b1161131d565b6114c4335f918291638ff398d160e01b835260048301610153565b0390fd5b6114e9915060203d81116114ef575b6114e181836101ed565b810190610ead565b5f6112de565b503d6114d7565b610ecb565b611516335f918291633512759d60e21b835260048301610153565b0390fd5b5f90565b61152661151a565b50611534600160070161042f565b90565b61153f610ff9565b5061158860206115566115515f610e87565b6105c9565b63460379839061157d61156830611189565b92611571610112565b95869485938493610e98565b835260048301610153565b03915afa9081156115cc575f9161159e575b5090565b6115bf915060203d81116115c5575b6115b781836101ed565b810190610ead565b5f61159a565b503d6115ad565b610ecb565b6115db60c0610216565b90565b606090565b5f90565b5f90565b5f90565b6115f76115d1565b9060208080808080876116086115de565b8152016116136115e3565b81520161161e6115e7565b8152016116296115eb565b8152016116346115eb565b81520161163f6115eb565b81525050565b61164d6115ef565b90565b52565b9061165d906101a1565b9052565b9061166b906104ce565b9052565b906116799061033e565b9052565b9061171461170b600561168e6115d1565b946116a561169d5f8301610815565b5f8801611650565b6116bd6116b46001830161040b565b60208801611653565b6116d56116cc60028301610459565b60408801611661565b6116ed6116e46003830161042f565b6060880161166f565b6117056116fc6004830161042f565b6080880161166f565b0161042f565b60a0840161166f565b565b61171f9061167d565b90565b61172a611645565b50611735600a611716565b90565b90565b61174761174c9161033e565b611738565b9052565b61175c8160209361173b565b0190565b60200190565b61176e61151a565b506117966117a56117826004600a0161042f565b61178a610112565b92839160208301611750565b602082018103825203826101ed565b6117b76117b182610888565b91611760565b2090565b5f90565b6117d36117ce6117d892610e54565b61059e565b61012f565b90565b6117e4906117bf565b90565b6117f09061033e565b90565b6117fc906103ef565b90565b9061181461180f61181b926117e7565b6117f3565b8254610f6b565b9055565b60201b90565b9061183b640100000000600160c01b039161181f565b9181191691161790565b90565b9061185d61185861186492610afc565b611845565b8254611825565b9055565b90565b61187f61187a61188492611868565b61059e565b6101a1565b90565b61189661189c919392936101a1565b926101a1565b916118a88382026101a1565b9281840414901517156118b757565b610edb565b90565b6118d36118ce6118d8926118bc565b61059e565b6101a1565b90565b634e487b7160e01b5f52601260045260245ffd5b6118fb611901916101a1565b916101a1565b90811561190c570490565b6118db565b5f91031261191b57565b61011c565b91602061194192949361193a60408201965f830190610146565b0190610398565b565b61194b6117bb565b506119a36119b261196d61197c84611961610112565b92839160208301611750565b602082018103825203826101ed565b61198e61198882610888565b91611760565b20611997610112565b92839160208301611750565b602082018103825203826101ed565b6119c46119be82610888565b91611760565b206119cd611766565b906119db600260070161048b565b6119f56119ef6119ea5f6117db565b61013a565b9161013a565b14155f14611a3c57611a0a611a10919261033e565b9161033e565b145f14611a1d5750600190565b611a38905f9182916377efcdf960e01b83526004830161034e565b0390fd5b611a49611a4f919261033e565b9161033e565b145f14611b7157611a649060016007016117ff565b611a72336002600701611848565b611a83611a7e5f610e87565b6105c9565b63ce7200ba33611abc611aac611a9c600260010161040b565b611aa6600a61186b565b90611887565b611ab660646118bf565b906118ef565b92803b15611b6c57611ae15f8094611aec611ad5610112565b97889687958694610e98565b845260048401611920565b03925af18015611b6757611b3b575b5033611b337fd742a68488227facc44aad7dce2d652e436f3c1b1f4b355a5384a180954fa78091611b2a610112565b91829182610153565b0390a1600190565b611b5a905f3d8111611b60575b611b5281836101ed565b810190611911565b5f611afb565b503d611b48565b610ecb565b610e94565b611b8c905f9182916377efcdf960e01b83526004830161034e565b0390fd5b611b9a60e0610216565b90565b5f90565b611ba9611b90565b90602080808080808088611bbb6115e3565b815201611bc66115e3565b815201611bd16115e3565b815201611bdc6115e3565b815201611be76115e3565b815201611bf26115e7565b815201611bfd611b9d565b81525050565b611c0b611ba1565b90565b90611c189061013a565b9052565b90611cca611cc16005611c2d611b90565b94611c44611c3c5f830161040b565b5f8801611653565b611c5c611c536001830161040b565b60208801611653565b611c74611c6b6002830161040b565b60408801611653565b611c8c611c836003830161040b565b60608801611653565b611ca4611c9b6004830161040b565b60808801611653565b611cbb611cb2838301610459565b60a08801611661565b0161048b565b60c08401611c0e565b565b611cd590611c1c565b90565b611ce0611c03565b50611ceb6001611ccc565b9056fea26469706673582212206188bf322c30ad424b459b5ba281da8849efa770fac83148c00d769b48a52af864736f6c634300081e0033a2646970667358221220a8b8e10f9cfed163e47940c56f0269046d2994facc663242f2e73d68be0e449664736f6c634300081e0033",
    "linkReferences": {}
  },
  "methodIdentifiers": {
    "createVoteContract()": "2ef76b00",
    "createVoteContracts(uint256,uint256,uint256,uint256,uint256,uint256,uint32,address,bytes,uint256,uint32,bytes32,bytes32,bytes32)": "02d8e275",
    "getContractsByMarket(uint256)": "31db74a0",
    "marketContracts(uint256)": "7a1de44e"
  },
  "id": 17
}