{"abi":[{"type":"constructor","inputs":[{"name":"_optionA","type":"uint256","internalType":"uint256"},{"name":"_optionB","type":"uint256","internalType":"uint256"},{"name":"_rewards","type":"uint256","internalType":"uint256"},{"name":"_startTimestamp","type":"uint256","internalType":"uint256"},{"name":"_endTimestamp","type":"uint256","internalType":"uint256"},{"name":"_thresholdVotes","type":"uint32","internalType":"uint32"},{"name":"_creator","type":"address","internalType":"address"},{"name":"_hbarLockingContractAddress","type":"address","internalType":"address"},{"name":"_N","type":"bytes","internalType":"bytes"},{"name":"_t","type":"uint256","internalType":"uint256"},{"name":"_a","type":"uint32","internalType":"uint32"},{"name":"_skLocked","type":"bytes32","internalType":"bytes32"},{"name":"_hashedSK","type":"bytes32","internalType":"bytes32"},{"name":"_publicKey","type":"bytes32","internalType":"bytes32"},{"name":"_question","type":"string","internalType":"string"},{"name":"_description","type":"string","internalType":"string"}],"stateMutability":"nonpayable"},{"type":"function","name":"LockingContract","inputs":[],"outputs":[{"name":"","type":"address","internalType":"contract HBARlockingContract"}],"stateMutability":"view"},{"type":"function","name":"castVote","inputs":[{"name":"_userPublicKey","type":"uint256","internalType":"uint256"},{"name":"_option","type":"bytes","internalType":"bytes"},{"name":"_amount","type":"uint256","internalType":"uint256"}],"outputs":[],"stateMutability":"nonpayable"},{"type":"function","name":"claimRewards","inputs":[{"name":"proof","type":"bytes32[]","internalType":"bytes32[]"}],"outputs":[],"stateMutability":"nonpayable"},{"type":"function","name":"config","inputs":[],"outputs":[{"name":"optionA","type":"uint256","internalType":"uint256"},{"name":"optionB","type":"uint256","internalType":"uint256"},{"name":"rewards","type":"uint256","internalType":"uint256"},{"name":"startTimestamp","type":"uint256","internalType":"uint256"},{"name":"endTimestamp","type":"uint256","internalType":"uint256"},{"name":"thresholdVotes","type":"uint32","internalType":"uint32"},{"name":"creator","type":"address","internalType":"address"},{"name":"question","type":"string","internalType":"string"},{"name":"description","type":"string","internalType":"string"}],"stateMutability":"view"},{"type":"function","name":"data","inputs":[],"outputs":[{"name":"resolvedOption","type":"uint256","internalType":"uint256"},{"name":"unlockedSecret","type":"bytes32","internalType":"bytes32"},{"name":"totalVotes","type":"uint32","internalType":"uint32"},{"name":"solver","type":"address","internalType":"address"},{"name":"owner","type":"address","internalType":"address"},{"name":"optionACount","type":"uint256","internalType":"uint256"},{"name":"optionBCount","type":"uint256","internalType":"uint256"},{"name":"winnerMerkleTreeRoot","type":"bytes32","internalType":"bytes32"},{"name":"addedRewards","type":"uint256","internalType":"uint256"},{"name":"winningUsersTotalDeposits","type":"uint256","internalType":"uint256"},{"name":"totalRewards","type":"uint256","internalType":"uint256"}],"stateMutability":"view"},{"type":"function","name":"deposits","inputs":[{"name":"","type":"address","internalType":"address"}],"outputs":[{"name":"","type":"uint256","internalType":"uint256"}],"stateMutability":"view"},{"type":"function","name":"encryptedVotes","inputs":[{"name":"","type":"uint256","internalType":"uint256"}],"outputs":[{"name":"","type":"bytes","internalType":"bytes"}],"stateMutability":"view"},{"type":"function","name":"finalizeVote","inputs":[{"name":"_optionACount","type":"uint256","internalType":"uint256"},{"name":"_optionBcount","type":"uint256","internalType":"uint256"},{"name":"_winnerMerkleTreeRoot","type":"bytes32","internalType":"bytes32"},{"name":"_addedRewards","type":"uint256","internalType":"uint256"}],"outputs":[],"stateMutability":"nonpayable"},{"type":"function","name":"getContractBalance","inputs":[],"outputs":[{"name":"","type":"uint256","internalType":"uint256"}],"stateMutability":"view"},{"type":"function","name":"getDoubleHashedSK","inputs":[],"outputs":[{"name":"","type":"bytes32","internalType":"bytes32"}],"stateMutability":"view"},{"type":"function","name":"getPublicParameters","inputs":[],"outputs":[{"name":"","type":"tuple","internalType":"struct CreateVote.PublicParameters","components":[{"name":"N","type":"bytes","internalType":"bytes"},{"name":"t","type":"uint256","internalType":"uint256"},{"name":"a","type":"uint32","internalType":"uint32"},{"name":"sk_locked","type":"bytes32","internalType":"bytes32"},{"name":"hashedSK","type":"bytes32","internalType":"bytes32"},{"name":"publicKey","type":"bytes32","internalType":"bytes32"}]}],"stateMutability":"view"},{"type":"function","name":"getVoteConfig","inputs":[],"outputs":[{"name":"","type":"tuple","internalType":"struct CreateVote.VoteConfig","components":[{"name":"optionA","type":"uint256","internalType":"uint256"},{"name":"optionB","type":"uint256","internalType":"uint256"},{"name":"rewards","type":"uint256","internalType":"uint256"},{"name":"startTimestamp","type":"uint256","internalType":"uint256"},{"name":"endTimestamp","type":"uint256","internalType":"uint256"},{"name":"thresholdVotes","type":"uint32","internalType":"uint32"},{"name":"creator","type":"address","internalType":"address"},{"name":"question","type":"string","internalType":"string"},{"name":"description","type":"string","internalType":"string"}]}],"stateMutability":"view"},{"type":"function","name":"getVoteData","inputs":[],"outputs":[{"name":"","type":"tuple","internalType":"struct CreateVote.VoteData","components":[{"name":"resolvedOption","type":"uint256","internalType":"uint256"},{"name":"unlockedSecret","type":"bytes32","internalType":"bytes32"},{"name":"totalVotes","type":"uint32","internalType":"uint32"},{"name":"solver","type":"address","internalType":"address"},{"name":"owner","type":"address","internalType":"address"},{"name":"optionACount","type":"uint256","internalType":"uint256"},{"name":"optionBCount","type":"uint256","internalType":"uint256"},{"name":"winnerMerkleTreeRoot","type":"bytes32","internalType":"bytes32"},{"name":"addedRewards","type":"uint256","internalType":"uint256"},{"name":"winningUsersTotalDeposits","type":"uint256","internalType":"uint256"},{"name":"totalRewards","type":"uint256","internalType":"uint256"}]}],"stateMutability":"view"},{"type":"function","name":"pmContract","inputs":[],"outputs":[{"name":"","type":"address","internalType":"contract IPredictionMarket"}],"stateMutability":"view"},{"type":"function","name":"pp","inputs":[],"outputs":[{"name":"N","type":"bytes","internalType":"bytes"},{"name":"t","type":"uint256","internalType":"uint256"},{"name":"a","type":"uint32","internalType":"uint32"},{"name":"sk_locked","type":"bytes32","internalType":"bytes32"},{"name":"hashedSK","type":"bytes32","internalType":"bytes32"},{"name":"publicKey","type":"bytes32","internalType":"bytes32"}],"stateMutability":"view"},{"type":"function","name":"setPredictionMarket","inputs":[{"name":"_pm","type":"address","internalType":"address"}],"outputs":[],"stateMutability":"nonpayable"},{"type":"function","name":"verifySecret","inputs":[{"name":"_userSecret","type":"bytes32","internalType":"bytes32"}],"outputs":[{"name":"","type":"bool","internalType":"bool"}],"stateMutability":"nonpayable"},{"type":"function","name":"voters","inputs":[{"name":"","type":"address","internalType":"address"}],"outputs":[{"name":"","type":"uint256","internalType":"uint256"}],"stateMutability":"view"},{"type":"event","name":"PuzzleSolved","inputs":[{"name":"solver","type":"address","indexed":true,"internalType":"address"},{"name":"unlockedSecret","type":"bytes32","indexed":true,"internalType":"bytes32"}],"anonymous":false},{"type":"event","name":"VoteCast","inputs":[{"name":"voter","type":"address","indexed":true,"internalType":"address"},{"name":"userPublicKey","type":"uint256","indexed":true,"internalType":"uint256"},{"name":"amount","type":"uint256","indexed":true,"internalType":"uint256"},{"name":"option","type":"bytes","indexed":false,"internalType":"bytes"}],"anonymous":false},{"type":"event","name":"VoteFinalized","inputs":[{"name":"totalVotes","type":"uint256","indexed":true,"internalType":"uint256"},{"name":"resolvedOption","type":"uint256","indexed":true,"internalType":"uint256"},{"name":"rewards","type":"uint256","indexed":true,"internalType":"uint256"}],"anonymous":false},{"type":"event","name":"VoteLost","inputs":[{"name":"voter","type":"address","indexed":true,"internalType":"address"}],"anonymous":false},{"type":"error","name":"ADDRESS_MISMATCH","inputs":[{"name":"","type":"address","internalType":"address"}]},{"type":"error","name":"AlreadyVoted","inputs":[{"name":"","type":"address","internalType":"address"}]},{"type":"error","name":"DepositTooSmall","inputs":[{"name":"","type":"address","internalType":"address"}]},{"type":"error","name":"IncorrectSecretKey","inputs":[{"name":"","type":"bytes32","internalType":"bytes32"}]},{"type":"error","name":"InvalidMerkleProof","inputs":[{"name":"","type":"address","internalType":"address"}]},{"type":"error","name":"NotOwner","inputs":[{"name":"","type":"address","internalType":"address"}]},{"type":"error","name":"RewardsTooSmall","inputs":[{"name":"","type":"address","internalType":"address"},{"name":"","type":"uint256","internalType":"uint256"}]},{"type":"error","name":"StartTimestampMustBeBeforeEndTimestamp","inputs":[{"name":"startTimestamp","type":"uint256","internalType":"uint256"},{"name":"endTimestamp","type":"uint256","internalType":"uint256"}]},{"type":"error","name":"VoteAlreadyFinalized","inputs":[{"name":"","type":"address","internalType":"address"}]},{"type":"error","name":"VoteNotEnded","inputs":[{"name":"","type":"uint256","internalType":"uint256"}]},{"type":"error","name":"VoteNotStarted","inputs":[{"name":"","type":"uint256","internalType":"uint256"}]}],"bytecode":{"object":"0x6080806040523461045557611dd0803803809161001c8285610742565b833981016102008282031261045557815160208301519260408101519160608201519460808301519561005160a08501610765565b9661005e60c08601610776565b9661006b60e08701610776565b6101008701519091906001600160401b03811161045557870181601f82011215610455578181602061009f9351910161078a565b99610120880151936100b46101408a01610765565b956101608a0151976101808b0151996101a08c01519b6101c081015160018060401b03811161045557876100e99183016107cf565b6101e08201519097906001600160401b0381116104555761010a92016107cf565b5f80546001600160a01b0319166001600160a01b038a16179055968484101561072a576305f5e1008e1061070b5760208f9160245f936040519485938492630fcd4a4760e01b845260018060a01b0316600484015260018060a01b03165af18015610461578e915f916106d6575b50106106b857604051610120810195906001600160401b0387118188101761053e578f968f926101009363ffffffff92604052858452866020850152604084015286606084015287608084015216968760a083015260018060a01b031660c08201528760e0820152019687526002556003558a60045560055560065563ffffffff196007541617600755600754640100000000600160c01b038a60201b1690640100000000600160c01b0319161760075580519060018060401b03821161053e576102446008546107ec565b601f811161066a575b50602090601f83116001146106055761027d92915f918361046c575b50508160011b915f199060031b1c19161790565b6008555b518051906001600160401b03821161053e5761029e6009546107ec565b601f81116105b7575b50602090601f8311600114610552576102d692915f918361046c5750508160011b915f199060031b1c19161790565b6009555b60405160c08101906001600160401b0382118183101761053e5760a0916040528981526020810192835263ffffffff6040820194168452606081019485526080810195865201948552875160018060401b03811161053e5761033d6014546107ec565b601f81116104e5575b506020601f8211600114610477578163ffffffff94939261037f9260209b9c5f9261046c5750508160011b915f199060031b1c19161790565b6014555b51601555516016805463ffffffff191692909116919091179055516017555160185551601955600d80546001600160a01b0319167316c9889e863ac61880c9268500b1ba32349353921790555f805460405163eee0b48960e01b81526001600160a01b03958616600482015230602482015260448101939093529193849260649284929091165af1801561046157610425575b604051611595908161083b8239f35b6020813d602011610459575b8161043e60209383610742565b81010312610455575180151503610455575f610416565b5f80fd5b3d9150610431565b6040513d5f823e3d90fd5b015190505f80610269565b601f1982169960145f52815f209a5f5b8181106104cd57509a600192849263ffffffff97969560209d9e106104b5575b505050811b01601455610383565b01515f1960f88460031b161c191690555f80806104a7565b838301518d556001909c019b60209384019301610487565b60145f5261052e907fce6d7b5282bd9a3661ae061feed1dbda4e52ab073b1f9285be6e155d9c38d4ec601f840160051c81019160208510610534575b601f0160051c0190610824565b5f610346565b9091508190610521565b634e487b7160e01b5f52604160045260245ffd5b90601f1983169160095f52815f20925f5b81811061059f5750908460019594939210610587575b505050811b016009556102da565b01515f1960f88460031b161c191690555f8080610579565b92936020600181928786015181550195019301610563565b60095f526105ff907f6e1540171b6c0c960b71a7020d9f60077f6af931a8bbf590da0223dacf75c7af601f850160051c8101916020861061053457601f0160051c0190610824565b5f6102a7565b90601f1983169160085f52815f20925f5b818110610652575090846001959493921061063a575b505050811b01600855610281565b01515f1960f88460031b161c191690555f808061062c565b92936020600181928786015181550195019301610616565b60085f526106b2907ff3f7a9fe364faab93b216da50a3214154f22a0a2b415b23a84c8169e8b636ee3601f850160051c8101916020861061053457601f0160051c0190610824565b5f61024d565b638ff398d160e01b5f9081526001600160a01b038f16600452602490fd5b9150506020813d602011610703575b816106f260209383610742565b81010312610455578d90515f610178565b3d91506106e5565b8d8f633678013760e21b5f5260018060a01b031660045260245260445ffd5b50505063bcc509ad60e01b5f5260045260245260445ffd5b601f909101601f19168101906001600160401b0382119082101761053e57604052565b519063ffffffff8216820361045557565b51906001600160a01b038216820361045557565b9192916001600160401b03821161053e57604051916107b3601f8201601f191660200184610742565b829481845281830111610455578281602093845f96015e010152565b9080601f830112156104555781516107e99260200161078a565b90565b90600182811c9216801561081a575b602083101461080657565b634e487b7160e01b5f52602260045260245ffd5b91607f16916107fb565b81811061082f575050565b5f815560010161082456fe6080806040526004361015610012575f80fd5b5f905f3560e01c9081630270bea014610f415750806303b88ba214610e175780630f3c34d114610bef578063291ae9b31461084e5780636f9fb98a1461083357806373d4a13a146107a5578063766c09711461077e57806379502c55146106e657806391327ec61461068157806393ab0b72146105ac57806395bedd4a146105895780639900a416146103d2578063a3ec138d14610395578063abac7b5e1461036c578063e936a8a614610343578063fc7e286d14610302578063fde315bd146102295763ff23ad3a146100e4575f80fd5b3461022657806003193601126102265761010060609160405190610107826110cd565b80825280602083015280604083015280848301528060808301528060a083015260c08201528260e08201520152604051610140816110cd565b600254815260035490602081019182526102226004546040830190815261020e600554606085019081526006546080860190815263ffffffff6007549160a0880190828416825260c089019360018060a01b039060201c1684526101a2611144565b9460e08a019586526101b26111fb565b976101008b019889526040519b8c9b60208d525160208d01525160408c01525160608b01525160808a01525160a0890152511660c087015260018060a01b0390511660e086015251610120610100860152610140850190611290565b9051838203601f1901610120850152611290565b0390f35b80fd5b5034610226576020366003190112610226576004358152601b6020526040812090604051918181549161025b8361110c565b80865292600181169081156102d85750600114610297575b61022285610283818703826110ea565b604051918291602083526020830190611290565b815260208120939250905b8082106102be5750909150810160200161028382610222610273565b9192600181602092548385880101520191019092916102a2565b8695506102229693506020925061028394915060ff191682840152151560051b8201019293610273565b5034610226576020366003190112610226576004356001600160a01b0381169081900361033f578160409160209352601c83522054604051908152f35b5080fd5b50346102265780600319360112610226576001546040516001600160a01b039091168152602090f35b503461022657602036600319011261022657602061038b600435611402565b6040519015158152f35b5034610226576020366003190112610226576004356001600160a01b0381169081900361033f578160409160209352601a83522054604051908152f35b503461022657608036600319011261022657600d546024359060043590606435906001600160a01b0316330361057657600654804210610564575060105461055157828211156105485781600a555b60443560105561043381600454611368565b908160045561044481601154611368565b8060115561045a83610454611375565b92611368565b8103908111610534576012556104709190611368565b6013551061052c57805b6001546001600160a01b031691823b1561033f57604051630892d0f560e41b81529060028110156105185781602481858097819560048401525af1801561050d576104f8575b5063ffffffff600c5416600a54600454917f261d46d7f08568cdea1c49c29df898cb08eecb2059d632030361815c60f13bc48480a480f35b81610502916110ea565b61022657805f6104c0565b6040513d84823e3d90fd5b634e487b7160e01b83526021600452602483fd5b60019061047a565b634e487b7160e01b86526011600452602486fd5b82600a55610421565b639433374960e01b845230600452602484fd5b63121d3f5760e01b8552600452602484fd5b63245aecd360e01b845233600452602484fd5b503461022657806003193601126102265760206105a46113e0565b604051908152f35b503461022657806003193601126102265760a06040516105cb816110b1565b60608152826020820152826040820152826060820152826080820152015261065d6040516105f8816110b1565b6106006112b4565b81526015546020820190815263ffffffff601654166040830190815260175460608401908152601854906080850191825263ffffffff6019549360a08701948552604051978897602089525160c060208a015260e0890190611290565b95516040880152511660608601525160808501525160a08401525160c08301520390f35b50346102265780600319360112610226576106c861069d6112b4565b60155463ffffffff60165416601754601854906019549260405196879660c0885260c0880190611290565b94602087015260408601526060850152608084015260a08301520390f35b50346102265780600319360112610226576002546003549061022260045461076f60055460065460075490610719611144565b926107226111fb565b95604051998a998a5260208a015260408901526060880152608087015263ffffffff811660a087015260018060a01b039060201c1660c086015261012060e0860152610120850190611290565b90838203610100850152611290565b5034610226578060031936011261022657546040516001600160a01b039091168152602090f35b5034610226578060031936011261022657610160600a54600b54600c5460018060a01b03600d5416600e54600f5460105491601154936012549560135497604051998a5260208a015263ffffffff811660408a015260018060a01b039060201c166060890152608088015260a087015260c086015260e0850152610100840152610120830152610140820152f35b503461022657806003193601126102265760206105a4611375565b50346102265760603660031901126102265760243560043567ffffffffffffffff8211610bd75736602383011215610bd75781600401359167ffffffffffffffff8311610bdb578390604051936108af6020601f19601f84011601866110ea565b8085523660248284010111610bd75780602460209301838701378401015260443591338452601a6020526040842054610bc4578354604051630fcd4a4760e01b8152336004820152906020908290602490829089906001600160a01b03165af18015610a8c5784918691610b8b575b5010610b78576005548042108015610b6d575b610b5b5750600c5463ffffffff811663ffffffff811461053457600163ffffffff9101169063ffffffff191617600c55338452601a602052816040852055818452601b60205260408420815167ffffffffffffffff8111610b4757610996825461110c565b601f8111610b02575b50806020601f8211600114610aa2578791610a97575b508160011b915f199060031b1c19161790555b338452601c60205282604085205583602060018060a01b0382541660646040518094819363eee0b48960e01b83523360048401523060248401528960448401525af18015610a8c57610a54575b507f4be73bfc1c7b94f7cc1fa60e17c015e2fe5ce36b8bb6549ce1a0534b7ec3ab1c6040516020815280610a4e33946020830190611290565b0390a480f35b6020813d602011610a84575b81610a6d602093836110ea565b81010312610a8057518015158114610a15575b8480fd5b3d9150610a60565b6040513d87823e3d90fd5b90508301515f6109b5565b8388528088209150601f198316885b818110610aea57509083600194939210610ad2575b5050811b0190556109c8565b8501515f1960f88460031b161c191690555f80610ac6565b9192602060018192868a015181550194019201610ab1565b82875260208720601f830160051c81019160208410610b3d575b601f0160051c01905b818110610b32575061099f565b878155600101610b25565b9091508190610b1c565b634e487b7160e01b86526041600452602486fd5b6354fbd5ef60e01b8552600452602484fd5b506006544211610931565b638ff398d160e01b845233600452602484fd5b9150506020813d602011610bbc575b81610ba7602093836110ea565b81010312610bb8578390515f61091e565b5f80fd5b3d9150610b9a565b633512759d60e21b845233600452602484fd5b8280fd5b634e487b7160e01b84526041600452602484fd5b5034610bb8576020366003190112610bb8576004359067ffffffffffffffff8211610bb85736602383011215610bb85781600401359167ffffffffffffffff8311610e03578260051b60405193610c4960208301866110ea565b84526024602085019183010191368311610bb857602401905b828210610df357505050335f52601c60205260405f2054918215610de057604080513360208201908152818301869052918152610ca06060826110ea565b5190206040516020810191825260208152610cbc6040826110ea565b5190209160105492935f945b8351861015610d0a5760208660051b85010151908181105f14610cf9575f52602052600160405f205b950194610cc8565b905f52602052600160405f20610cf1565b8403610dcd57601354908181029181830403610db9576012548015610da557610d34920490611368565b335f908152601c60205260408120819055546001600160a01b0316803b15610bb857604051636739005d60e11b815233600482015260248101929092525f908290604490829084905af18015610d9a57610d8c575080f35b610d9891505f906110ea565b005b6040513d5f823e3d90fd5b634e487b7160e01b5f52601260045260245ffd5b634e487b7160e01b5f52601160045260245ffd5b63a14aa8d160e01b5f523360045260245ffd5b638ff398d160e01b5f523360045260245ffd5b8135815260209182019101610c62565b634e487b7160e01b5f52604160045260245ffd5b34610bb8576020366003190112610bb8576004356001600160a01b03811690819003610bb857600d546001600160a01b03163303610f2e57600180546001600160a01b0319168217905560405163b18b78dd60e01b8152602081600481855afa908115610d9a575f91610f0f575b50306001600160a01b0390911603610e9957005b60206004916040519283809263b18b78dd60e01b82525afa908115610d9a575f91610ee0575b506346b6396b60e11b5f9081526001600160a01b0391909116600452602490fd5b610f02915060203d602011610f08575b610efa81836110ea565b810190611349565b81610ebf565b503d610ef0565b610f28915060203d602011610f0857610efa81836110ea565b82610e85565b63245aecd360e01b5f523360045260245ffd5b34610bb8575f366003190112610bb85761014081610f5f5f93611094565b8281528260208201528260408201528260608201528260808201528260a08201528260c08201528260e082015282610100820152826101208201520152610160604051610fab81611094565b600a5490818152600b5460208201908152600c54604083019063ffffffff81168252606084019060018060a01b039060201c16815260018060a01b03600d541660808501908152600e5460a08601908152600f549160c087019283526010549360e0880194855263ffffffff601154966101008a01978852601254986101208b01998a526101406013549b019a8b526040519b8c525160208c0152511660408a015260018060a01b03905116606089015260018060a01b0390511660808801525160a08701525160c08601525160e0850152516101008401525161012083015251610140820152f35b610160810190811067ffffffffffffffff821117610e0357604052565b60c0810190811067ffffffffffffffff821117610e0357604052565b610120810190811067ffffffffffffffff821117610e0357604052565b90601f8019910116810190811067ffffffffffffffff821117610e0357604052565b90600182811c9216801561113a575b602083101461112657565b634e487b7160e01b5f52602260045260245ffd5b91607f169161111b565b604051905f82600854916111578361110c565b80835292600181169081156111dc575060011461117d575b61117b925003836110ea565b565b5060085f90815290917ff3f7a9fe364faab93b216da50a3214154f22a0a2b415b23a84c8169e8b636ee35b8183106111c057505090602061117b9282010161116f565b60209193508060019154838589010152019101909184926111a8565b6020925061117b94915060ff191682840152151560051b82010161116f565b604051905f826009549161120e8361110c565b80835292600181169081156111dc57506001146112315761117b925003836110ea565b5060095f90815290917f6e1540171b6c0c960b71a7020d9f60077f6af931a8bbf590da0223dacf75c7af5b81831061127457505090602061117b9282010161116f565b602091935080600191548385890101520191019091849261125c565b805180835260209291819084018484015e5f828201840152601f01601f1916010190565b604051905f82601454916112c78361110c565b80835292600181169081156111dc57506001146112ea5761117b925003836110ea565b5060145f90815290917fce6d7b5282bd9a3661ae061feed1dbda4e52ab073b1f9285be6e155d9c38d4ec5b81831061132d57505090602061117b9282010161116f565b6020919350806001915483858901015201910190918492611315565b90816020910312610bb857516001600160a01b0381168103610bb85790565b91908201809211610db957565b5f54604051634603798360e01b815230600482015290602090829060249082906001600160a01b03165afa908115610d9a575f916113b1575090565b90506020813d6020116113d8575b816113cc602093836110ea565b81010312610bb8575190565b3d91506113bf565b60185460405160208101918252602081526113fc6040826110ea565b51902090565b5f9060405160208101908282526020815261141e6040826110ea565b519020604051602081019182526020815261143a6040826110ea565b5190206114456113e0565b600c54909190602081901c6001600160a01b03161561147e57500361146b575050600190565b6377efcdf960e01b825260045260249150fd5b929392910361154c57600b839055640100000000600160c01b0319163360201b640100000000600160c01b031617600c555f54600454600a808202926001600160a01b03169180159084049091141715610db957803b15610bb857604051636739005d60e11b8152336004820152606490920460248301525f908290604490829084905af18015610d9a57611539575b507f8c43435d00d84a08dc7aaa1aeecdd17d35ba5b16a2c50897dee23ec147ea5bdd339180a3600190565b61154591505f906110ea565b5f5f61150e565b826377efcdf960e01b5f5260045260245ffdfea264697066735822122063ef70b5ebb1933d7bf4010f5678bfe675b9437de04f56129d8040e0b9b0f41764736f6c634300081e0033","linkReferences":{}},"methodIdentifiers":{"LockingContract()":"766c0971","castVote(uint256,bytes,uint256)":"291ae9b3","claimRewards(bytes32[])":"0f3c34d1","config()":"79502c55","data()":"73d4a13a","deposits(address)":"fc7e286d","encryptedVotes(uint256)":"fde315bd","finalizeVote(uint256,uint256,bytes32,uint256)":"9900a416","getContractBalance()":"6f9fb98a","getDoubleHashedSK()":"95bedd4a","getPublicParameters()":"93ab0b72","getVoteConfig()":"ff23ad3a","getVoteData()":"0270bea0","pmContract()":"e936a8a6","pp()":"91327ec6","setPredictionMarket(address)":"03b88ba2","verifySecret(bytes32)":"abac7b5e","voters(address)":"a3ec138d"},"id":2}