{
  "abi": [
    {
      "type": "constructor",
      "inputs": [],
      "stateMutability": "nonpayable"
    },
    {
      "type": "fallback",
      "stateMutability": "payable"
    },
    {
      "type": "receive",
      "stateMutability": "payable"
    },
    {
      "type": "function",
      "name": "OWNER",
      "inputs": [],
      "outputs": [
        {
          "name": "",
          "type": "address",
          "internalType": "address"
        }
      ],
      "stateMutability": "view"
    },
    {
      "type": "function",
      "name": "WHBAR_CONTRACT_ADDRESS",
      "inputs": [],
      "outputs": [
        {
          "name": "",
          "type": "address",
          "internalType": "address"
        }
      ],
      "stateMutability": "view"
    },
    {
      "type": "function",
      "name": "checkUserDeposit",
      "inputs": [
        {
          "name": "_address",
          "type": "address",
          "internalType": "address"
        }
      ],
      "outputs": [
        {
          "name": "",
          "type": "uint256",
          "internalType": "uint256"
        }
      ],
      "stateMutability": "view"
    },
    {
      "type": "function",
      "name": "checkWHBARBalance",
      "inputs": [
        {
          "name": "_address",
          "type": "address",
          "internalType": "address"
        }
      ],
      "outputs": [
        {
          "name": "",
          "type": "uint256",
          "internalType": "uint256"
        }
      ],
      "stateMutability": "view"
    },
    {
      "type": "function",
      "name": "contractBalance",
      "inputs": [],
      "outputs": [
        {
          "name": "",
          "type": "uint256",
          "internalType": "uint256"
        }
      ],
      "stateMutability": "view"
    },
    {
      "type": "function",
      "name": "contractDeposit",
      "inputs": [],
      "outputs": [],
      "stateMutability": "payable"
    },
    {
      "type": "function",
      "name": "receiveWHbar",
      "inputs": [
        {
          "name": "_receiverAddress",
          "type": "address",
          "internalType": "address"
        },
        {
          "name": "_amount",
          "type": "uint256",
          "internalType": "uint256"
        }
      ],
      "outputs": [],
      "stateMutability": "payable"
    },
    {
      "type": "function",
      "name": "setUserDepositLockingPeriod",
      "inputs": [
        {
          "name": "_userDepositLockingPeriod",
          "type": "uint256",
          "internalType": "uint256"
        }
      ],
      "outputs": [],
      "stateMutability": "nonpayable"
    },
    {
      "type": "function",
      "name": "stakeWithHBAR",
      "inputs": [],
      "outputs": [],
      "stateMutability": "payable"
    },
    {
      "type": "function",
      "name": "totalBalanceInPool",
      "inputs": [],
      "outputs": [
        {
          "name": "",
          "type": "uint256",
          "internalType": "uint256"
        }
      ],
      "stateMutability": "view"
    },
    {
      "type": "function",
      "name": "transferWHbar",
      "inputs": [
        {
          "name": "_payerAddress",
          "type": "address",
          "internalType": "address"
        },
        {
          "name": "_payeeAddress",
          "type": "address",
          "internalType": "address payable"
        },
        {
          "name": "_amount",
          "type": "uint256",
          "internalType": "uint256"
        }
      ],
      "outputs": [
        {
          "name": "",
          "type": "bool",
          "internalType": "bool"
        }
      ],
      "stateMutability": "nonpayable"
    },
    {
      "type": "function",
      "name": "unstake",
      "inputs": [
        {
          "name": "_amount",
          "type": "uint256",
          "internalType": "uint256"
        }
      ],
      "outputs": [],
      "stateMutability": "nonpayable"
    },
    {
      "type": "function",
      "name": "userDepositLockingPeriod",
      "inputs": [],
      "outputs": [
        {
          "name": "",
          "type": "uint256",
          "internalType": "uint256"
        }
      ],
      "stateMutability": "view"
    },
    {
      "type": "function",
      "name": "userDepositTimestamps",
      "inputs": [
        {
          "name": "",
          "type": "address",
          "internalType": "address"
        }
      ],
      "outputs": [
        {
          "name": "",
          "type": "uint256",
          "internalType": "uint256"
        }
      ],
      "stateMutability": "view"
    },
    {
      "type": "function",
      "name": "userDeposits",
      "inputs": [
        {
          "name": "",
          "type": "address",
          "internalType": "address"
        }
      ],
      "outputs": [
        {
          "name": "",
          "type": "uint256",
          "internalType": "uint256"
        }
      ],
      "stateMutability": "view"
    },
    {
      "type": "function",
      "name": "whbarContract",
      "inputs": [],
      "outputs": [
        {
          "name": "",
          "type": "address",
          "internalType": "contract IWHBAR"
        }
      ],
      "stateMutability": "view"
    },
    {
      "type": "error",
      "name": "HBAR_AMOUNT_TOO_SMALL",
      "inputs": [
        {
          "name": "",
          "type": "uint256",
          "internalType": "uint256"
        }
      ]
    },
    {
      "type": "error",
      "name": "HBAR_TRANSFER_FAILED",
      "inputs": [
        {
          "name": "",
          "type": "address",
          "internalType": "address"
        },
        {
          "name": "",
          "type": "uint256",
          "internalType": "uint256"
        }
      ]
    },
    {
      "type": "error",
      "name": "ReentrancyGuardReentrantCall",
      "inputs": []
    },
    {
      "type": "error",
      "name": "SENDER_NOT_OWNER",
      "inputs": [
        {
          "name": "",
          "type": "address",
          "internalType": "address"
        }
      ]
    },
    {
      "type": "error",
      "name": "TIME_TO_LEFT_WITHDRAW",
      "inputs": [
        {
          "name": "",
          "type": "address",
          "internalType": "address"
        },
        {
          "name": "",
          "type": "uint256",
          "internalType": "uint256"
        }
      ]
    },
    {
      "type": "error",
      "name": "USER_HAS_LESS_BALANCE",
      "inputs": [
        {
          "name": "",
          "type": "address",
          "internalType": "address"
        },
        {
          "name": "",
          "type": "uint256",
          "internalType": "uint256"
        }
      ]
    },
    {
      "type": "error",
      "name": "WHBAR_TRANSFER_FAILED",
      "inputs": [
        {
          "name": "",
          "type": "address",
          "internalType": "address"
        },
        {
          "name": "",
          "type": "uint256",
          "internalType": "uint256"
        }
      ]
    }
  ],
  "bytecode": {
    "object": "0x60a0604052346200003d57620000146200010a565b6200001e62000043565b611280620001ec82396080518181816103420152610dae015261128090f35b62000049565b60405190565b5f80fd5b73b1f616b8134f602c3bb465fb5b5e6565ccad37ed90565b60018060a01b031690565b90565b6200008c62000086620000929262000065565b62000070565b62000065565b90565b620000a09062000073565b90565b620000ae9062000095565b90565b5f1b90565b90620000c960018060a01b0391620000b1565b9181191691161790565b620000de9062000095565b90565b90565b90620000fe620000f86200010692620000d3565b620000e1565b8254620000b6565b9055565b62000114620001d4565b620001346200012c620001266200004d565b620000a3565b6005620000e4565b33608052565b90565b90565b62000159620001536200015f926200013a565b62000070565b6200013d565b90565b6200016e600162000140565b90565b906200017f5f1991620000b1565b9181191691161790565b620001a26200019c620001a8926200013d565b62000070565b6200013d565b90565b90565b90620001c8620001c2620001d09262000189565b620001ab565b825462000171565b9055565b620001e9620001e262000162565b5f620001ae565b56fe60806040526004361015610028575b361561001e5761001c611079565b005b61002661106f565b005b6100325f35610131565b806302ccbb2b1461012c5780630a04ed40146101275780630ba36dcd146101225780630fcd4a471461011d578063117803e3146101185780632e17de7814610113578063460379831461010e5780636a795e6b146101095780638b7afe2e14610104578063a6917442146100ff578063af1a20ff146100fa578063b984df03146100f5578063bf87b04c146100f0578063ce7200ba146100eb578063e05425cb146100e65763eee0b4890361000e57610778565b6106b3565b610666565b610610565b6105db565b610599565b610564565b6104c1565b61047d565b61042f565b6103fc565b610386565b61030b565b6102d6565b6101e3565b610155565b60e01c90565b60405190565b5f80fd5b5f91031261014b57565b61013d565b5f0190565b610160366004610141565b610168610917565b610170610137565b8061017a81610150565b0390f35b5f80fd5b1c90565b90565b61019990600861019e9302610182565b610186565b90565b906101ac9154610189565b90565b6101bb60045f906101a1565b90565b90565b6101ca906101be565b9052565b91906101e1905f602085019401906101c1565b565b34610213576101f3366004610141565b61020f6101fe6101af565b610206610137565b918291826101ce565b0390f35b61017e565b60018060a01b031690565b61022c90610218565b90565b61023881610223565b0361023f57565b5f80fd5b905035906102508261022f565b565b9060208282031261026b57610268915f01610243565b90565b61013d565b90565b61028761028261028c92610218565b610270565b610218565b90565b61029890610273565b90565b6102a49061028f565b90565b906102b19061029b565b5f5260205260405f2090565b6102d3906102ce6002915f926102a7565b6101a1565b90565b34610306576103026102f16102ec366004610252565b6102bd565b6102f9610137565b918291826101ce565b0390f35b61017e565b3461033b57610337610326610321366004610252565b610a4a565b61032e610137565b918291826101ce565b0390f35b61017e565b7f000000000000000000000000000000000000000000000000000000000000000090565b61036d90610223565b9052565b9190610384905f60208501940190610364565b565b346103b657610396366004610141565b6103b26103a1610340565b6103a9610137565b91829182610371565b0390f35b61017e565b6103c4816101be565b036103cb57565b5f80fd5b905035906103dc826103bb565b565b906020828203126103f7576103f4915f016103cf565b90565b61013d565b3461042a5761041461040f3660046103de565b610cdc565b61041c610137565b8061042681610150565b0390f35b61017e565b3461045f5761045b61044a610445366004610252565b610d14565b610452610137565b918291826101ce565b0390f35b61017e565b61047a906104756003915f926102a7565b6101a1565b90565b346104ad576104a9610498610493366004610252565b610464565b6104a0610137565b918291826101ce565b0390f35b61017e565b6104be60015f906101a1565b90565b346104f1576104d1366004610141565b6104ed6104dc6104b2565b6104e4610137565b918291826101ce565b0390f35b61017e565b60018060a01b031690565b6105119060086105169302610182565b6104f6565b90565b906105249154610501565b90565b61053360055f90610519565b90565b61053f9061028f565b90565b61054b90610536565b9052565b9190610562905f60208501940190610542565b565b3461059457610574366004610141565b61059061057f610527565b610587610137565b9182918261054f565b0390f35b61017e565b346105c7576105b16105ac3660046103de565b610da5565b6105b9610137565b806105c381610150565b0390f35b61017e565b6105d860065f906101a1565b90565b3461060b576105eb366004610141565b6106076105f66105cc565b6105fe610137565b918291826101ce565b0390f35b61017e565b61061b366004610141565b610623610e10565b61062b610137565b8061063581610150565b0390f35b9190604083820312610661578061065561065e925f8601610243565b936020016103cf565b90565b61013d565b61067a610674366004610639565b90610e2f565b610682610137565b8061068c81610150565b0390f35b73b1f616b8134f602c3bb465fb5b5e6565ccad37ed90565b6106b0610690565b90565b346106e3576106c3366004610141565b6106df6106ce6106a8565b6106d6610137565b91829182610371565b0390f35b61017e565b6106f190610218565b90565b6106fd816106e8565b0361070457565b5f80fd5b90503590610715826106f4565b565b909160608284031261074c57610749610732845f8501610243565b936107408160208601610708565b936040016103cf565b90565b61013d565b151590565b61075f90610751565b9052565b9190610776905f60208501940190610756565b565b346107a9576107a561079461078e366004610717565b91610ef7565b61079c610137565b91829182610763565b0390f35b61017e565b90565b6107c56107c06107ca926107ae565b610270565b6101be565b90565b5f1c90565b6107de6107e3916107cd565b610186565b90565b6107f090546107d2565b90565b634e487b7160e01b5f52601160045260245ffd5b61081661081c919392936101be565b926101be565b820180921161082757565b6107f3565b5f1b90565b9061083d5f199161082c565b9181191691161790565b61085b610856610860926101be565b610270565b6101be565b90565b90565b9061087b61087661088292610847565b610863565b8254610831565b9055565b610892610897916107cd565b6104f6565b90565b6108a49054610886565b90565b5f80fd5b601f801991011690565b634e487b7160e01b5f52604160045260245ffd5b906108d3906108ab565b810190811067ffffffffffffffff8211176108ed57604052565b6108b5565b60e01b90565b5f91031261090257565b61013d565b61090f610137565b3d5f823e3d90fd5b34338161093061092a6305f5e1006107b1565b916101be565b10610a205761098f9061095661094f8461094a60046107e6565b610807565b6004610866565b61097e83610978610969600285906102a7565b91610973836107e6565b610807565b90610866565b61098a429160036102a7565b610866565b6109a161099c600561089a565b610536565b9063d0e30db0909190813b15610a1b575f916109c9916109bf610137565b94859384926108f2565b8252816109d860048201610150565b03925af18015610a16576109ea575b50565b610a09905f3d8111610a0f575b610a0181836108c9565b8101906108f8565b5f6109e7565b503d6109f7565b610907565b6108a7565b610a4282610a2c610137565b9182916388e20c6d60e01b8352600483016101ce565b0390fd5b5f90565b610a61610a6691610a59610a46565b5060026102a7565b6107e6565b90565b610a7a90610a756110af565b610b03565b610a82611138565b565b916020610aa5929493610a9e60408201965f830190610364565b01906101c1565b565b90565b610abe610ab9610ac392610aa7565b610270565b6101be565b90565b610ad5610adb919392936101be565b926101be565b8203918211610ae657565b6107f3565b610af490610273565b90565b610b0090610aeb565b90565b610b17610b12600233906102a7565b6107e6565b903391610b41610b31610b2c600386906102a7565b6107e6565b610b3b60066107e6565b90610807565b9080610b55610b4f856101be565b916101be565b10610cb65750610b645f610aaa565b5080610b78610b72426101be565b916101be565b11610c845750610ba681610ba0610b91600286906102a7565b91610b9b836107e6565b610ac6565b90610866565b610bc3610bbc82610bb760046107e6565b610ac6565b6004610866565b610bd5610bd0600561089a565b610536565b91632e1a7d4d82843b15610c7f57610c0c94610c015f8094610bf5610137565b988995869485936108f2565b8352600483016101ce565b03925af1908115610c7a57610c4c93610c4792610c4e575b50610c42610c3b84610c3660016107e6565b610ac6565b6001610866565b610af7565b6111e8565b565b610c6d905f3d8111610c73575b610c6581836108c9565b8101906108f8565b5f610c24565b503d610c5b565b610907565b6108a7565b610c9091504290610ac6565b90610cb2610c9c610137565b928392631c0c244360e31b845260048401610a84565b0390fd5b83610cd8610cc2610137565b928392634b78418160e01b845260048401610a84565b0390fd5b610ce590610a69565b565b90505190610cf4826103bb565b565b90602082820312610d0f57610d0c915f01610ce7565b90565b61013d565b6020610d5c91610d22610a46565b50610d35610d30600561089a565b610536565b610d516370a08231610d45610137565b958694859384936108f2565b835260048301610371565b03915afa908115610da0575f91610d72575b5090565b610d93915060203d8111610d99575b610d8b81836108c9565b810190610cf6565b5f610d6e565b503d610d81565b610907565b33610dd8610dd27f0000000000000000000000000000000000000000000000000000000000000000610223565b91610223565b03610dea57610de8906006610866565b565b610e0c33610df6610137565b91829163a8ee3ae760e01b835260048301610371565b0390fd5b610e2d610e2634610e2160016107e6565b610807565b6001610866565b565b610e7491610e5e610e6d92610e58610e49849260026102a7565b91610e53836107e6565b610807565b90610866565b610e6860046107e6565b610807565b6004610866565b565b5f90565b610e8381610751565b03610e8a57565b5f80fd5b90505190610e9b82610e7a565b565b90602082820312610eb657610eb3915f01610e8e565b90565b61013d565b610ec49061028f565b90565b610ed090610ebb565b9052565b916020610ef5929493610eee60408201965f830190610ec7565b01906101c1565b565b919091610f02610e76565b50610f17610f12600283906102a7565b6107e6565b610f29610f23846101be565b916101be565b1061103657610f5690610f50610f41849260026102a7565b91610f4b836107e6565b610ac6565b90610866565b610f73610f6c82610f6760046107e6565b610ac6565b6004610866565b610f85610f80600561089a565b610536565b602063a9059cbb918490610fac5f8695610fb7610fa0610137565b978896879586946108f2565b845260048401610ed4565b03925af1908115611031575f91611003575b5091610fd58315610751565b610fde57505090565b610fff610fe9610137565b928392637c5a8d7f60e11b845260048401610ed4565b0390fd5b611024915060203d811161102a575b61101c81836108c9565b810190610e9d565b5f610fc9565b503d611012565b610907565b6110496110448260026102a7565b6107e6565b9061106b611055610137565b928392634b78418160e01b845260048401610a84565b0390fd5b611077610e10565b565b611081610e10565b565b90565b61109a61109561109f92611083565b610270565b6101be565b90565b6110ac6002611086565b90565b6110b85f6107e6565b6110d16110cb6110c66110a2565b6101be565b916101be565b146110e9576110e76110e16110a2565b5f610866565b565b6110f1610137565b633ee5aeb560e01b81528061110860048201610150565b0390fd5b90565b61112361111e6111289261110c565b610270565b6101be565b90565b611135600161110f565b90565b61114961114361112b565b5f610866565b565b905090565b61115b5f809261114b565b0190565b61116890611150565b90565b9061117e611177610137565b92836108c9565b565b67ffffffffffffffff811161119e5761119a6020916108ab565b0190565b6108b5565b906111b56111b083611180565b61116b565b918252565b606090565b3d5f146111da576111cf3d6111a3565b903d5f602084013e5b565b6111e26111ba565b906111d8565b61121d5f806111f684610ebb565b856111ff610137565b908161120a8161115f565b03925af16112166111bf565b5015610751565b611225575050565b611246611230610137565b928392631610f8e160e31b845260048401610ed4565b0390fdfea2646970667358221220d7c24297e8f3cbc633fc5471ca52064604f1c27d5cd4bf252fb59086072c263264736f6c63430008180033",
    "linkReferences": {}
  },
  "methodIdentifiers": {
    "OWNER()": "117803e3",
    "WHBAR_CONTRACT_ADDRESS()": "e05425cb",
    "checkUserDeposit(address)": "0fcd4a47",
    "checkWHBARBalance(address)": "46037983",
    "contractBalance()": "8b7afe2e",
    "contractDeposit()": "bf87b04c",
    "receiveWHbar(address,uint256)": "ce7200ba",
    "setUserDepositLockingPeriod(uint256)": "af1a20ff",
    "stakeWithHBAR()": "02ccbb2b",
    "totalBalanceInPool()": "0a04ed40",
    "transferWHbar(address,address,uint256)": "eee0b489",
    "unstake(uint256)": "2e17de78",
    "userDepositLockingPeriod()": "b984df03",
    "userDepositTimestamps(address)": "6a795e6b",
    "userDeposits(address)": "0ba36dcd",
    "whbarContract()": "a6917442"
  },
  "id": 1
}