{
  "abi": [
    {
      "type": "constructor",
      "inputs": [
        {
          "name": "_liquidityProvider",
          "type": "address",
          "internalType": "address"
        },
        {
          "name": "_oracle",
          "type": "address",
          "internalType": "address"
        },
        {
          "name": "_question",
          "type": "string",
          "internalType": "string"
        },
        {
          "name": "_description",
          "type": "string",
          "internalType": "string"
        },
        {
          "name": "_initialTokenValue",
          "type": "uint256",
          "internalType": "uint256"
        },
        {
          "name": "_hbarLockingContractAddress",
          "type": "address",
          "internalType": "address"
        },
        {
          "name": "_initialYesProbability",
          "type": "uint8",
          "internalType": "uint8"
        },
        {
          "name": "_percentageToLock",
          "type": "uint8",
          "internalType": "uint8"
        },
        {
          "name": "_s_ethCollateral",
          "type": "uint256",
          "internalType": "uint256"
        }
      ],
      "stateMutability": "nonpayable"
    },
    {
      "type": "function",
      "name": "LockingContract",
      "inputs": [],
      "outputs": [
        {
          "name": "",
          "type": "address",
          "internalType": "contract HBARlockingContract"
        }
      ],
      "stateMutability": "view"
    },
    {
      "type": "function",
      "name": "addLiquidity",
      "inputs": [
        {
          "name": "_s_ethCollateral",
          "type": "uint256",
          "internalType": "uint256"
        }
      ],
      "outputs": [],
      "stateMutability": "nonpayable"
    },
    {
      "type": "function",
      "name": "buyTokensWithETH",
      "inputs": [
        {
          "name": "_outcome",
          "type": "uint8",
          "internalType": "enum PredictionMarket.Outcome"
        },
        {
          "name": "_amountTokenToBuy",
          "type": "uint256",
          "internalType": "uint256"
        }
      ],
      "outputs": [],
      "stateMutability": "payable"
    },
    {
      "type": "function",
      "name": "getBuyPriceInEth",
      "inputs": [
        {
          "name": "_outcome",
          "type": "uint8",
          "internalType": "enum PredictionMarket.Outcome"
        },
        {
          "name": "_tradingAmount",
          "type": "uint256",
          "internalType": "uint256"
        }
      ],
      "outputs": [
        {
          "name": "",
          "type": "uint256",
          "internalType": "uint256"
        }
      ],
      "stateMutability": "view"
    },
    {
      "type": "function",
      "name": "getPrediction",
      "inputs": [],
      "outputs": [
        {
          "name": "question",
          "type": "string",
          "internalType": "string"
        },
        {
          "name": "description",
          "type": "string",
          "internalType": "string"
        },
        {
          "name": "outcome1",
          "type": "string",
          "internalType": "string"
        },
        {
          "name": "outcome2",
          "type": "string",
          "internalType": "string"
        },
        {
          "name": "oracle",
          "type": "address",
          "internalType": "address"
        },
        {
          "name": "initialTokenValue",
          "type": "uint256",
          "internalType": "uint256"
        },
        {
          "name": "yesTokenReserve",
          "type": "uint256",
          "internalType": "uint256"
        },
        {
          "name": "noTokenReserve",
          "type": "uint256",
          "internalType": "uint256"
        },
        {
          "name": "isReported",
          "type": "bool",
          "internalType": "bool"
        },
        {
          "name": "yesToken",
          "type": "address",
          "internalType": "address"
        },
        {
          "name": "noToken",
          "type": "address",
          "internalType": "address"
        },
        {
          "name": "winningToken",
          "type": "address",
          "internalType": "address"
        },
        {
          "name": "ethCollateral",
          "type": "uint256",
          "internalType": "uint256"
        },
        {
          "name": "lpTradingRevenue",
          "type": "uint256",
          "internalType": "uint256"
        },
        {
          "name": "predictionMarketOwner",
          "type": "address",
          "internalType": "address"
        },
        {
          "name": "initialProbability",
          "type": "uint256",
          "internalType": "uint256"
        },
        {
          "name": "percentageLocked",
          "type": "uint256",
          "internalType": "uint256"
        }
      ],
      "stateMutability": "view"
    },
    {
      "type": "function",
      "name": "getSellPriceInEth",
      "inputs": [
        {
          "name": "_outcome",
          "type": "uint8",
          "internalType": "enum PredictionMarket.Outcome"
        },
        {
          "name": "_tradingAmount",
          "type": "uint256",
          "internalType": "uint256"
        }
      ],
      "outputs": [
        {
          "name": "",
          "type": "uint256",
          "internalType": "uint256"
        }
      ],
      "stateMutability": "view"
    },
    {
      "type": "function",
      "name": "i_initialTokenValue",
      "inputs": [],
      "outputs": [
        {
          "name": "",
          "type": "uint256",
          "internalType": "uint256"
        }
      ],
      "stateMutability": "view"
    },
    {
      "type": "function",
      "name": "i_initialYesProbability",
      "inputs": [],
      "outputs": [
        {
          "name": "",
          "type": "uint256",
          "internalType": "uint256"
        }
      ],
      "stateMutability": "view"
    },
    {
      "type": "function",
      "name": "i_noToken",
      "inputs": [],
      "outputs": [
        {
          "name": "",
          "type": "address",
          "internalType": "contract PredictionMarketToken"
        }
      ],
      "stateMutability": "view"
    },
    {
      "type": "function",
      "name": "i_oracle",
      "inputs": [],
      "outputs": [
        {
          "name": "",
          "type": "address",
          "internalType": "address"
        }
      ],
      "stateMutability": "view"
    },
    {
      "type": "function",
      "name": "i_percentageLocked",
      "inputs": [],
      "outputs": [
        {
          "name": "",
          "type": "uint256",
          "internalType": "uint256"
        }
      ],
      "stateMutability": "view"
    },
    {
      "type": "function",
      "name": "i_yesToken",
      "inputs": [],
      "outputs": [
        {
          "name": "",
          "type": "address",
          "internalType": "contract PredictionMarketToken"
        }
      ],
      "stateMutability": "view"
    },
    {
      "type": "function",
      "name": "owner",
      "inputs": [],
      "outputs": [
        {
          "name": "",
          "type": "address",
          "internalType": "address"
        }
      ],
      "stateMutability": "view"
    },
    {
      "type": "function",
      "name": "redeemWinningTokens",
      "inputs": [
        {
          "name": "_amount",
          "type": "uint256",
          "internalType": "uint256"
        }
      ],
      "outputs": [],
      "stateMutability": "nonpayable"
    },
    {
      "type": "function",
      "name": "removeLiquidity",
      "inputs": [
        {
          "name": "_ethToWithdraw",
          "type": "uint256",
          "internalType": "uint256"
        }
      ],
      "outputs": [],
      "stateMutability": "nonpayable"
    },
    {
      "type": "function",
      "name": "renounceOwnership",
      "inputs": [],
      "outputs": [],
      "stateMutability": "nonpayable"
    },
    {
      "type": "function",
      "name": "report",
      "inputs": [
        {
          "name": "_winningOutcome",
          "type": "uint8",
          "internalType": "enum PredictionMarket.Outcome"
        }
      ],
      "outputs": [],
      "stateMutability": "nonpayable"
    },
    {
      "type": "function",
      "name": "resolveMarketAndWithdraw",
      "inputs": [],
      "outputs": [
        {
          "name": "ethRedeemed",
          "type": "uint256",
          "internalType": "uint256"
        }
      ],
      "stateMutability": "nonpayable"
    },
    {
      "type": "function",
      "name": "s_description",
      "inputs": [],
      "outputs": [
        {
          "name": "",
          "type": "string",
          "internalType": "string"
        }
      ],
      "stateMutability": "view"
    },
    {
      "type": "function",
      "name": "s_ethCollateral",
      "inputs": [],
      "outputs": [
        {
          "name": "",
          "type": "uint256",
          "internalType": "uint256"
        }
      ],
      "stateMutability": "view"
    },
    {
      "type": "function",
      "name": "s_isReported",
      "inputs": [],
      "outputs": [
        {
          "name": "",
          "type": "bool",
          "internalType": "bool"
        }
      ],
      "stateMutability": "view"
    },
    {
      "type": "function",
      "name": "s_lpTradingRevenue",
      "inputs": [],
      "outputs": [
        {
          "name": "",
          "type": "uint256",
          "internalType": "uint256"
        }
      ],
      "stateMutability": "view"
    },
    {
      "type": "function",
      "name": "s_question",
      "inputs": [],
      "outputs": [
        {
          "name": "",
          "type": "string",
          "internalType": "string"
        }
      ],
      "stateMutability": "view"
    },
    {
      "type": "function",
      "name": "s_winningToken",
      "inputs": [],
      "outputs": [
        {
          "name": "",
          "type": "address",
          "internalType": "contract PredictionMarketToken"
        }
      ],
      "stateMutability": "view"
    },
    {
      "type": "function",
      "name": "sellTokensForEth",
      "inputs": [
        {
          "name": "_outcome",
          "type": "uint8",
          "internalType": "enum PredictionMarket.Outcome"
        },
        {
          "name": "_tradingAmount",
          "type": "uint256",
          "internalType": "uint256"
        }
      ],
      "outputs": [],
      "stateMutability": "nonpayable"
    },
    {
      "type": "function",
      "name": "transferOwnership",
      "inputs": [
        {
          "name": "newOwner",
          "type": "address",
          "internalType": "address"
        }
      ],
      "outputs": [],
      "stateMutability": "nonpayable"
    },
    {
      "type": "event",
      "name": "LiquidityAdded",
      "inputs": [
        {
          "name": "provider",
          "type": "address",
          "indexed": true,
          "internalType": "address"
        },
        {
          "name": "ethAmount",
          "type": "uint256",
          "indexed": false,
          "internalType": "uint256"
        },
        {
          "name": "tokensAmount",
          "type": "uint256",
          "indexed": false,
          "internalType": "uint256"
        }
      ],
      "anonymous": false
    },
    {
      "type": "event",
      "name": "LiquidityRemoved",
      "inputs": [
        {
          "name": "provider",
          "type": "address",
          "indexed": true,
          "internalType": "address"
        },
        {
          "name": "ethAmount",
          "type": "uint256",
          "indexed": false,
          "internalType": "uint256"
        },
        {
          "name": "tokensAmount",
          "type": "uint256",
          "indexed": false,
          "internalType": "uint256"
        }
      ],
      "anonymous": false
    },
    {
      "type": "event",
      "name": "MarketReported",
      "inputs": [
        {
          "name": "oracle",
          "type": "address",
          "indexed": true,
          "internalType": "address"
        },
        {
          "name": "winningOutcome",
          "type": "uint8",
          "indexed": false,
          "internalType": "enum PredictionMarket.Outcome"
        },
        {
          "name": "winningToken",
          "type": "address",
          "indexed": false,
          "internalType": "address"
        }
      ],
      "anonymous": false
    },
    {
      "type": "event",
      "name": "MarketResolved",
      "inputs": [
        {
          "name": "resolver",
          "type": "address",
          "indexed": true,
          "internalType": "address"
        },
        {
          "name": "totalEthToSend",
          "type": "uint256",
          "indexed": false,
          "internalType": "uint256"
        }
      ],
      "anonymous": false
    },
    {
      "type": "event",
      "name": "OwnershipTransferred",
      "inputs": [
        {
          "name": "previousOwner",
          "type": "address",
          "indexed": true,
          "internalType": "address"
        },
        {
          "name": "newOwner",
          "type": "address",
          "indexed": true,
          "internalType": "address"
        }
      ],
      "anonymous": false
    },
    {
      "type": "event",
      "name": "TokensPurchased",
      "inputs": [
        {
          "name": "buyer",
          "type": "address",
          "indexed": true,
          "internalType": "address"
        },
        {
          "name": "outcome",
          "type": "uint8",
          "indexed": false,
          "internalType": "enum PredictionMarket.Outcome"
        },
        {
          "name": "amount",
          "type": "uint256",
          "indexed": false,
          "internalType": "uint256"
        },
        {
          "name": "ethAmount",
          "type": "uint256",
          "indexed": false,
          "internalType": "uint256"
        }
      ],
      "anonymous": false
    },
    {
      "type": "event",
      "name": "TokensSold",
      "inputs": [
        {
          "name": "seller",
          "type": "address",
          "indexed": true,
          "internalType": "address"
        },
        {
          "name": "outcome",
          "type": "uint8",
          "indexed": false,
          "internalType": "enum PredictionMarket.Outcome"
        },
        {
          "name": "amount",
          "type": "uint256",
          "indexed": false,
          "internalType": "uint256"
        },
        {
          "name": "ethAmount",
          "type": "uint256",
          "indexed": false,
          "internalType": "uint256"
        }
      ],
      "anonymous": false
    },
    {
      "type": "event",
      "name": "WinningTokensRedeemed",
      "inputs": [
        {
          "name": "redeemer",
          "type": "address",
          "indexed": true,
          "internalType": "address"
        },
        {
          "name": "amount",
          "type": "uint256",
          "indexed": false,
          "internalType": "uint256"
        },
        {
          "name": "ethAmount",
          "type": "uint256",
          "indexed": false,
          "internalType": "uint256"
        }
      ],
      "anonymous": false
    },
    {
      "type": "error",
      "name": "DepositTooSmall",
      "inputs": [
        {
          "name": "",
          "type": "address",
          "internalType": "address"
        }
      ]
    },
    {
      "type": "error",
      "name": "OwnableInvalidOwner",
      "inputs": [
        {
          "name": "owner",
          "type": "address",
          "internalType": "address"
        }
      ]
    },
    {
      "type": "error",
      "name": "OwnableUnauthorizedAccount",
      "inputs": [
        {
          "name": "account",
          "type": "address",
          "internalType": "address"
        }
      ]
    },
    {
      "type": "error",
      "name": "PredictionMarket__AmountMustBeGreaterThanZero",
      "inputs": []
    },
    {
      "type": "error",
      "name": "PredictionMarket__ETHTransferFailed",
      "inputs": []
    },
    {
      "type": "error",
      "name": "PredictionMarket__InsufficientAllowance",
      "inputs": [
        {
          "name": "_tradingAmount",
          "type": "uint256",
          "internalType": "uint256"
        },
        {
          "name": "_allowance",
          "type": "uint256",
          "internalType": "uint256"
        }
      ]
    },
    {
      "type": "error",
      "name": "PredictionMarket__InsufficientBalance",
      "inputs": [
        {
          "name": "_tradingAmount",
          "type": "uint256",
          "internalType": "uint256"
        },
        {
          "name": "_userBalance",
          "type": "uint256",
          "internalType": "uint256"
        }
      ]
    },
    {
      "type": "error",
      "name": "PredictionMarket__InsufficientLiquidity",
      "inputs": []
    },
    {
      "type": "error",
      "name": "PredictionMarket__InsufficientTokenReserve",
      "inputs": [
        {
          "name": "_outcome",
          "type": "uint8",
          "internalType": "enum PredictionMarket.Outcome"
        },
        {
          "name": "_amountToken",
          "type": "uint256",
          "internalType": "uint256"
        }
      ]
    },
    {
      "type": "error",
      "name": "PredictionMarket__InsufficientWinningTokens",
      "inputs": []
    },
    {
      "type": "error",
      "name": "PredictionMarket__InvalidPercentageToLock",
      "inputs": []
    },
    {
      "type": "error",
      "name": "PredictionMarket__InvalidProbability",
      "inputs": []
    },
    {
      "type": "error",
      "name": "PredictionMarket__MustProvideETHForInitialLiquidity",
      "inputs": []
    },
    {
      "type": "error",
      "name": "PredictionMarket__MustSendExactETHAmount",
      "inputs": []
    },
    {
      "type": "error",
      "name": "PredictionMarket__OnlyOracleCanReport",
      "inputs": []
    },
    {
      "type": "error",
      "name": "PredictionMarket__OwnerCannotCall",
      "inputs": []
    },
    {
      "type": "error",
      "name": "PredictionMarket__PredictionAlreadyReported",
      "inputs": []
    },
    {
      "type": "error",
      "name": "PredictionMarket__PredictionNotReported",
      "inputs": []
    },
    {
      "type": "error",
      "name": "PredictionMarket__TokenTransferFailed",
      "inputs": []
    },
    {
      "type": "error",
      "name": "RewardsTooSmall",
      "inputs": [
        {
          "name": "",
          "type": "address",
          "internalType": "address"
        },
        {
          "name": "",
          "type": "uint256",
          "internalType": "uint256"
        }
      ]
    }
  ],
  "bytecode": {
    "object": "0x61014080604052346108ec576135da803803809161001d8285610922565b83398101610120828203126108ec5761003582610945565b9061004260208401610945565b60408401516001600160401b0381116108ec5782610061918601610959565b606085015190926001600160401b0382116108ec57610081918601610959565b60808501519061009360a08701610945565b936100a060c088016109ae565b6101006100af60e08a016109ae565b980151966001600160a01b031695861561090f575f80546001600160a01b031981168917825588916001600160a01b03909116907f8be0079c531659141344cd1fd0a4f28419497f9722a3daafe3b4186f6b6457e09080a3600680546001600160a01b0319166001600160a01b039290921691821790556305f5e10088106108f85760205f91602460405180948193630fcd4a4760e01b83528c60048401525af180156106105788915f916108bf575b50106108ac5760ff1696606488108015906108a4575b6108955760ff16936064851080159061088d575b61087e576080528051906001600160401b0382116106705760015490600182811c92168015610874575b60208310146107775781601f849311610806575b50602090601f83116001146107a0575f92610795575b50508160011b915f199060031b1c1916176001555b8051906001600160401b0382116106705760025490600182811c9216801561078b575b60208310146107775781601f849311610709575b50602090601f83116001146106a3575f92610698575b50508160011b915f199060031b1c1916176002555b8060a0528460e0528160c052836003556305f5e10084028481046305f5e100148515171561065c578115610684576040519190049190610c70808201916001600160401b03831181841017610670576101008161296a948486833960808152600360808201526259657360e81b60a082015260c06020820152600160c0820152605960f81b60e08201523360408201528760608201520301905ff080156106105761010052604051918183016001600160401b038111848210176106705761010092849283396080815260026080820152614e6f60f01b60a082015260c06020820152600160c0820152602760f91b60e08201523360408201528560608201520301905ff0801561061057610120526103768161037187856109bc565b6109bc565b948560011b958087046002149015171561065c5760640360ff811161065c576103a69260ff6103719216906109bc565b918260011b928084046002149015171561065c57602090606460018060a01b0360065416935f604051958694859363eee0b48960e01b8552600485015230602485015260448401525af18015610610576104429360209261271092610641575b506101005160405163a9059cbb60e01b8152336004820152929091046024830152909384916001600160a01b03169082905f9082906044820190565b03925af19081156106105761049b925f9261061b575b506101205160405163a9059cbb60e01b81523360048201526127109092046024830152909260209184916001600160a01b039091169082905f9082906044820190565b03925af1918215610610575f926105df575b50159081156105d6575b506105c757604051611f8290816109e88239608051818181610401015281816109c4015261104a015260a05181818161023701528181610428015281816105e201528181610fa401528181611106015281816113c30152611bd8015260c0518181816104bc015261092e015260e0518181816101de01526104950152610100518181816102f001528181610635015281816109f901528181610b0001528181610bf50152818161112e015281816115d501528181611b2301528181611c6b01528181611d760152611edc0152610120518181816102cc0152818161069101528181610a8501528181610e1f015281816111930152818161153d0152818161173501528181611dcb0152611e870152f35b6318161dad60e21b5f5260045ffd5b9050155f6104b7565b61060291925060203d602011610609575b6105fa8183610922565b8101906109cf565b905f6104ad565b503d6105f0565b6040513d5f823e3d90fd5b602091925061063961271091833d8511610609576105fa8183610922565b929150610458565b61065790843d8611610609576105fa8183610922565b610406565b634e487b7160e01b5f52601160045260245ffd5b634e487b7160e01b5f52604160045260245ffd5b634e487b7160e01b5f52601260045260245ffd5b015190505f8061023f565b60025f9081528281209350601f198516905b8181106106f157509084600195949392106106d9575b505050811b01600255610254565b01515f1960f88460031b161c191690555f80806106cb565b929360206001819287860151815501950193016106b5565b60025f529091507f405787fa12a823e0f2b7631cc41b3ba8828b3321ca811111fa75cd3aa3bb5ace601f840160051c8101916020851061076d575b90601f859493920160051c01905b81811061075f5750610229565b5f8155849350600101610752565b9091508190610744565b634e487b7160e01b5f52602260045260245ffd5b91607f1691610215565b015190505f806101dd565b60015f9081528281209350601f198516905b8181106107ee57509084600195949392106107d6575b505050811b016001556101f2565b01515f1960f88460031b161c191690555f80806107c8565b929360206001819287860151815501950193016107b2565b60015f529091507fb10e2d527612073b26eecdfd717e6a320cf44b4afac2b0732d9fcbe2b7fa0cf6601f840160051c8101916020851061086a575b90601f859493920160051c01905b81811061085c57506101c7565b5f815584935060010161084f565b9091508190610841565b91607f16916101b3565b63103731c360e21b5f5260045ffd5b508415610189565b6324f7391760e21b5f5260045ffd5b508715610175565b85638ff398d160e01b5f5260045260245ffd5b9150506020813d6020116108f0575b816108db60209383610922565b810103126108ec578790515f61015f565b5f80fd5b3d91506108ce565b8787633678013760e21b5f5260045260245260445ffd5b631e4fbdf760e01b5f525f60045260245ffd5b601f909101601f19168101906001600160401b0382119082101761067057604052565b51906001600160a01b03821682036108ec57565b81601f820112156108ec578051906001600160401b038211610670576040519261098d601f8401601f191660200185610922565b828452602083830101116108ec57815f9260208093018386015e8301015290565b519060ff821682036108ec57565b8181029291811591840414171561065c57565b908160209103126108ec575180151581036108ec579056fe60806040526004361015610011575f80fd5b5f5f3560e01c806306a9cd5e1461158757806314926d981461156c5780631816ca6f146115285780632dc7fd761461150f5780634c5b59a5146113405780634ef897191461130c57806351c6590a146110795780635cb2deb51461103457806365e23abc14610e7557806370a38aee14610bb2578063715018a614610b58578063766c097114610b2f57806379b3d94a14610aea5780637c1bb47e14610ac8578063892d0f50146109965780638da5cb5b1461096f5780638dfeb95214610951578063910ec81b1461091657806391c721e3146108ed5780639c8f9f23146105c05780639f615ee114610280578063aa7a93991461025a578063ac3b90bb1461021f578063df592ec314610201578063f1ce1640146101c65763f2fde38b14610138575f80fd5b346101c35760203660031901126101c3576004356001600160a01b038116908190036101c157610166611d27565b80156101ad5781546001600160a01b03198116821783556001600160a01b03167f8be0079c531659141344cd1fd0a4f28419497f9722a3daafe3b4186f6b6457e08380a380f35b631e4fbdf760e01b82526004829052602482fd5b505b80fd5b50346101c357806003193601126101c35760206040517f00000000000000000000000000000000000000000000000000000000000000008152f35b50346101c357806003193601126101c3576020600354604051908152f35b50346101c357806003193601126101c35760206040517f00000000000000000000000000000000000000000000000000000000000000008152f35b50346101c357806003193601126101c357602060ff60055460a01c166040519015158152f35b50346101c357806003193601126101c3576102996117e0565b6102a16118c2565b6003546004805485546040516306fdde0360e01b81529496946001600160a01b0391821694929390917f00000000000000000000000000000000000000000000000000000000000000008116917f0000000000000000000000000000000000000000000000000000000000000000909116908790849081845afa9283156105b5578793610599575b506040516306fdde0360e01b8152968088600481865afa97881561058c578198610568575b506040516370a0823160e01b815230600482015297602089602481865afa98891561055d578299610529575b506040516370a0823160e01b8152306004820152602081602481885afa92831561051d57926104e5575b50600554946040519b8c9b6102208d526102208d016103c29161196e565b8c810360208e01526103d39161196e565b8b810360408d01526103e49161196e565b8a810360608c01526103f59161196e565b97600160a01b600190037f00000000000000000000000000000000000000000000000000000000000000001660808b01527f000000000000000000000000000000000000000000000000000000000000000060a08b015260c08a015260e08901528260a01c60ff161515610100890152610120880152610140870152600160a01b60019003166101608601526101808501526101a08401526101c08301527f00000000000000000000000000000000000000000000000000000000000000006101e08301527f00000000000000000000000000000000000000000000000000000000000000006102008301520390f35b9091506020813d602011610515575b81610501602093836117aa565b810103126105115751905f6103a4565b5f80fd5b3d91506104f4565b604051903d90823e3d90fd5b9098506020813d602011610555575b81610545602093836117aa565b810103126105115751975f61037a565b3d9150610538565b6040513d84823e3d90fd5b6105859198503d808a833e61057d81836117aa565b810190611a9a565b965f61034e565b50604051903d90823e3d90fd5b6105ae9193503d8089833e61057d81836117aa565b915f610329565b6040513d89823e3d90fd5b50346101c35760203660031901126101c3576004356105dd611d27565b6106077f000000000000000000000000000000000000000000000000000000000000000082611a24565b6305f5e1008102908082046305f5e10014901517156108d9576040516370a0823160e01b81523060048201527f00000000000000000000000000000000000000000000000000000000000000006001600160a01b031690602081602481855afa9081156108ce57859161089c575b508211610885576040516370a0823160e01b81523060048201527f00000000000000000000000000000000000000000000000000000000000000006001600160a01b03169190602081602481865afa90811561087a578691610848575b50831161082f579084916106e885600354611a42565b600355803b156107f657604051632770a7eb60e21b8152306004820152602481018590529083908290604490829084905af190811561082457839161080f575b5050803b156101c157604051632770a7eb60e21b8152306004820152602481018490529082908290604490829084905af1801561055d576107fa575b506006546001600160a01b0316803b156101c157604051636739005d60e11b8152336004820152602481018590529082908290604490829084905af1801561055d576107e1575b505060405191825260208201527f96cd817c6329656790ef8fba7675405193677d39619571282f5e21f3a98cd05960403392a280f35b816107eb916117aa565b6107f657825f6107ab565b8280fd5b81610804916117aa565b6107f657825f610764565b81610819916117aa565b6101c157815f610728565b6040513d85823e3d90fd5b63a4d71b8160e01b855260016004526024839052604485fd5b90506020813d602011610872575b81610863602093836117aa565b8101031261051157515f6106d2565b3d9150610856565b6040513d88823e3d90fd5b6044848363a4d71b8160e01b825281600452602452fd5b90506020813d6020116108c6575b816108b7602093836117aa565b8101031261051157515f610675565b3d91506108aa565b6040513d87823e3d90fd5b634e487b7160e01b83526011600452602483fd5b50346101c357806003193601126101c3576005546040516001600160a01b039091168152602090f35b50346101c357806003193601126101c35760206040517f00000000000000000000000000000000000000000000000000000000000000008152f35b50346101c357806003193601126101c3576020600454604051908152f35b50346101c357806003193601126101c357546040516001600160a01b039091168152602090f35b50346101c35760203660031901126101c35760043560028110156101c15760055460ff8160a01c16610ab9577f00000000000000000000000000000000000000000000000000000000000000006001600160a01b03163303610aaa5781610a83577f0000000000000000000000000000000000000000000000000000000000000000905b6001600160a81b0319166001600160a01b0390911617600160a01b17600581905560405191610a4a908390611992565b6001600160a01b0316602082015233907f54abe5cff8746fc59eefd3a10a4e9821354cd951ffef23d64fdb7939b6e2e41990604090a280f35b7f000000000000000000000000000000000000000000000000000000000000000090610a1a565b63d101b32160e01b8352600483fd5b6378e34bb960e01b8352600483fd5b50346101c3576020610ae2610adc3661178b565b90611c4c565b604051908152f35b50346101c357806003193601126101c3576040517f00000000000000000000000000000000000000000000000000000000000000006001600160a01b03168152602090f35b50346101c357806003193601126101c3576006546040516001600160a01b039091168152602090f35b50346101c357806003193601126101c357610b71611d27565b80546001600160a01b03198116825581906001600160a01b03167f8be0079c531659141344cd1fd0a4f28419497f9722a3daafe3b4186f6b6457e08280a380f35b50346101c357610bc13661178b565b8015610e665760ff60055460a01c16610ab95782546001600160a01b03163314610e57576002821015610e435781610e1d577f00000000000000000000000000000000000000000000000000000000000000005b6040516370a0823160e01b81523360048201526001600160a01b03919091169190602081602481865afa9081156108ce578591610deb575b50818110610dd35750604051636eb1769f60e11b8152336004820152306024820152602081604481865afa9081156108ce578591610da1575b50818110610d895750610c998184611c4c565b91610ca683600454611a42565b6004558480808086335af1610cb9611a6b565b5015610d7a576040516323b872dd60e01b815233600482015230602482015260448101839052906020908290606490829089905af19081156108ce578591610d4b575b5015610d3c57907fdb6c1cc84b96330a9be015b7f4d49df42a035945bf4bc3423e48a6e4259dbb7b91610d366040519283923396846119d8565b0390a280f35b6318161dad60e21b8452600484fd5b610d6d915060203d602011610d73575b610d6581836117aa565b8101906119c0565b5f610cfc565b503d610d5b565b632fdb18b560e01b8552600485fd5b6377594e6960e01b8552600491909152602452604483fd5b90506020813d602011610dcb575b81610dbc602093836117aa565b8101031261051157515f610c86565b3d9150610daf565b63053ab6d560e21b8552600491909152602452604483fd5b90506020813d602011610e15575b81610e06602093836117aa565b8101031261051157515f610c4d565b3d9150610df9565b7f0000000000000000000000000000000000000000000000000000000000000000610c15565b634e487b7160e01b83526021600452602483fd5b63086b2ac360e41b8352600483fd5b632688641b60e21b8352600483fd5b50346101c357806003193601126101c357610e8e611d27565b60055460ff8160a01c1615611025576040516370a0823160e01b815230600482015282916001600160a01b0316908290602081602481865afa90811561055d578291610ff0575b5080610f98575b610ee86004548561199f565b9282600455803b156107f657604051632770a7eb60e21b8152306004820152602481019290925282908290604490829084905af1801561055d57610f83575b5080808084335af1610f37611a6b565b5015610f7457602092506040519081527f316a0bcd9820c43f9ba8738fd680d536a8ac65080f56f96833f696f6dd5a12fd833392a2604051908152f35b632fdb18b560e01b8352600483fd5b81610f8d916117aa565b6107f657825f610f27565b92506305f5e100610fc97f000000000000000000000000000000000000000000000000000000000000000085611a11565b0492600354808511610fe8575b84610fe091611a42565b600355610edc565b935083610fd6565b9150506020813d60201161101d575b8161100c602093836117aa565b81010312610511578390515f610ed5565b3d9150610fff565b635fd4000d60e11b8252600482fd5b50346101c357806003193601126101c3576040517f00000000000000000000000000000000000000000000000000000000000000006001600160a01b03168152602090f35b50346101c35760203660031901126101c357600435611096611d27565b600654604051630fcd4a4760e01b8152336004820152906020908290602490829087906001600160a01b03165af1801561082457829184916112d7575b50106112c4576110e58160035461199f565b6003556305f5e10081028181046305f5e10014821517156108d95761112b907f000000000000000000000000000000000000000000000000000000000000000090611a24565b827f00000000000000000000000000000000000000000000000000000000000000006001600160a01b0316803b156101c1576040516340c10f1960e01b8152306004820152602481018490529082908290604490829084905af1801561055d576112af575b507f00000000000000000000000000000000000000000000000000000000000000006001600160a01b0316803b156101c1576040516340c10f1960e01b8152306004820152602481018490529082908290604490829084905af1801561055d5761129a575b505060065460405163eee0b48960e01b815233600482015230602482015260448101849052906020908290606490829088906001600160a01b03165af1801561128f57611272575b5060405191825260208201527fac1d76749e5447b7b16f5ab61447e1bd502f3bb4807af3b28e620d1700a6ee4560403392a280f35b61128a9060203d602011610d7357610d6581836117aa565b61123d565b6040513d86823e3d90fd5b816112a4916117aa565b6107f657825f6111f5565b816112b9916117aa565b6107f657825f611190565b638ff398d160e01b825233600452602482fd5b9150506020813d602011611304575b816112f3602093836117aa565b81010312610511578190515f6110d3565b3d91506112e6565b50346101c357806003193601126101c35761133c6113286118c2565b60405191829160208352602083019061196e565b0390f35b50346105115760203660031901126105115760043580156115005760055460ff8160a01c16156114f1575f546001600160a01b031633146114e2576040516370a0823160e01b81523360048201526001600160a01b039190911690602081602481855afa80156114935783915f916114ad575b501061149e576305f5e1006113e87f000000000000000000000000000000000000000000000000000000000000000084611a11565b04906113f682600354611a42565b600355803b1561051157604051632770a7eb60e21b815233600482015260248101849052905f908290604490829084905af180156114935761147e575b508280808084335af1611444611a6b565b5015610f745760405191825260208201527faeb4b315a6442ab135da41b9b7b337c712b68e5a6051ef6299965f3e58dbebbb60403392a280f35b61148b9193505f906117aa565b5f915f611433565b6040513d5f823e3d90fd5b6328f48e2f60e01b5f5260045ffd5b9150506020813d6020116114da575b816114c9602093836117aa565b81010312610511578290515f6113b3565b3d91506114bc565b63086b2ac360e41b5f5260045ffd5b635fd4000d60e11b5f5260045ffd5b632688641b60e21b5f5260045ffd5b34610511576020610ae26115223661178b565b90611afd565b34610511575f366003190112610511576040517f00000000000000000000000000000000000000000000000000000000000000006001600160a01b03168152602090f35b34610511575f3660031901126105115761133c6113286117e0565b6115903661178b565b9081156115005760ff60055460a01c1661177c575f546001600160a01b031633146114e2576115bf8282611afd565b340361176d5760028110156117595780611733577f00000000000000000000000000000000000000000000000000000000000000005b6040516370a0823160e01b81523060048201526001600160a01b039190911690602081602481855afa908115611493575f91611701575b5083116116eb5761163f3460045461199f565b600490815560405163a9059cbb60e01b815233918101919091526024810184905290602090829060449082905f905af1908115611493575f916116cc575b50156116bd576116b87f78408fb808ae2018d121a91ae47221eb4b85530dc14522ce2ddcb93083e269d69160405191829133953491846119d8565b0390a2005b6318161dad60e21b5f5260045ffd5b6116e5915060203d602011610d7357610d6581836117aa565b8361167d565b5063a4d71b8160e01b5f5260045260245260445ffd5b90506020813d60201161172b575b8161171c602093836117aa565b8101031261051157518461162c565b3d915061170f565b7f00000000000000000000000000000000000000000000000000000000000000006115f5565b634e487b7160e01b5f52602160045260245ffd5b6309c860a960e31b5f5260045ffd5b6378e34bb960e01b5f5260045ffd5b6040906003190112610511576004356002811015610511579060243590565b90601f8019910116810190811067ffffffffffffffff8211176117cc57604052565b634e487b7160e01b5f52604160045260245ffd5b604051905f6001548060011c91600182169182156118b8575b6020841083146118a45783865285929081156118855750600114611826575b611824925003836117aa565b565b5060015f90815290917fb10e2d527612073b26eecdfd717e6a320cf44b4afac2b0732d9fcbe2b7fa0cf65b81831061186957505090602061182492820101611818565b6020919350806001915483858901015201910190918492611851565b6020925061182494915060ff191682840152151560051b820101611818565b634e487b7160e01b5f52602260045260245ffd5b92607f16926117f9565b604051905f6002548060011c9160018216918215611964575b6020841083146118a4578386528592908115611885575060011461190557611824925003836117aa565b5060025f90815290917f405787fa12a823e0f2b7631cc41b3ba8828b3321ca811111fa75cd3aa3bb5ace5b81831061194857505090602061182492820101611818565b6020919350806001915483858901015201910190918492611930565b92607f16926118db565b805180835260209291819084018484015e5f828201840152601f01601f1916010190565b9060028210156117595752565b919082018092116119ac57565b634e487b7160e01b5f52601160045260245ffd5b90816020910312610511575180151581036105115790565b6040919493926119ec826060810197611992565b60208201520152565b906305f5e1008202918083046305f5e10014901517156119ac57565b818102929181159184041417156119ac57565b8115611a2e570490565b634e487b7160e01b5f52601260045260245ffd5b919082039182116119ac57565b67ffffffffffffffff81116117cc57601f01601f191660200190565b3d15611a95573d90611a7c82611a4f565b91611a8a60405193846117aa565b82523d5f602084013e565b606090565b6020818303126105115780519067ffffffffffffffff8211610511570181601f8201121561051157805190611ace82611a4f565b92611adc60405194856117aa565b8284526020838301011161051157815f9260208093018386015e8301015290565b611b0690611d4d565b828210611c3d576040516318160ddd60e01b8152906020826004817f00000000000000000000000000000000000000000000000000000000000000006001600160a01b03165afa918215611493575f92611c05575b50611bd383611bcd611bb0611bb0611bc789611bc189611bbb83611bb5662386f26fc100009f9d9c611c019f611ba2611bfc9f611ba892611b9b91611a42565b9287611a42565b8261199f565b998a916119f5565b611a24565b99611a42565b90611a42565b9361199f565b916119f5565b9061199f565b60011c7f0000000000000000000000000000000000000000000000000000000000000000611a11565b611a11565b0490565b9391506020843d602011611c35575b81611c21602093836117aa565b810103126105115792519092611bd3611b5b565b3d9150611c14565b63224e54d760e01b5f5260045ffd5b611c5590611d4d565b6040516318160ddd60e01b8152906020826004817f00000000000000000000000000000000000000000000000000000000000000006001600160a01b03165afa918215611493575f92611cef575b50611bd383611bcd611bb0611bb0611bc789611ce989611bbb83611ce3662386f26fc100009f9d9c611c019f611ba2611bfc9f611ba892611b9b91611a42565b9961199f565b93611a42565b9391506020843d602011611d1f575b81611d0b602093836117aa565b810103126105115792519092611bd3611ca3565b3d9150611cfe565b5f546001600160a01b03163303611d3a57565b63118cdaa760e01b5f523360045260245ffd5b600281101561175957611e6b576040516370a0823160e01b8152306004820152906020826024817f00000000000000000000000000000000000000000000000000000000000000006001600160a01b03165afa918215611493575f92611e37575b506040516370a0823160e01b8152306004820152916020836024817f00000000000000000000000000000000000000000000000000000000000000006001600160a01b03165afa928315611493575f93611e0757509190565b9092506020813d602011611e2f575b81611e23602093836117aa565b81010312610511575190565b3d9150611e16565b9091506020813d602011611e63575b81611e53602093836117aa565b810103126105115751905f611dae565b3d9150611e46565b6040516370a0823160e01b8152306004820152906020826024817f00000000000000000000000000000000000000000000000000000000000000006001600160a01b03165afa918215611493575f92611f18575b506040516370a0823160e01b8152306004820152916020836024817f00000000000000000000000000000000000000000000000000000000000000006001600160a01b03165afa928315611493575f93611e0757509190565b9091506020813d602011611f44575b81611f34602093836117aa565b810103126105115751905f611ebf565b3d9150611f2756fea2646970667358221220de0afc24a83b41b8aa9e86377cfa768dcc4e078718f1abed4ff9e579e5a23e3364736f6c634300081e00336080604052346103d357610c7080380380610019816103d7565b9283398101906080818303126103d35780516001600160401b0381116103d357826100459183016103fc565b602082015190926001600160401b0382116103d3576100659183016103fc565b604082015190916001600160a01b038216918290036103d3576060015183519091906001600160401b0381116102e457600354600181811c911680156103c9575b60208210146102c657601f8111610366575b50602094601f8211600114610303579481929394955f926102f8575b50508160011b915f199060031b1c1916176003555b82516001600160401b0381116102e457600454600181811c911680156102da575b60208210146102c657601f8111610263575b506020601f821160011461020057819293945f926101f5575b50508160011b915f199060031b1c1916176004555b3360018060a01b0319600554161760055560018060a01b0319600654161760065533156101e2576002548181018091116101ce57600255335f525f60205260405f208181540190556040519081525f7fddf252ad1be2c89b69c2b068fc378daa952ba7f163c4a11628f55a4df523b3ef60203393a3604051610822908161044e8239f35b634e487b7160e01b5f52601160045260245ffd5b63ec442f0560e01b5f525f60045260245ffd5b015190505f80610135565b601f1982169060045f52805f20915f5b81811061024b57509583600195969710610233575b505050811b0160045561014a565b01515f1960f88460031b161c191690555f8080610225565b9192602060018192868b015181550194019201610210565b60045f527f8a35acfbc15ff81a39ae7d344fd709f28e8600b4aa8c65c6b64bfe7fe36bd19b601f830160051c810191602084106102bc575b601f0160051c01905b8181106102b1575061011c565b5f81556001016102a4565b909150819061029b565b634e487b7160e01b5f52602260045260245ffd5b90607f169061010a565b634e487b7160e01b5f52604160045260245ffd5b015190505f806100d4565b601f1982169560035f52805f20915f5b88811061034e57508360019596979810610336575b505050811b016003556100e9565b01515f1960f88460031b161c191690555f8080610328565b91926020600181928685015181550194019201610313565b60035f527fc2575a0e9e593c00f959f8c92f12db2869c3395a3b0502d05e2516446f71f85b601f830160051c810191602084106103bf575b601f0160051c01905b8181106103b457506100b8565b5f81556001016103a7565b909150819061039e565b90607f16906100a6565b5f80fd5b6040519190601f01601f191682016001600160401b038111838210176102e457604052565b81601f820112156103d3578051906001600160401b0382116102e45761042b601f8301601f19166020016103d7565b92828452602083830101116103d357815f9260208093018386015e830101529056fe6080806040526004361015610012575f80fd5b5f3560e01c90816306fdde031461063057508063095ea7b3146105ae57806318160ddd1461059157806323b872dd146104a6578063313ce5671461048b57806340c10f19146103c55780635b8bec551461039d57806370a082311461036657806395d89b411461024b5780639dc29fac1461017a578063a9059cbb14610127578063dd62ed3e146100d75763def114b6146100ab575f80fd5b346100d3575f3660031901126100d3576005546040516001600160a01b039091168152602090f35b5f80fd5b346100d35760403660031901126100d3576100f0610729565b6100f861073f565b6001600160a01b039182165f908152600160209081526040808320949093168252928352819020549051908152f35b346100d35760403660031901126100d357610140610729565b6006546001600160a01b0316331461016b57610160906024359033610755565b602060405160018152f35b63ec0511b360e01b5f5260045ffd5b346100d35760403660031901126100d357610193610729565b60055460243591906001600160a01b0316330361023c576001600160a01b0316801561022957805f525f60205260405f2054828110610210576020835f947fddf252ad1be2c89b69c2b068fc378daa952ba7f163c4a11628f55a4df523b3ef938587528684520360408620558060025403600255604051908152a3005b9063391434e360e21b5f5260045260245260445260645ffd5b634b637e8f60e11b5f525f60045260245ffd5b631e29ea2960e11b5f5260045ffd5b346100d3575f3660031901126100d3576040515f6004548060011c9060018116801561035c575b6020831081146103485782855290811561032c57506001146102d7575b50819003601f01601f191681019067ffffffffffffffff8211818310176102c3576102bf829182604052826106ff565b0390f35b634e487b7160e01b5f52604160045260245ffd5b905060045f527f8a35acfbc15ff81a39ae7d344fd709f28e8600b4aa8c65c6b64bfe7fe36bd19b5f905b8282106103165750602091508201018261028f565b6001816020925483858801015201910190610301565b90506020925060ff191682840152151560051b8201018261028f565b634e487b7160e01b5f52602260045260245ffd5b91607f1691610272565b346100d35760203660031901126100d3576001600160a01b03610387610729565b165f525f602052602060405f2054604051908152f35b346100d3575f3660031901126100d3576006546040516001600160a01b039091168152602090f35b346100d35760403660031901126100d3576103de610729565b60055460243591906001600160a01b0316330361047c576001600160a01b031690811561046957600254908082018092116104555760207fddf252ad1be2c89b69c2b068fc378daa952ba7f163c4a11628f55a4df523b3ef915f9360025584845283825260408420818154019055604051908152a3005b634e487b7160e01b5f52601160045260245ffd5b63ec442f0560e01b5f525f60045260245ffd5b63294c9fd360e01b5f5260045ffd5b346100d3575f3660031901126100d357602060405160128152f35b346100d35760603660031901126100d3576104bf610729565b6104c761073f565b6006546001600160a01b03838116936044359392909116841461016b575f8481526001602090815260408083203384529091529020545f198110610511575b506101609350610755565b83811061057657841561056357331561055057610160945f52600160205260405f2060018060a01b0333165f526020528360405f209103905584610506565b634a1406b160e11b5f525f60045260245ffd5b63e602df0560e01b5f525f60045260245ffd5b8390637dc7a0d960e11b5f523360045260245260445260645ffd5b346100d3575f3660031901126100d3576020600254604051908152f35b346100d35760403660031901126100d3576105c7610729565b602435903315610563576001600160a01b031690811561055057335f52600160205260405f20825f526020528060405f20556040519081527f8c5be1e5ebec7d5bd14f71427d1e84f3dd0314c0f7b2291e5b200ac8c7c3b92560203392a3602060405160018152f35b346100d3575f3660031901126100d3575f6003548060011c906001811680156106f5575b6020831081146103485782855290811561032c57506001146106a05750819003601f01601f191681019067ffffffffffffffff8211818310176102c3576102bf829182604052826106ff565b905060035f527fc2575a0e9e593c00f959f8c92f12db2869c3395a3b0502d05e2516446f71f85b5f905b8282106106df5750602091508201018261028f565b60018160209254838588010152019101906106ca565b91607f1691610654565b602060409281835280519182918282860152018484015e5f828201840152601f01601f1916010190565b600435906001600160a01b03821682036100d357565b602435906001600160a01b03821682036100d357565b6001600160a01b0316908115610229576001600160a01b031691821561046957815f525f60205260405f20548181106107d357817fddf252ad1be2c89b69c2b068fc378daa952ba7f163c4a11628f55a4df523b3ef92602092855f525f84520360405f2055845f525f825260405f20818154019055604051908152a3565b8263391434e360e21b5f5260045260245260445260645ffdfea26469706673582212204f110345e4b07fb9bd316bb5333cb99e43c5487fdfb1771f8fcca3d637ea8e9764736f6c634300081e0033",
    "linkReferences": {}
  },
  "methodIdentifiers": {
    "LockingContract()": "766c0971",
    "addLiquidity(uint256)": "51c6590a",
    "buyTokensWithETH(uint8,uint256)": "06a9cd5e",
    "getBuyPriceInEth(uint8,uint256)": "2dc7fd76",
    "getPrediction()": "9f615ee1",
    "getSellPriceInEth(uint8,uint256)": "7c1bb47e",
    "i_initialTokenValue()": "ac3b90bb",
    "i_initialYesProbability()": "f1ce1640",
    "i_noToken()": "1816ca6f",
    "i_oracle()": "5cb2deb5",
    "i_percentageLocked()": "910ec81b",
    "i_yesToken()": "79b3d94a",
    "owner()": "8da5cb5b",
    "redeemWinningTokens(uint256)": "4c5b59a5",
    "removeLiquidity(uint256)": "9c8f9f23",
    "renounceOwnership()": "715018a6",
    "report(uint8)": "892d0f50",
    "resolveMarketAndWithdraw()": "65e23abc",
    "s_description()": "4ef89719",
    "s_ethCollateral()": "df592ec3",
    "s_isReported()": "aa7a9399",
    "s_lpTradingRevenue()": "8dfeb952",
    "s_question()": "14926d98",
    "s_winningToken()": "91c721e3",
    "sellTokensForEth(uint8,uint256)": "70a38aee",
    "transferOwnership(address)": "f2fde38b"
  },
  "id": 6
}